{
  "_format": "hh-sol-artifact-1",
  "contractName": "Hilow",
  "sourceName": "contracts/Hilow.sol",
  "abi": [
    {
      "inputs": [
        {
          "internalType": "uint64",
          "name": "subscriptionId",
          "type": "uint64"
        },
        {
          "internalType": "address payable",
          "name": "_teamPayoutContractAddress",
          "type": "address"
        },
        {
          "internalType": "address payable",
          "name": "_supportersPayoutContractAddress",
          "type": "address"
        }
      ],
      "stateMutability": "payable",
      "type": "constructor"
    },
    {
      "inputs": [
        {
          "internalType": "address",
          "name": "have",
          "type": "address"
        },
        {
          "internalType": "address",
          "name": "want",
          "type": "address"
        }
      ],
      "name": "OnlyCoordinatorCanFulfill",
      "type": "error"
    },
    {
      "anonymous": false,
      "inputs": [
        {
          "indexed": true,
          "internalType": "address",
          "name": "player",
          "type": "address"
        },
        {
          "indexed": false,
          "internalType": "uint256",
          "name": "firstDrawCard",
          "type": "uint256"
        }
      ],
      "name": "CardDrawn",
      "type": "event"
    },
    {
      "anonymous": false,
      "inputs": [
        {
          "indexed": true,
          "internalType": "address",
          "name": "tipper",
          "type": "address"
        },
        {
          "indexed": false,
          "internalType": "uint256",
          "name": "amount",
          "type": "uint256"
        }
      ],
      "name": "DealerTipped",
      "type": "event"
    },
    {
      "anonymous": false,
      "inputs": [
        {
          "indexed": true,
          "internalType": "address",
          "name": "player",
          "type": "address"
        },
        {
          "indexed": false,
          "internalType": "uint256",
          "name": "firstDrawCard",
          "type": "uint256"
        },
        {
          "indexed": false,
          "internalType": "uint256",
          "name": "secondDrawCard",
          "type": "uint256"
        },
        {
          "indexed": false,
          "internalType": "bool",
          "name": "isWin",
          "type": "bool"
        }
      ],
      "name": "FirstBetMade",
      "type": "event"
    },
    {
      "anonymous": false,
      "inputs": [
        {
          "indexed": true,
          "internalType": "address",
          "name": "player",
          "type": "address"
        },
        {
          "indexed": false,
          "internalType": "uint256",
          "name": "firstDrawCard",
          "type": "uint256"
        },
        {
          "indexed": false,
          "internalType": "uint256",
          "name": "secondDrawCard",
          "type": "uint256"
        },
        {
          "indexed": false,
          "internalType": "uint256",
          "name": "thirdDrawCard",
          "type": "uint256"
        },
        {
          "indexed": false,
          "internalType": "bool",
          "name": "isWin",
          "type": "bool"
        },
        {
          "indexed": false,
          "internalType": "uint256",
          "name": "payoutMultiplier",
          "type": "uint256"
        },
        {
          "indexed": false,
          "internalType": "uint256",
          "name": "payoutAmount",
          "type": "uint256"
        }
      ],
      "name": "GameFinished",
      "type": "event"
    },
    {
      "anonymous": false,
      "inputs": [
        {
          "indexed": true,
          "internalType": "address",
          "name": "previousOwner",
          "type": "address"
        },
        {
          "indexed": true,
          "internalType": "address",
          "name": "newOwner",
          "type": "address"
        }
      ],
      "name": "OwnershipTransferred",
      "type": "event"
    },
    {
      "inputs": [],
      "name": "drawCard",
      "outputs": [],
      "stateMutability": "nonpayable",
      "type": "function"
    },
    {
      "inputs": [],
      "name": "getActiveGame",
      "outputs": [
        {
          "internalType": "bool",
          "name": "",
          "type": "bool"
        },
        {
          "components": [
            {
              "components": [
                {
                  "components": [
                    {
                      "internalType": "uint256",
                      "name": "value",
                      "type": "uint256"
                    }
                  ],
                  "internalType": "struct Hilow.Card",
                  "name": "firstDraw",
                  "type": "tuple"
                },
                {
                  "components": [
                    {
                      "internalType": "uint256",
                      "name": "value",
                      "type": "uint256"
                    }
                  ],
                  "internalType": "struct Hilow.Card",
                  "name": "secondDraw",
                  "type": "tuple"
                },
                {
                  "components": [
                    {
                      "internalType": "uint256",
                      "name": "value",
                      "type": "uint256"
                    }
                  ],
                  "internalType": "struct Hilow.Card",
                  "name": "thirdDraw",
                  "type": "tuple"
                }
              ],
              "internalType": "struct Hilow.GameCards",
              "name": "cards",
              "type": "tuple"
            },
            {
              "internalType": "uint256",
              "name": "betAmount",
              "type": "uint256"
            },
            {
              "internalType": "bool",
              "name": "firstPrediction",
              "type": "bool"
            },
            {
              "internalType": "bool",
              "name": "secondPrediction",
              "type": "bool"
            }
          ],
          "internalType": "struct Hilow.Game",
          "name": "",
          "type": "tuple"
        }
      ],
      "stateMutability": "view",
      "type": "function"
    },
    {
      "inputs": [],
      "name": "initialCardLoad",
      "outputs": [],
      "stateMutability": "nonpayable",
      "type": "function"
    },
    {
      "inputs": [],
      "name": "isGameAlreadyStarted",
      "outputs": [
        {
          "internalType": "bool",
          "name": "",
          "type": "bool"
        }
      ],
      "stateMutability": "view",
      "type": "function"
    },
    {
      "inputs": [
        {
          "internalType": "bool",
          "name": "higher",
          "type": "bool"
        }
      ],
      "name": "makeFirstBet",
      "outputs": [],
      "stateMutability": "payable",
      "type": "function"
    },
    {
      "inputs": [
        {
          "internalType": "bool",
          "name": "higher",
          "type": "bool"
        }
      ],
      "name": "makeSecondBet",
      "outputs": [],
      "stateMutability": "nonpayable",
      "type": "function"
    },
    {
      "inputs": [],
      "name": "owner",
      "outputs": [
        {
          "internalType": "address",
          "name": "",
          "type": "address"
        }
      ],
      "stateMutability": "view",
      "type": "function"
    },
    {
      "inputs": [
        {
          "internalType": "uint256",
          "name": "requestId",
          "type": "uint256"
        },
        {
          "internalType": "uint256[]",
          "name": "randomWords",
          "type": "uint256[]"
        }
      ],
      "name": "rawFulfillRandomWords",
      "outputs": [],
      "stateMutability": "nonpayable",
      "type": "function"
    },
    {
      "inputs": [],
      "name": "renounceOwnership",
      "outputs": [],
      "stateMutability": "nonpayable",
      "type": "function"
    },
    {
      "inputs": [],
      "name": "sendFunds",
      "outputs": [
        {
          "internalType": "bool",
          "name": "",
          "type": "bool"
        }
      ],
      "stateMutability": "payable",
      "type": "function"
    },
    {
      "inputs": [],
      "name": "tip",
      "outputs": [],
      "stateMutability": "payable",
      "type": "function"
    },
    {
      "inputs": [
        {
          "internalType": "address",
          "name": "newOwner",
          "type": "address"
        }
      ],
      "name": "transferOwnership",
      "outputs": [],
      "stateMutability": "nonpayable",
      "type": "function"
    },
    {
      "inputs": [],
      "name": "viewCards",
      "outputs": [
        {
          "components": [
            {
              "internalType": "uint256",
              "name": "value",
              "type": "uint256"
            }
          ],
          "internalType": "struct Hilow.Card[20]",
          "name": "",
          "type": "tuple[20]"
        }
      ],
      "stateMutability": "view",
      "type": "function"
    },
    {
      "inputs": [],
      "name": "viewCurrentCardCounter",
      "outputs": [
        {
          "internalType": "uint256",
          "name": "",
          "type": "uint256"
        }
      ],
      "stateMutability": "view",
      "type": "function"
    },
    {
      "inputs": [
        {
          "internalType": "address",
          "name": "addr",
          "type": "address"
        }
      ],
      "name": "viewGame",
      "outputs": [
        {
          "components": [
            {
              "components": [
                {
                  "components": [
                    {
                      "internalType": "uint256",
                      "name": "value",
                      "type": "uint256"
                    }
                  ],
                  "internalType": "struct Hilow.Card",
                  "name": "firstDraw",
                  "type": "tuple"
                },
                {
                  "components": [
                    {
                      "internalType": "uint256",
                      "name": "value",
                      "type": "uint256"
                    }
                  ],
                  "internalType": "struct Hilow.Card",
                  "name": "secondDraw",
                  "type": "tuple"
                },
                {
                  "components": [
                    {
                      "internalType": "uint256",
                      "name": "value",
                      "type": "uint256"
                    }
                  ],
                  "internalType": "struct Hilow.Card",
                  "name": "thirdDraw",
                  "type": "tuple"
                }
              ],
              "internalType": "struct Hilow.GameCards",
              "name": "cards",
              "type": "tuple"
            },
            {
              "internalType": "uint256",
              "name": "betAmount",
              "type": "uint256"
            },
            {
              "internalType": "bool",
              "name": "firstPrediction",
              "type": "bool"
            },
            {
              "internalType": "bool",
              "name": "secondPrediction",
              "type": "bool"
            }
          ],
          "internalType": "struct Hilow.Game",
          "name": "",
          "type": "tuple"
        }
      ],
      "stateMutability": "view",
      "type": "function"
    },
    {
      "inputs": [
        {
          "internalType": "bool",
          "name": "higher",
          "type": "bool"
        },
        {
          "internalType": "uint256",
          "name": "firstCard",
          "type": "uint256"
        }
      ],
      "name": "viewPayoffForBet",
      "outputs": [
        {
          "internalType": "uint256",
          "name": "",
          "type": "uint256"
        }
      ],
      "stateMutability": "view",
      "type": "function"
    },
    {
      "inputs": [],
      "name": "withdraw",
      "outputs": [],
      "stateMutability": "nonpayable",
      "type": "function"
    },
    {
      "stateMutability": "payable",
      "type": "receive"
    }
  ],
  "bytecode": "0x60a06040526611c37937e080006002556040518060200160405280600081525060056000820151816000015550506040518060600160405280600560405180602001604052908160008201548152505081526020016005604051806020016040529081600082015481525050815260200160056040518060200160405290816000820154815250508152506006600082015181600001600082015181600001555050602082015181600101600082015181600001555050604082015181600201600082015181600001555050505060405180608001604052806006604051806060016040529081600082016040518060200160405290816000820154815250508152602001600182016040518060200160405290816000820154815250508152602001600282016040518060200160405290816000820154815250508152505081526020016000815260200160001515815260200160001515815250600960008201518160000160008201518160000160008201518160000155505060208201518160010160008201518160000155505060408201518160020160008201518160000155505050506020820151816003015560408201518160040160006101000a81548160ff02191690831515021790555060608201518160040160016101000a81548160ff021916908315150217905550505060405162003b9438038062003b948339818101604052810190620002189190620007aa565b737a1bac17ccc5b313516c5e16fb24f7659aa5ebed8073ffffffffffffffffffffffffffffffffffffffff1660808173ffffffffffffffffffffffffffffffffffffffff16815250505062000282620002766200062f60201b60201c565b6200063760201b60201c565b737a1bac17ccc5b313516c5e16fb24f7659aa5ebed600160006101000a81548173ffffffffffffffffffffffffffffffffffffffff021916908373ffffffffffffffffffffffffffffffffffffffff16021790555082600160146101000a81548167ffffffffffffffff021916908367ffffffffffffffff16021790555081600360006101000a81548173ffffffffffffffffffffffffffffffffffffffff021916908373ffffffffffffffffffffffffffffffffffffffff16021790555080600460006101000a81548173ffffffffffffffffffffffffffffffffffffffff021916908373ffffffffffffffffffffffffffffffffffffffff16021790555060c8600e6000600181526020019081526020016000208190555060c0600e6000600281526020019081526020016000208190555060b8600e6000600381526020019081526020016000208190555060b0600e6000600481526020019081526020016000208190555060a9600e6000600581526020019081526020016000208190555060a1600e600060068152602001908152602001600020819055506099600e600060078152602001908152602001600020819055506092600e60006008815260200190815260200160002081905550608a600e600060098152602001908152602001600020819055506082600e6000600a815260200190815260200160002081905550607b600e6000600b8152602001908152602001600020819055506073600e6000600c8152602001908152602001600020819055506064600e6000600d8152602001908152602001600020819055506064600f600060018152602001908152602001600020819055506073600f60006002815260200190815260200160002081905550607b600f600060038152602001908152602001600020819055506082600f60006004815260200190815260200160002081905550608a600f600060058152602001908152602001600020819055506092600f600060068152602001908152602001600020819055506099600f6000600781526020019081526020016000208190555060a1600f6000600881526020019081526020016000208190555060a9600f6000600981526020019081526020016000208190555060b0600f6000600a81526020019081526020016000208190555060b8600f6000600b81526020019081526020016000208190555060c0600f6000600c81526020019081526020016000208190555060c8600f6000600d81526020019081526020016000208190555050505062000806565b600033905090565b60008060009054906101000a900473ffffffffffffffffffffffffffffffffffffffff169050816000806101000a81548173ffffffffffffffffffffffffffffffffffffffff021916908373ffffffffffffffffffffffffffffffffffffffff1602179055508173ffffffffffffffffffffffffffffffffffffffff168173ffffffffffffffffffffffffffffffffffffffff167f8be0079c531659141344cd1fd0a4f28419497f9722a3daafe3b4186f6b6457e060405160405180910390a35050565b600080fd5b600067ffffffffffffffff82169050919050565b6200071f8162000700565b81146200072b57600080fd5b50565b6000815190506200073f8162000714565b92915050565b600073ffffffffffffffffffffffffffffffffffffffff82169050919050565b6000620007728262000745565b9050919050565b620007848162000765565b81146200079057600080fd5b50565b600081519050620007a48162000779565b92915050565b600080600060608486031215620007c657620007c5620006fb565b5b6000620007d6868287016200072e565b9350506020620007e98682870162000793565b9250506040620007fc8682870162000793565b9150509250925092565b60805161336b620008296000396000818161037d01526103d1015261336b6000f3fe6080604052600436106101025760003560e01c80638a42533a11610095578063957b5fb411610064578063957b5fb4146102b9578063d1565c4e146102e5578063db5051ce14610310578063f2fde38b14610327578063fb2803cb1461035057610109565b80638a42533a1461020a5780638d0819ea146102335780638d68cf59146102705780638da5cb5b1461028e57610109565b80634808a91f116100d15780634808a91f1461016f578063715018a61461018b578063717c0aba146101a257806385e6ed2e146101df57610109565b80631fe543e31461010e5780632755cd2d146101375780632f5be23e146101415780633ccfd60b1461015857610109565b3661010957005b600080fd5b34801561011a57600080fd5b506101356004803603810190610130919061238f565b61037b565b005b61013f61043b565b005b34801561014d57600080fd5b506101566104c9565b005b34801561016457600080fd5b5061016d610741565b005b61018960048036038101906101849190612423565b610882565b005b34801561019757600080fd5b506101a0610d76565b005b3480156101ae57600080fd5b506101c960048036038101906101c491906124ae565b610dfe565b6040516101d691906125ac565b60405180910390f35b3480156101eb57600080fd5b506101f4610f81565b6040516102019190612663565b60405180910390f35b34801561021657600080fd5b50610231600480360381019061022c9190612423565b611056565b005b34801561023f57600080fd5b5061025a6004803603810190610255919061267f565b611571565b60405161026791906126ce565b60405180910390f35b610278611602565b60405161028591906126f8565b60405180910390f35b34801561029a57600080fd5b506102a361160b565b6040516102b09190612722565b60405180910390f35b3480156102c557600080fd5b506102ce611634565b6040516102dc92919061273d565b60405180910390f35b3480156102f157600080fd5b506102fa61181a565b60405161030791906126f8565b60405180910390f35b34801561031c57600080fd5b506103256118fe565b005b34801561033357600080fd5b5061034e600480360381019061034991906124ae565b611985565b005b34801561035c57600080fd5b50610365611a7d565b60405161037291906126ce565b60405180910390f35b7f000000000000000000000000000000000000000000000000000000000000000073ffffffffffffffffffffffffffffffffffffffff163373ffffffffffffffffffffffffffffffffffffffff161461042d57337f00000000000000000000000000000000000000000000000000000000000000006040517f1cf993f4000000000000000000000000000000000000000000000000000000008152600401610424929190612766565b60405180910390fd5b6104378282611b0a565b5050565b6104796040518060400160405280600d81526020017f4465616c65722074697070656400000000000000000000000000000000000000815250611ba1565b3373ffffffffffffffffffffffffffffffffffffffff167faeb748af67bf9eda4819fec479a0e3d66df3965f95a8e10a56e00ff0c3506e2d346040516104bf91906126ce565b60405180910390a2565b601063ffffffff166104db6024611c3a565b11156104eb576104e9611c48565b505b601463ffffffff166104fd6024611c3a565b1061050d5761050c6024611d33565b5b61051561181a565b15610555576040517f08c379a000000000000000000000000000000000000000000000000000000000815260040161054c906127ec565b60405180910390fd5b60006105616024611c3a565b905061056d6024611d40565b6000601082601481106105835761058261280c565b5b016040518060200160405290816000820154815250509050600060405180606001604052808381526020016005604051806020016040529081600082015481525050815260200160056040518060200160405290816000820154815250508152509050600060405180608001604052808381526020016000815260200160001515815260200160001515815250905080602560003373ffffffffffffffffffffffffffffffffffffffff1673ffffffffffffffffffffffffffffffffffffffff16815260200190815260200160002060008201518160000160008201518160000160008201518160000155505060208201518160010160008201518160000155505060408201518160020160008201518160000155505050506020820151816003015560408201518160040160006101000a81548160ff02191690831515021790555060608201518160040160016101000a81548160ff0219169083151502179055509050503373ffffffffffffffffffffffffffffffffffffffff167fe03d22eed58609dac2f9724dfcad843c62fd0ba8050bf0eef99b6d1be0458c18846000015160405161073391906126ce565b60405180910390a250505050565b610749611d56565b73ffffffffffffffffffffffffffffffffffffffff1661076761160b565b73ffffffffffffffffffffffffffffffffffffffff16146107bd576040517f08c379a00000000000000000000000000000000000000000000000000000000081526004016107b490612887565b60405180910390fd5b600047905060006107cc61160b565b90506000808273ffffffffffffffffffffffffffffffffffffffff16846040516107f5906128fe565b60006040518083038185875af1925050503d8060008114610832576040519150601f19603f3d011682016040523d82523d6000602084013e610837565b606091505b50915091508161087c576040517f08c379a00000000000000000000000000000000000000000000000000000000081526004016108739061295f565b60405180910390fd5b50505050565b6002543411156108c7576040517f08c379a00000000000000000000000000000000000000000000000000000000081526004016108be906129cb565b60405180910390fd5b6000602560003373ffffffffffffffffffffffffffffffffffffffff1673ffffffffffffffffffffffffffffffffffffffff1681526020019081526020016000206040518060800160405290816000820160405180606001604052908160008201604051806020016040529081600082015481525050815260200160018201604051806020016040529081600082015481525050815260200160028201604051806020016040529081600082015481525050815250508152602001600382015481526020016004820160009054906101000a900460ff161515151581526020016004820160019054906101000a900460ff1615151515815250509050600081600001519050600081600001516000015111610a17576040517f08c379a0000000000000000000000000000000000000000000000000000000008152600401610a0e90612a5d565b60405180910390fd5b600081602001516000015114610a62576040517f08c379a0000000000000000000000000000000000000000000000000000000008152600401610a5990612aef565b60405180910390fd5b610a6a611d5e565b601463ffffffff16610a7c6024611c3a565b10610a8c57610a8b6024611d33565b5b6000610a986024611c3a565b9050610aa46024611d40565b600060108260148110610aba57610ab961280c565b5b016040518060200160405290816000820154815250509050808360200181905250348460200181815250508484604001901515908115158152505060405180608001604052808481526020018560200151815260200185604001511515815260200160001515815250602560003373ffffffffffffffffffffffffffffffffffffffff1673ffffffffffffffffffffffffffffffffffffffff16815260200190815260200160002060008201518160000160008201518160000160008201518160000155505060208201518160010160008201518160000155505060408201518160020160008201518160000155505050506020820151816003015560408201518160040160006101000a81548160ff02191690831515021790555060608201518160040160016101000a81548160ff0219169083151502179055509050506000610c1684600001516000015185602001516000015188611f46565b905080610d0c576009602560003373ffffffffffffffffffffffffffffffffffffffff1673ffffffffffffffffffffffffffffffffffffffff16815260200190815260200160002060008201816000016000820181600001600082015481600001555050600182018160010160008201548160000155505060028201816002016000820154816000015550505050600382015481600301556004820160009054906101000a900460ff168160040160006101000a81548160ff0219169083151502179055506004820160019054906101000a900460ff168160040160016101000a81548160ff0219169083151502179055509050505b3373ffffffffffffffffffffffffffffffffffffffff167fb66235059c0335f01d635c9cfc8371b4b1837bf9dab50714f196bf46bbd7cc6c85600001516000015186602001516000015184604051610d6693929190612b0f565b60405180910390a2505050505050565b610d7e611d56565b73ffffffffffffffffffffffffffffffffffffffff16610d9c61160b565b73ffffffffffffffffffffffffffffffffffffffff1614610df2576040517f08c379a0000000000000000000000000000000000000000000000000000000008152600401610de990612887565b60405180910390fd5b610dfc6000611fe8565b565b610e06612146565b610e0e611d56565b73ffffffffffffffffffffffffffffffffffffffff16610e2c61160b565b73ffffffffffffffffffffffffffffffffffffffff1614610e82576040517f08c379a0000000000000000000000000000000000000000000000000000000008152600401610e7990612887565b60405180910390fd5b602560008373ffffffffffffffffffffffffffffffffffffffff1673ffffffffffffffffffffffffffffffffffffffff1681526020019081526020016000206040518060800160405290816000820160405180606001604052908160008201604051806020016040529081600082015481525050815260200160018201604051806020016040529081600082015481525050815260200160028201604051806020016040529081600082015481525050815250508152602001600382015481526020016004820160009054906101000a900460ff161515151581526020016004820160019054906101000a900460ff1615151515815250509050919050565b610f89612178565b610f91611d56565b73ffffffffffffffffffffffffffffffffffffffff16610faf61160b565b73ffffffffffffffffffffffffffffffffffffffff1614611005576040517f08c379a0000000000000000000000000000000000000000000000000000000008152600401610ffc90612887565b60405180910390fd5b6010601480602002604051908101604052809291906000905b8282101561104d578382016040518060200160405290816000820154815250508152602001906001019061101e565b50505050905090565b6000602560003373ffffffffffffffffffffffffffffffffffffffff1673ffffffffffffffffffffffffffffffffffffffff1681526020019081526020016000206040518060800160405290816000820160405180606001604052908160008201604051806020016040529081600082015481525050815260200160018201604051806020016040529081600082015481525050815260200160028201604051806020016040529081600082015481525050815250508152602001600382015481526020016004820160009054906101000a900460ff161515151581526020016004820160019054906101000a900460ff1615151515815250509050600081600001519050600081600001516000015111801561117b57506000816020015160000151115b6111ba576040517f08c379a00000000000000000000000000000000000000000000000000000000081526004016111b190612bb8565b60405180910390fd5b600081604001516000015114611205576040517f08c379a00000000000000000000000000000000000000000000000000000000081526004016111fc90612c4a565b60405180910390fd5b601463ffffffff166112176024611c3a565b10611227576112266024611d33565b5b60006112336024611c3a565b905061123f6024611d40565b6000601082601481106112555761125461280c565b5b0160405180602001604052908160008201548152505090508083604001819052508484606001901515908115158152505060405180608001604052808481526020018560200151815260200185604001511515815260200185606001511515815250602560003373ffffffffffffffffffffffffffffffffffffffff1673ffffffffffffffffffffffffffffffffffffffff16815260200190815260200160002060008201518160000160008201518160000160008201518160000155505060208201518160010160008201518160000155505060408201518160020160008201518160000155505050506020820151816003015560408201518160040160006101000a81548160ff02191690831515021790555060608201518160040160016101000a81548160ff02191690831515021790555090505060006113ae8460000151600001518560200151600001518760400151611f46565b905060006113d18560200151600001518660400151600001518860600151611f46565b90506000808380156113e05750825b156114f65760006113fd8860000151600001518a604001516120ac565b905060006114178960200151600001518b606001516120ac565b905061271081838c6020015161142d9190612c99565b6114379190612c99565b6114419190612d22565b92506000803373ffffffffffffffffffffffffffffffffffffffff168560405161146a90612d9f565b60006040518083038185875af1925050503d80600081146114a7576040519150601f19603f3d011682016040523d82523d6000602084013e6114ac565b606091505b5091509150816114f1576040517f08c379a00000000000000000000000000000000000000000000000000000000081526004016114e890612e00565b60405180910390fd5b505050505b3373ffffffffffffffffffffffffffffffffffffffff167f501dbbd935d7938b1f5933e6e50b8f1125be6964d4306738af3312758e8f25de8860000151600001518960200151600001518a604001516000015187878760405161155e96959493929190612e20565b60405180910390a2505050505050505050565b6000600182101580156115855750600d8211155b6115c4576040517f08c379a00000000000000000000000000000000000000000000000000000000081526004016115bb90612ecd565b60405180910390fd5b82156115e557600f60008381526020019081526020016000205490506115fc565b600e60008381526020019081526020016000205490505b92915050565b60006001905090565b60008060009054906101000a900473ffffffffffffffffffffffffffffffffffffffff16905090565b600061163e612146565b61164661181a565b15611751576001602560003373ffffffffffffffffffffffffffffffffffffffff1673ffffffffffffffffffffffffffffffffffffffff168152602001908152602001600020806040518060800160405290816000820160405180606001604052908160008201604051806020016040529081600082015481525050815260200160018201604051806020016040529081600082015481525050815260200160028201604051806020016040529081600082015481525050815250508152602001600382015481526020016004820160009054906101000a900460ff161515151581526020016004820160019054906101000a900460ff161515151581525050905091509150611816565b60006009806040518060800160405290816000820160405180606001604052908160008201604051806020016040529081600082015481525050815260200160018201604051806020016040529081600082015481525050815260200160028201604051806020016040529081600082015481525050815250508152602001600382015481526020016004820160009054906101000a900460ff161515151581526020016004820160019054906101000a900460ff1615151515815250509050915091505b9091565b600080602560003373ffffffffffffffffffffffffffffffffffffffff1673ffffffffffffffffffffffffffffffffffffffff1681526020019081526020016000206000016040518060600160405290816000820160405180602001604052908160008201548152505081526020016001820160405180602001604052908160008201548152505081526020016002820160405180602001604052908160008201548152505081525050905060008160000151600001511180156118e657506000816040015160000151145b156118f55760019150506118fb565b60009150505b90565b611906611d56565b73ffffffffffffffffffffffffffffffffffffffff1661192461160b565b73ffffffffffffffffffffffffffffffffffffffff161461197a576040517f08c379a000000000000000000000000000000000000000000000000000000000815260040161197190612887565b60405180910390fd5b611982611c48565b50565b61198d611d56565b73ffffffffffffffffffffffffffffffffffffffff166119ab61160b565b73ffffffffffffffffffffffffffffffffffffffff1614611a01576040517f08c379a00000000000000000000000000000000000000000000000000000000081526004016119f890612887565b60405180910390fd5b600073ffffffffffffffffffffffffffffffffffffffff168173ffffffffffffffffffffffffffffffffffffffff161415611a71576040517f08c379a0000000000000000000000000000000000000000000000000000000008152600401611a6890612f5f565b60405180910390fd5b611a7a81611fe8565b50565b6000611a87611d56565b73ffffffffffffffffffffffffffffffffffffffff16611aa561160b565b73ffffffffffffffffffffffffffffffffffffffff1614611afb576040517f08c379a0000000000000000000000000000000000000000000000000000000008152600401611af290612887565b60405180910390fd5b611b056024611c3a565b905090565b60005b601463ffffffff16811015611b925760405180602001604052806001600d858581518110611b3e57611b3d61280c565b5b6020026020010151611b509190612f7f565b611b5a9190612fb0565b81525060108260148110611b7157611b7061280c565b5b01600082015181600001559050508080611b8a90613006565b915050611b0d565b50611b9d6024611d33565b5050565b611c3781604051602401611bb591906130c6565b6040516020818303038152906040527f41304fac000000000000000000000000000000000000000000000000000000007bffffffffffffffffffffffffffffffffffffffffffffffffffffffff19166020820180517bffffffffffffffffffffffffffffffffffffffffffffffffffffffff83818316178352505050506120f1565b50565b600081600001549050919050565b6000600160009054906101000a900473ffffffffffffffffffffffffffffffffffffffff1673ffffffffffffffffffffffffffffffffffffffff16635d3b1d307f4b09e658ed251bcafeebbc69400383d49f344ace09b9576fe248bb02c003fe9f60001b600160149054906101000a900467ffffffffffffffff166003620f424060146040518663ffffffff1660e01b8152600401611ceb959493929190613160565b6020604051808303816000875af1158015611d0a573d6000803e3d6000fd5b505050506040513d601f19601f82011682018060405250810190611d2e91906131c8565b905090565b6000816000018190555050565b6001816000016000828254019250508190555050565b600033905090565b6000611d75611d6e34600161211a565b6064612130565b90506000611d8e611d8734600461211a565b6064612130565b90506000600360009054906101000a900473ffffffffffffffffffffffffffffffffffffffff1673ffffffffffffffffffffffffffffffffffffffff16638d68cf59846040518263ffffffff1660e01b815260040160206040518083038185885af1158015611e01573d6000803e3d6000fd5b50505050506040513d601f19601f82011682018060405250810190611e26919061320a565b905080611e68576040517f08c379a0000000000000000000000000000000000000000000000000000000008152600401611e5f90613283565b60405180910390fd5b6000600460009054906101000a900473ffffffffffffffffffffffffffffffffffffffff1673ffffffffffffffffffffffffffffffffffffffff16638d68cf59846040518263ffffffff1660e01b815260040160206040518083038185885af1158015611ed9573d6000803e3d6000fd5b50505050506040513d601f19601f82011682018060405250810190611efe919061320a565b905080611f40576040517f08c379a0000000000000000000000000000000000000000000000000000000008152600401611f3790613315565b60405180910390fd5b50505050565b6000808215611f98576001851415611f6a5784841115611f6557600190505b611f93565b600d851415611f855784841415611f8057600190505b611f92565b848410611f9157600190505b5b5b611fdd565b6001851415611fb35784841415611fae57600190505b611fdc565b600d851415611fce5784841015611fc957600190505b611fdb565b848411611fda57600190505b5b5b5b809150509392505050565b60008060009054906101000a900473ffffffffffffffffffffffffffffffffffffffff169050816000806101000a81548173ffffffffffffffffffffffffffffffffffffffff021916908373ffffffffffffffffffffffffffffffffffffffff1602179055508173ffffffffffffffffffffffffffffffffffffffff168173ffffffffffffffffffffffffffffffffffffffff167f8be0079c531659141344cd1fd0a4f28419497f9722a3daafe3b4186f6b6457e060405160405180910390a35050565b60008082156120d057600f60008581526020019081526020016000205490506120e7565b600e60008581526020019081526020016000205490505b8091505092915050565b60008151905060006a636f6e736f6c652e6c6f679050602083016000808483855afa5050505050565b600081836121289190612c99565b905092915050565b6000818361213e9190612d22565b905092915050565b60405180608001604052806121596121a6565b8152602001600081526020016000151581526020016000151581525090565b6040518061028001604052806014905b6121906121d9565b8152602001906001900390816121885790505090565b60405180606001604052806121b96121d9565b81526020016121c66121d9565b81526020016121d36121d9565b81525090565b6040518060200160405280600081525090565b6000604051905090565b600080fd5b600080fd5b6000819050919050565b61221381612200565b811461221e57600080fd5b50565b6000813590506122308161220a565b92915050565b600080fd5b6000601f19601f8301169050919050565b7f4e487b7100000000000000000000000000000000000000000000000000000000600052604160045260246000fd5b6122848261223b565b810181811067ffffffffffffffff821117156122a3576122a261224c565b5b80604052505050565b60006122b66121ec565b90506122c2828261227b565b919050565b600067ffffffffffffffff8211156122e2576122e161224c565b5b602082029050602081019050919050565b600080fd5b600061230b612306846122c7565b6122ac565b9050808382526020820190506020840283018581111561232e5761232d6122f3565b5b835b8181101561235757806123438882612221565b845260208401935050602081019050612330565b5050509392505050565b600082601f83011261237657612375612236565b5b81356123868482602086016122f8565b91505092915050565b600080604083850312156123a6576123a56121f6565b5b60006123b485828601612221565b925050602083013567ffffffffffffffff8111156123d5576123d46121fb565b5b6123e185828601612361565b9150509250929050565b60008115159050919050565b612400816123eb565b811461240b57600080fd5b50565b60008135905061241d816123f7565b92915050565b600060208284031215612439576124386121f6565b5b60006124478482850161240e565b91505092915050565b600073ffffffffffffffffffffffffffffffffffffffff82169050919050565b600061247b82612450565b9050919050565b61248b81612470565b811461249657600080fd5b50565b6000813590506124a881612482565b92915050565b6000602082840312156124c4576124c36121f6565b5b60006124d284828501612499565b91505092915050565b6124e481612200565b82525050565b60208201600082015161250060008501826124db565b50505050565b60608201600082015161251c60008501826124ea565b50602082015161252f60208501826124ea565b50604082015161254260408501826124ea565b50505050565b612551816123eb565b82525050565b60c08201600082015161256d6000850182612506565b50602082015161258060608501826124db565b5060408201516125936080850182612548565b5060608201516125a660a0850182612548565b50505050565b600060c0820190506125c16000830184612557565b92915050565b600060149050919050565b600081905092915050565b6000819050919050565b60006125f383836124ea565b60208301905092915050565b6000602082019050919050565b612615816125c7565b61261f81846125d2565b925061262a826125dd565b8060005b8381101561265b57815161264287826125e7565b965061264d836125ff565b92505060018101905061262e565b505050505050565b600061028082019050612679600083018461260c565b92915050565b60008060408385031215612696576126956121f6565b5b60006126a48582860161240e565b92505060206126b585828601612221565b9150509250929050565b6126c881612200565b82525050565b60006020820190506126e360008301846126bf565b92915050565b6126f2816123eb565b82525050565b600060208201905061270d60008301846126e9565b92915050565b61271c81612470565b82525050565b60006020820190506127376000830184612713565b92915050565b600060e08201905061275260008301856126e9565b61275f6020830184612557565b9392505050565b600060408201905061277b6000830185612713565b6127886020830184612713565b9392505050565b600082825260208201905092915050565b7f47616d6520616c72656164792073746172746564000000000000000000000000600082015250565b60006127d660148361278f565b91506127e1826127a0565b602082019050919050565b60006020820190508181036000830152612805816127c9565b9050919050565b7f4e487b7100000000000000000000000000000000000000000000000000000000600052603260045260246000fd5b7f4f776e61626c653a2063616c6c6572206973206e6f7420746865206f776e6572600082015250565b600061287160208361278f565b915061287c8261283b565b602082019050919050565b600060208201905081810360008301526128a081612864565b9050919050565b600081905092915050565b7f5769746864726177696e672066756e6473000000000000000000000000000000600082015250565b60006128e86011836128a7565b91506128f3826128b2565b601182019050919050565b6000612909826128db565b9150819050919050565b7f5769746864726177206661696c65640000000000000000000000000000000000600082015250565b6000612949600f8361278f565b915061295482612913565b602082019050919050565b600060208201905081810360008301526129788161293c565b9050919050565b7f4d61782062657420616d6f756e74206578636565646564000000000000000000600082015250565b60006129b560178361278f565b91506129c08261297f565b602082019050919050565b600060208201905081810360008301526129e4816129a8565b9050919050565b7f466972737420636172642073686f756c6420626520647261776e20666f72207460008201527f68652067616d6500000000000000000000000000000000000000000000000000602082015250565b6000612a4760278361278f565b9150612a52826129eb565b604082019050919050565b60006020820190508181036000830152612a7681612a3a565b9050919050565b7f5365636f6e6420636172642068617320616c7265616479206265656e2064726160008201527f776e20666f72207468652067616d650000000000000000000000000000000000602082015250565b6000612ad9602f8361278f565b9150612ae482612a7d565b604082019050919050565b60006020820190508181036000830152612b0881612acc565b9050919050565b6000606082019050612b2460008301866126bf565b612b3160208301856126bf565b612b3e60408301846126e9565b949350505050565b7f466972737420616e64207365636f6e6420636172642073686f756c642062652060008201527f647261776e20666f72207468652067616d650000000000000000000000000000602082015250565b6000612ba260328361278f565b9150612bad82612b46565b604082019050919050565b60006020820190508181036000830152612bd181612b95565b9050919050565b7f546869726420636172642068617320616c7265616479206265656e206472617760008201527f6e20666f72207468652067616d65000000000000000000000000000000000000602082015250565b6000612c34602e8361278f565b9150612c3f82612bd8565b604082019050919050565b60006020820190508181036000830152612c6381612c27565b9050919050565b7f4e487b7100000000000000000000000000000000000000000000000000000000600052601160045260246000fd5b6000612ca482612200565b9150612caf83612200565b9250817fffffffffffffffffffffffffffffffffffffffffffffffffffffffffffffffff0483118215151615612ce857612ce7612c6a565b5b828202905092915050565b7f4e487b7100000000000000000000000000000000000000000000000000000000600052601260045260246000fd5b6000612d2d82612200565b9150612d3883612200565b925082612d4857612d47612cf3565b5b828204905092915050565b7f53656e64696e67207061796f7574000000000000000000000000000000000000600082015250565b6000612d89600e836128a7565b9150612d9482612d53565b600e82019050919050565b6000612daa82612d7c565b9150819050919050565b7f5061796f7574206661696c656400000000000000000000000000000000000000600082015250565b6000612dea600d8361278f565b9150612df582612db4565b602082019050919050565b60006020820190508181036000830152612e1981612ddd565b9050919050565b600060c082019050612e3560008301896126bf565b612e4260208301886126bf565b612e4f60408301876126bf565b612e5c60608301866126e9565b612e6960808301856126bf565b612e7660a08301846126bf565b979650505050505050565b7f496e76616c696420666972737420636172640000000000000000000000000000600082015250565b6000612eb760128361278f565b9150612ec282612e81565b602082019050919050565b60006020820190508181036000830152612ee681612eaa565b9050919050565b7f4f776e61626c653a206e6577206f776e657220697320746865207a65726f206160008201527f6464726573730000000000000000000000000000000000000000000000000000602082015250565b6000612f4960268361278f565b9150612f5482612eed565b604082019050919050565b60006020820190508181036000830152612f7881612f3c565b9050919050565b6000612f8a82612200565b9150612f9583612200565b925082612fa557612fa4612cf3565b5b828206905092915050565b6000612fbb82612200565b9150612fc683612200565b9250827fffffffffffffffffffffffffffffffffffffffffffffffffffffffffffffffff03821115612ffb57612ffa612c6a565b5b828201905092915050565b600061301182612200565b91507fffffffffffffffffffffffffffffffffffffffffffffffffffffffffffffffff82141561304457613043612c6a565b5b600182019050919050565b600081519050919050565b60005b8381101561307857808201518184015260208101905061305d565b83811115613087576000848401525b50505050565b60006130988261304f565b6130a2818561278f565b93506130b281856020860161305a565b6130bb8161223b565b840191505092915050565b600060208201905081810360008301526130e0818461308d565b905092915050565b6000819050919050565b6130fb816130e8565b82525050565b600067ffffffffffffffff82169050919050565b61311e81613101565b82525050565b600061ffff82169050919050565b61313b81613124565b82525050565b600063ffffffff82169050919050565b61315a81613141565b82525050565b600060a08201905061317560008301886130f2565b6131826020830187613115565b61318f6040830186613132565b61319c6060830185613151565b6131a96080830184613151565b9695505050505050565b6000815190506131c28161220a565b92915050565b6000602082840312156131de576131dd6121f6565b5b60006131ec848285016131b3565b91505092915050565b600081519050613204816123f7565b92915050565b6000602082840312156132205761321f6121f6565b5b600061322e848285016131f5565b91505092915050565b7f5465616d20636f6d6d697373696f6e207061796f7574206661696c65642e0000600082015250565b600061326d601e8361278f565b915061327882613237565b602082019050919050565b6000602082019050818103600083015261329c81613260565b9050919050565b7f537570706f727465727320636f6d6d697373696f6e207061796f75742066616960008201527f6c65642e00000000000000000000000000000000000000000000000000000000602082015250565b60006132ff60248361278f565b915061330a826132a3565b604082019050919050565b6000602082019050818103600083015261332e816132f2565b905091905056fea2646970667358221220a3c5beea539234e3763130d88bf07f130a15312256681e9530cd40e6aa2e706d64736f6c634300080a0033",
  "linkReferences": {},
  "deployedLinkReferences": {}
}