{
  "_format": "hh-sol-artifact-1",
  "contractName": "Hilow",
  "sourceName": "contracts/Hilow.sol",
  "abi": [
    {
      "inputs": [
        {
          "internalType": "uint64",
          "name": "subscriptionId",
          "type": "uint64"
        },
        {
          "internalType": "address payable",
          "name": "_teamPayoutContractAddress",
          "type": "address"
        },
        {
          "internalType": "address payable",
          "name": "_supportersPayoutContractAddress",
          "type": "address"
        },
        {
          "internalType": "address",
          "name": "_cardsHoldingContractAddress",
          "type": "address"
        },
        {
          "internalType": "uint32",
          "name": "maxWords",
          "type": "uint32"
        }
      ],
      "stateMutability": "payable",
      "type": "constructor"
    },
    {
      "inputs": [
        {
          "internalType": "address",
          "name": "have",
          "type": "address"
        },
        {
          "internalType": "address",
          "name": "want",
          "type": "address"
        }
      ],
      "name": "OnlyCoordinatorCanFulfill",
      "type": "error"
    },
    {
      "anonymous": false,
      "inputs": [
        {
          "indexed": true,
          "internalType": "address",
          "name": "player",
          "type": "address"
        },
        {
          "indexed": false,
          "internalType": "uint256",
          "name": "firstDrawCard",
          "type": "uint256"
        }
      ],
      "name": "CardDrawn",
      "type": "event"
    },
    {
      "anonymous": false,
      "inputs": [
        {
          "indexed": true,
          "internalType": "address",
          "name": "tipper",
          "type": "address"
        },
        {
          "indexed": false,
          "internalType": "uint256",
          "name": "amount",
          "type": "uint256"
        }
      ],
      "name": "DealerTipped",
      "type": "event"
    },
    {
      "anonymous": false,
      "inputs": [
        {
          "indexed": true,
          "internalType": "address",
          "name": "player",
          "type": "address"
        },
        {
          "indexed": false,
          "internalType": "uint256",
          "name": "firstDrawCard",
          "type": "uint256"
        },
        {
          "indexed": false,
          "internalType": "uint256",
          "name": "secondDrawCard",
          "type": "uint256"
        },
        {
          "indexed": false,
          "internalType": "bool",
          "name": "isWin",
          "type": "bool"
        }
      ],
      "name": "FirstBetMade",
      "type": "event"
    },
    {
      "anonymous": false,
      "inputs": [
        {
          "indexed": true,
          "internalType": "address",
          "name": "player",
          "type": "address"
        },
        {
          "indexed": false,
          "internalType": "uint256",
          "name": "firstDrawCard",
          "type": "uint256"
        },
        {
          "indexed": false,
          "internalType": "uint256",
          "name": "secondDrawCard",
          "type": "uint256"
        },
        {
          "indexed": false,
          "internalType": "uint256",
          "name": "thirdDrawCard",
          "type": "uint256"
        },
        {
          "indexed": false,
          "internalType": "bool",
          "name": "isWin",
          "type": "bool"
        },
        {
          "indexed": false,
          "internalType": "uint256",
          "name": "payoutMultiplier",
          "type": "uint256"
        },
        {
          "indexed": false,
          "internalType": "uint256",
          "name": "payoutAmount",
          "type": "uint256"
        }
      ],
      "name": "GameFinished",
      "type": "event"
    },
    {
      "anonymous": false,
      "inputs": [
        {
          "indexed": true,
          "internalType": "address",
          "name": "previousOwner",
          "type": "address"
        },
        {
          "indexed": true,
          "internalType": "address",
          "name": "newOwner",
          "type": "address"
        }
      ],
      "name": "OwnershipTransferred",
      "type": "event"
    },
    {
      "stateMutability": "payable",
      "type": "fallback"
    },
    {
      "inputs": [],
      "name": "AutomationAddress",
      "outputs": [
        {
          "internalType": "address",
          "name": "",
          "type": "address"
        }
      ],
      "stateMutability": "view",
      "type": "function"
    },
    {
      "inputs": [
        {
          "internalType": "address",
          "name": "_newOwner",
          "type": "address"
        }
      ],
      "name": "changeOwner",
      "outputs": [],
      "stateMutability": "nonpayable",
      "type": "function"
    },
    {
      "inputs": [],
      "name": "drawCard",
      "outputs": [],
      "stateMutability": "nonpayable",
      "type": "function"
    },
    {
      "inputs": [],
      "name": "getActiveGame",
      "outputs": [
        {
          "internalType": "bool",
          "name": "",
          "type": "bool"
        },
        {
          "components": [
            {
              "components": [
                {
                  "components": [
                    {
                      "internalType": "uint256",
                      "name": "value",
                      "type": "uint256"
                    }
                  ],
                  "internalType": "struct Hilow.Card",
                  "name": "firstDraw",
                  "type": "tuple"
                },
                {
                  "components": [
                    {
                      "internalType": "uint256",
                      "name": "value",
                      "type": "uint256"
                    }
                  ],
                  "internalType": "struct Hilow.Card",
                  "name": "secondDraw",
                  "type": "tuple"
                },
                {
                  "components": [
                    {
                      "internalType": "uint256",
                      "name": "value",
                      "type": "uint256"
                    }
                  ],
                  "internalType": "struct Hilow.Card",
                  "name": "thirdDraw",
                  "type": "tuple"
                }
              ],
              "internalType": "struct Hilow.GameCards",
              "name": "cards",
              "type": "tuple"
            },
            {
              "internalType": "uint256",
              "name": "betAmount",
              "type": "uint256"
            },
            {
              "internalType": "bool",
              "name": "firstPrediction",
              "type": "bool"
            },
            {
              "internalType": "bool",
              "name": "secondPrediction",
              "type": "bool"
            }
          ],
          "internalType": "struct Hilow.Game",
          "name": "",
          "type": "tuple"
        }
      ],
      "stateMutability": "view",
      "type": "function"
    },
    {
      "inputs": [],
      "name": "initialCardLoad",
      "outputs": [],
      "stateMutability": "nonpayable",
      "type": "function"
    },
    {
      "inputs": [],
      "name": "isGameAlreadyStarted",
      "outputs": [
        {
          "internalType": "bool",
          "name": "",
          "type": "bool"
        }
      ],
      "stateMutability": "view",
      "type": "function"
    },
    {
      "inputs": [
        {
          "internalType": "bool",
          "name": "higher",
          "type": "bool"
        }
      ],
      "name": "makeFirstBet",
      "outputs": [],
      "stateMutability": "payable",
      "type": "function"
    },
    {
      "inputs": [
        {
          "internalType": "bool",
          "name": "higher",
          "type": "bool"
        }
      ],
      "name": "makeSecondBet",
      "outputs": [],
      "stateMutability": "nonpayable",
      "type": "function"
    },
    {
      "inputs": [],
      "name": "owner",
      "outputs": [
        {
          "internalType": "address",
          "name": "",
          "type": "address"
        }
      ],
      "stateMutability": "view",
      "type": "function"
    },
    {
      "inputs": [
        {
          "internalType": "uint256",
          "name": "requestId",
          "type": "uint256"
        },
        {
          "internalType": "uint256[]",
          "name": "randomWords",
          "type": "uint256[]"
        }
      ],
      "name": "rawFulfillRandomWords",
      "outputs": [],
      "stateMutability": "nonpayable",
      "type": "function"
    },
    {
      "inputs": [],
      "name": "renounceOwnership",
      "outputs": [],
      "stateMutability": "nonpayable",
      "type": "function"
    },
    {
      "inputs": [],
      "name": "sendFunds",
      "outputs": [
        {
          "internalType": "bool",
          "name": "",
          "type": "bool"
        }
      ],
      "stateMutability": "payable",
      "type": "function"
    },
    {
      "inputs": [
        {
          "internalType": "address",
          "name": "_automation",
          "type": "address"
        }
      ],
      "name": "setAtomationAddress",
      "outputs": [],
      "stateMutability": "nonpayable",
      "type": "function"
    },
    {
      "inputs": [
        {
          "internalType": "address",
          "name": "_cardholding",
          "type": "address"
        }
      ],
      "name": "setCardsHoldingAddress",
      "outputs": [],
      "stateMutability": "nonpayable",
      "type": "function"
    },
    {
      "inputs": [],
      "name": "tip",
      "outputs": [],
      "stateMutability": "payable",
      "type": "function"
    },
    {
      "inputs": [
        {
          "internalType": "address",
          "name": "newOwner",
          "type": "address"
        }
      ],
      "name": "transferOwnership",
      "outputs": [],
      "stateMutability": "nonpayable",
      "type": "function"
    },
    {
      "inputs": [
        {
          "internalType": "address",
          "name": "addr",
          "type": "address"
        }
      ],
      "name": "viewGame",
      "outputs": [
        {
          "components": [
            {
              "components": [
                {
                  "components": [
                    {
                      "internalType": "uint256",
                      "name": "value",
                      "type": "uint256"
                    }
                  ],
                  "internalType": "struct Hilow.Card",
                  "name": "firstDraw",
                  "type": "tuple"
                },
                {
                  "components": [
                    {
                      "internalType": "uint256",
                      "name": "value",
                      "type": "uint256"
                    }
                  ],
                  "internalType": "struct Hilow.Card",
                  "name": "secondDraw",
                  "type": "tuple"
                },
                {
                  "components": [
                    {
                      "internalType": "uint256",
                      "name": "value",
                      "type": "uint256"
                    }
                  ],
                  "internalType": "struct Hilow.Card",
                  "name": "thirdDraw",
                  "type": "tuple"
                }
              ],
              "internalType": "struct Hilow.GameCards",
              "name": "cards",
              "type": "tuple"
            },
            {
              "internalType": "uint256",
              "name": "betAmount",
              "type": "uint256"
            },
            {
              "internalType": "bool",
              "name": "firstPrediction",
              "type": "bool"
            },
            {
              "internalType": "bool",
              "name": "secondPrediction",
              "type": "bool"
            }
          ],
          "internalType": "struct Hilow.Game",
          "name": "",
          "type": "tuple"
        }
      ],
      "stateMutability": "view",
      "type": "function"
    },
    {
      "inputs": [
        {
          "internalType": "bool",
          "name": "higher",
          "type": "bool"
        },
        {
          "internalType": "uint256",
          "name": "firstCard",
          "type": "uint256"
        }
      ],
      "name": "viewPayoffForBet",
      "outputs": [
        {
          "internalType": "uint256",
          "name": "",
          "type": "uint256"
        }
      ],
      "stateMutability": "view",
      "type": "function"
    },
    {
      "inputs": [],
      "name": "withdraw",
      "outputs": [],
      "stateMutability": "nonpayable",
      "type": "function"
    },
    {
      "inputs": [],
      "name": "withdrawAll",
      "outputs": [],
      "stateMutability": "nonpayable",
      "type": "function"
    },
    {
      "stateMutability": "payable",
      "type": "receive"
    }
  ],
  "bytecode": "0x674563918244f40000600455600060a0819052600881905561012081815260c05261014081815260e052610160818152610100526009819055600a819055600b819055610260818152610200908152610280828152610220526102c060408190526102a083815261024052610180919091526101a08290526101c08290526101e0829052600c829055600d829055600e829055600f919091556010805461ffff19169055620023bd38819003908190833981016040819052620000c291620005b8565b7f7a1bac17ccc5b313516c5e16fb24f7659aa5ebed000000000000000000000000608052600080546001600160a01b031916331790556200010a620001043390565b620001b2565b60038054600580546001600160a01b03199081166001600160a01b038981169190911790925560068054821688841617905560078054909116918616919091179055737a1bac17ccc5b313516c5e16fb24f7659aa5ebed6001600160e01b0319909116600160a01b6001600160401b0389160217176001600160e01b03908116600160e01b63ffffffff85160217909155620001a7906200020416565b505050505062000664565b600180546001600160a01b038381166001600160a01b0319831681179093556040519116919082907f8be0079c531659141344cd1fd0a4f28419497f9722a3daafe3b4186f6b6457e090600090a35050565b60c87f17bc176d2408558f6e4111feebc3cab4e16b63e967be91cde721f4c8a488b55281905560c07f08037d7b151cc412d25674a4e66b334d9ae9d2e5517a7feaae5cdb828bf1c62881905560b87f9bfbaa59f8e10e7868f8b402de9d605a390c45ddaebd8c9de3c6f31e733c87ff81905560b07f251164fe1d8864fe5e86082eae9c288bc2b58695a4d28538dfe86e9e4f17558581905560a97fc550213cee30afd5e67ccba7be3d381bbc169034ae08eb3ec9168caca9fe55e781905560a17ffb9ce45064c7e7d9bf9deb4750ba7c94ab3d6e7418c5d76bf69966d39a9d42f681905560997f98ae0176de2844d118e1a6decfe92f97691bedbc578c71fc8d5c4374be77e50c81905560927f5fae251ae169e8e40026ce4ce85a026bc3adcccdc8459be361195e4cd924077f819055608a7ff53d7d0eac8d4a28c5e36c803b226f3ef35ce8ff0302108a97c0d862a51c6fa381905560827f28819bbfa35988de500160af3ee4d060ea4da2d0fc4b680f9032b1bba4c6604b819055607b7f3bdb0491b8b8ace383492a38767d086d71197664abd044eb755bb1efb02ae78081905560737fa0a6eb636d5852c675102f73aac3a9fac8e391317bf5bff4efc2293ccb761e8881905560647f582fca367f6c471655fd3d41d20c5fcde67613e662890aa9266c0beff997f69b81905560126020527f71a67924699a20698523213e55fe499d539379d7769cd5567e2c45d583f815a3557f8e1fee8c88a9e04123b21e90cae2727a7715bf522a1e46eb5934ccd05203a6b2557f0f36ad39aee03e7108cc48f54934702a5f0d4066f10344cebf8198978d86976a557fb4fcd034df3d20faa1c133b66d862ce92732727d40916b48ffb4020cb00fe053557f45429b9195d4ec5c0cf6c69e9c21a4ca0ea773b702c2de5735f85d2631f26746557f1223f9031f9dca49a7844c397098ce9a4e80513444d0a8bb59820dff564808e4557f724fd36bd271795fe7866d4cc83b61084ef704502b00c2e0b28047123b3c1acc557f855d8d6df66418fea944661cfca175a2245b01f09908f1f662c4fa2b3cbf9299557fb9bfc87ab6d50430c17fad3d76aa4e9fce5cb9f8a8035e5ad64505fa1e31bdb9557f4d862627e71449ad0902e42fb445c6fefb557d066705175da90fdc325bd76e4e557f2495f4cb142bcb5be5e6e3ea9aaf4f6b4f9ecc9f26c2c53a2c4a12cbcae156ee557f102203beef086490b6ace526d3f440341863884040816888f0c1d8918d4daa7a55600d6000527f08002daeba8533611007c300fe5b0f2097c5e194f0f4087c9468255bee0bf7d955565b600080600080600060a08688031215620005d157600080fd5b85516001600160401b0381168114620005e957600080fd5b6020870151909550620005fc816200064b565b60408701519094506200060f816200064b565b606087015190935062000622816200064b565b608087015190925063ffffffff811681146200063d57600080fd5b809150509295509295909350565b6001600160a01b03811681146200066157600080fd5b50565b60805160601c611d336200068a6000396000818161034401526103860152611d336000f3fe6080604052600436106100f05760003560e01c80631fe543e3146100f95780632755cd2d146101195780632f5be23e146101215780633b28a990146101365780633ccfd60b14610156578063403c2ae41461016b5780634808a91f1461018b578063715018a61461019e578063717c0aba146101b3578063853828b6146101e95780638a42533a146101fe5780638d0819ea1461021e5780638d68cf591461024c5780638da5cb5b1461025f578063957b5fb41461028c578063a6f9dae1146102af578063d1565c4e146102cf578063db5051ce146102e4578063f2fde38b146102f9578063f790c00d1461031957005b366100f757005b005b34801561010557600080fd5b506100f7610114366004611ae5565b610339565b6100f76103c6565b34801561012d57600080fd5b506100f76103fd565b34801561014257600080fd5b506100f7610151366004611a3d565b6105d3565b34801561016257600080fd5b506100f7610623565b34801561017757600080fd5b506100f7610186366004611a3d565b6106f6565b6100f7610199366004611a66565b610746565b3480156101aa57600080fd5b506100f7610af3565b3480156101bf57600080fd5b506101d36101ce366004611a3d565b610b07565b6040516101e09190611c7c565b60405180910390f35b3480156101f557600080fd5b506100f7610ba6565b34801561020a57600080fd5b506100f7610219366004611a66565b610c8b565b34801561022a57600080fd5b5061023e610239366004611aa0565b6110f7565b6040519081526020016101e0565b60015b60405190151581526020016101e0565b34801561026b57600080fd5b5061027461117e565b6040516001600160a01b0390911681526020016101e0565b34801561029857600080fd5b506102a161118d565b6040516101e0929190611c3d565b3480156102bb57600080fd5b506100f76102ca366004611a3d565b6112a2565b3480156102db57600080fd5b5061024f611330565b3480156102f057600080fd5b506100f76113a6565b34801561030557600080fd5b506100f7610314366004611a3d565b61149b565b34801561032557600080fd5b50600254610274906001600160a01b031681565b336001600160a01b037f000000000000000000000000000000000000000000000000000000000000000016146103b85760405163073e64fd60e21b81523360048201526001600160a01b037f00000000000000000000000000000000000000000000000000000000000000001660248201526044015b60405180910390fd5b6103c28282611511565b5050565b60405134815233907faeb748af67bf9eda4819fec479a0e3d66df3965f95a8e10a56e00ff0c3506e2d9060200160405180910390a2565b610405611330565b156104495760405162461bcd60e51b815260206004820152601460248201527311d85b5948185b1c9958591e481cdd185c9d195960621b60448201526064016103af565b600080600760009054906101000a90046001600160a01b03166001600160a01b031663f0e576df6040518163ffffffff1660e01b8152600401602060405180830381600087803b15801561049c57600080fd5b505af11580156104b0573d6000803e3d6000fd5b505050506040513d601f19601f820116820180604052508101906104d49190611acc565b6040805160208082018352838252825160608082018552838252845180840186526008548082528385019190915285518085018752908152828601528451608081018652828152600081850181815282880182815293830182815233808452601388529289902084518051518255978801515160018201559689015151600288015590516003870155925160049095018054935115156101000261ff00199615159690961661ffff19909416939093179490941790915583519451959750929490937fe03d22eed58609dac2f9724dfcad843c62fd0ba8050bf0eef99b6d1be0458c18916105c491815260200190565b60405180910390a25050505050565b6105db611577565b6001600160a01b0381166106015760405162461bcd60e51b81526004016103af90611c53565b600280546001600160a01b0319166001600160a01b0392909216919091179055565b61062b611577565b47600061063661117e565b9050600080826001600160a01b03168460405161066a90705769746864726177696e672066756e647360781b815260110190565b60006040518083038185875af1925050503d80600081146106a7576040519150601f19603f3d011682016040523d82523d6000602084013e6106ac565b606091505b5091509150816106f05760405162461bcd60e51b815260206004820152600f60248201526e15da5d1a191c985dc819985a5b1959608a1b60448201526064016103af565b50505050565b6106fe611577565b6001600160a01b0381166107245760405162461bcd60e51b81526004016103af90611c53565b600780546001600160a01b0319166001600160a01b0392909216919091179055565b6004543411156107925760405162461bcd60e51b815260206004820152601760248201527613585e0818995d08185b5bdd5b9d08195e18d959591959604a1b60448201526064016103af565b3360009081526013602090815260409182902082516101008082018552825460e0830190815260808301908152855180860187526001850154815260a0840152855180860187526002850154815260c084015280835260038401549483019490945260049092015460ff80821615159583019590955291909104909216151560608301528051516108755760405162461bcd60e51b815260206004820152602760248201527f466972737420636172642073686f756c6420626520647261776e20666f72207460448201526668652067616d6560c81b60648201526084016103af565b602081015151156108e05760405162461bcd60e51b815260206004820152602f60248201527f5365636f6e6420636172642068617320616c7265616479206265656e2064726160448201526e776e20666f72207468652067616d6560881b60648201526084016103af565b6108e86115d6565b600080600760009054906101000a90046001600160a01b03166001600160a01b031663e5f8cb076040518163ffffffff1660e01b8152600401602060405180830381600087803b15801561093b57600080fd5b505af115801561094f573d6000803e3d6000fd5b505050506040513d601f19601f820116820180604052508101906109739190611acc565b6040805160208082018352838252868101828152348983019081528a15158a860190815285516080810187528a81529151828501908152905115158287019081526000606084018181523382526013875288822094518051518655968701515160018601559590970151516002840155905160038301555160049091018054935115156101000261ff00199215159290921661ffff1990941693909317179091558651519051519395509092610a2a9190896117c1565b905080610a9f57336000908152601360205260409020600c548155600d546001820155600e546002820155600f546003820155601080546004909201805460ff938416151560ff19821681178355925461010090819004909416151590930261ff001990921661ffff19909316929092171790555b8451516020808701515160408051938452918301528215159082015233907fb66235059c0335f01d635c9cfc8371b4b1837bf9dab50714f196bf46bbd7cc6c9060600160405180910390a250505050505050565b610afb611577565b610b056000611853565b565b610b0f6119ca565b610b17611577565b506001600160a01b031660009081526013602090815260409182902082516101008082018552825460e0830190815260808301908152855180860187526001850154815260a0840152855180860187526002850154815260c0840152825260038301549382019390935260049091015460ff808216151594830194909452919091049091161515606082015290565b6000546001600160a01b03163314610bfe5760405162461bcd60e51b815260206004820152601b60248201527a6f6e6c794f776e65722063616e2063616c6c20776974686472617760281b60448201526064016103af565b604051600090339047908381818185875af1925050503d8060008114610c40576040519150601f19603f3d011682016040523d82523d6000602084013e610c45565b606091505b5050905080610c885760405162461bcd60e51b815260206004820152600f60248201526e151c985b9cd9995c8819985a5b1959608a1b60448201526064016103af565b50565b3360009081526013602090815260409182902082516101008082018552825460e0830190815260808301908152855180860187526001850154815260a0840152855180860187526002850154815260c084015280835260038401549483019490945260049092015460ff808216151595830195909552919091049092161515606083015280515115801590610d24575060208101515115155b610d8b5760405162461bcd60e51b815260206004820152603260248201527f466972737420616e64207365636f6e6420636172642073686f756c6420626520604482015271647261776e20666f72207468652067616d6560701b60648201526084016103af565b60408101515115610df55760405162461bcd60e51b815260206004820152602e60248201527f546869726420636172642068617320616c7265616479206265656e206472617760448201526d6e20666f72207468652067616d6560901b60648201526084016103af565b600080600760009054906101000a90046001600160a01b03166001600160a01b031663e5f8cb076040518163ffffffff1660e01b8152600401602060405180830381600087803b158015610e4857600080fd5b505af1158015610e5c573d6000803e3d6000fd5b505050506040513d601f19601f82011682018060405250810190610e809190611acc565b60408051602080820183528382528683018290528815156060808a0191825284516080810186528981528a8401518185019081528b870180511515838901908152945115159383019384523360009081526013875288812093518051518555808801515160018601559098015151600284015590516003830155925160049091018054925115156101000261ff00199215159290921661ffff1990931692909217179055875151918801515190519496509193610f3d92906117c1565b90506000610f6086602001516000015187604001516000015189606001516117c1565b9050600080838015610f6f5750825b156110865787515160408a0151600091610f88916118a5565b90506000610fa28a60200151600001518c606001516118a5565b905061271081838d60200151610fb89190611cac565b610fc29190611cac565b610fcc9190611c8a565b9250600080336001600160a01b031685604051610ffd906d14d95b991a5b99c81c185e5bdd5d60921b8152600e0190565b60006040518083038185875af1925050503d806000811461103a576040519150601f19603f3d011682016040523d82523d6000602084013e61103f565b606091505b5091509150816110815760405162461bcd60e51b815260206004820152600d60248201526c14185e5bdd5d0819985a5b1959609a1b60448201526064016103af565b505050505b8751516020808a0151516040808c01515181519485529284019190915282015283151560608201526080810183905260a0810182905233907f501dbbd935d7938b1f5933e6e50b8f1125be6964d4306738af3312758e8f25de9060c00160405180910390a250505050505050505050565b60006001821015801561110b5750600d8211155b61114c5760405162461bcd60e51b8152602060048201526012602482015271125b9d985b1a5908199a5c9cdd0818d85c9960721b60448201526064016103af565b82156111675750600081815260126020526040902054611178565b506000818152601160205260409020545b92915050565b6001546001600160a01b031690565b60006111976119ca565b61119f611330565b156112315750503360009081526013602090815260409182902082516101008082018552825460e083019081526080830190815285518086018752600185810154825260a0850191909152865180870188526002860154815260c085015290835260038401549483019490945260049092015460ff808216151595830195909552919091049092161515606083015291565b5050604080516101008082018352600c5460e0830190815260808301908152835160208181018652600d54825260a085019190915284518082018652600e54815260c0850152908352600f549083015260105460ff8082161515948401949094520490911615156060820152600091565b6000546001600160a01b0316331461130e5760405162461bcd60e51b815260206004820152602960248201527f4f6e6c79206f776e65722063616e206368616e6765207468652065787369737460448201526834b3b71037bbb732b960b91b60648201526084016103af565b600080546001600160a01b0319166001600160a01b0392909216919091179055565b3360009081526013602090815260408083208151608081018352815460608201908152815282518085018452600183015481528185015282519384018352600290910154835290810191909152805151158015906113915750604081015151155b1561139e57600191505090565b600091505090565b6002546001600160a01b03166114225760405162461bcd60e51b815260206004820152603b60248201527f4175746f6d6174696f6e41646472657373206e756c6c2c20706c65617365206160448201527a736b2061646d696e20746f2073657420746865206164647265737360281b60648201526084016103af565b6002546001600160a01b031633146114935760405162461bcd60e51b815260206004820152602e60248201527f204f6e6c7920617574686f726973656420616464726573732063616e2063616c60448201526d36103a343290333ab731ba34b7b760911b60648201526084016103af565b610c886118d8565b6114a3611577565b6001600160a01b0381166115085760405162461bcd60e51b815260206004820152602660248201527f4f776e61626c653a206e6577206f776e657220697320746865207a65726f206160448201526564647265737360d01b60648201526084016103af565b610c8881611853565b600754604051635c6a49b360e11b81526001600160a01b039091169063b8d4936690611541908490600401611bf9565b600060405180830381600087803b15801561155b57600080fd5b505af115801561156f573d6000803e3d6000fd5b505050505050565b3361158061117e565b6001600160a01b031614610b055760405162461bcd60e51b815260206004820181905260248201527f4f776e61626c653a2063616c6c6572206973206e6f7420746865206f776e657260448201526064016103af565b60006115ed6115e63460016119b2565b60646119be565b905060006115ff6115e63460046119b2565b90506000600560009054906101000a90046001600160a01b03166001600160a01b0316638d68cf59846040518263ffffffff1660e01b81526004016020604051808303818588803b15801561165357600080fd5b505af1158015611667573d6000803e3d6000fd5b50505050506040513d601f19601f8201168201806040525081019061168c9190611a83565b9050806116db5760405162461bcd60e51b815260206004820152601e60248201527f5465616d20636f6d6d697373696f6e207061796f7574206661696c65642e000060448201526064016103af565b6000600660009054906101000a90046001600160a01b03166001600160a01b0316638d68cf59846040518263ffffffff1660e01b81526004016020604051808303818588803b15801561172d57600080fd5b505af1158015611741573d6000803e3d6000fd5b50505050506040513d601f19601f820116820180604052508101906117669190611a83565b9050806106f05760405162461bcd60e51b8152602060048201526024808201527f537570706f727465727320636f6d6d697373696f6e207061796f7574206661696044820152633632b21760e11b60648201526084016103af565b600080821561180c5784600114156117e457848411156117df575060015b611849565b84600d14156117fd57848414156117df57506001611849565b8484106117df57506001611849565b846001141561182557848414156117df57506001611849565b84600d141561183e57848410156117df57506001611849565b848411611849575060015b90505b9392505050565b600180546001600160a01b038381166001600160a01b0319831681179093556040519116919082907f8be0079c531659141344cd1fd0a4f28419497f9722a3daafe3b4186f6b6457e090600090a35050565b60008082156118c3575060008381526012602052604090205461184c565b50505060009081526011602052604090205490565b6003546040516305d3b1d360e41b81527f4b09e658ed251bcafeebbc69400383d49f344ace09b9576fe248bb02c003fe9f6004820152600160a01b82046001600160401b03166024820152600d6044820152620f42406064820152600160e01b820463ffffffff1660848201526000916001600160a01b031690635d3b1d309060a401602060405180830381600087803b15801561197557600080fd5b505af1158015611989573d6000803e3d6000fd5b505050506040513d601f19601f820116820180604052508101906119ad9190611acc565b905090565b600061184c8284611cac565b600061184c8284611c8a565b60405180608001604052806119dd6119f8565b81526000602082018190526040820181905260609091015290565b6040518060600160405280611a0b611a2a565b8152602001611a18611a2a565b8152602001611a25611a2a565b905290565b6040518060200160405280600081525090565b600060208284031215611a4f57600080fd5b81356001600160a01b038116811461184c57600080fd5b600060208284031215611a7857600080fd5b813561184c81611cef565b600060208284031215611a9557600080fd5b815161184c81611cef565b60008060408385031215611ab357600080fd5b8235611abe81611cef565b946020939093013593505050565b600060208284031215611ade57600080fd5b5051919050565b60008060408385031215611af857600080fd5b823591506020808401356001600160401b0380821115611b1757600080fd5b818601915086601f830112611b2b57600080fd5b813581811115611b3d57611b3d611cd9565b8060051b604051601f19603f83011681018181108582111715611b6257611b62611cd9565b604052828152858101935084860182860187018b1015611b8157600080fd5b600095505b83861015611ba4578035855260019590950194938601938601611b86565b508096505050505050509250929050565b805180515183526020810151516020840152604081015151604084015250602081015160608301526040810151151560808301526060810151151560a08301525050565b6020808252825182820181905260009190848201906040850190845b81811015611c3157835183529284019291840191600101611c15565b50909695505050505050565b821515815260e0810161184c6020830184611bb5565b6020808252600f908201526e496e76616c6964206164647265737360881b604082015260600190565b60c081016111788284611bb5565b600082611ca757634e487b7160e01b600052601260045260246000fd5b500490565b6000816000190483118215151615611cd457634e487b7160e01b600052601160045260246000fd5b500290565b634e487b7160e01b600052604160045260246000fd5b8015158114610c8857600080fdfea26469706673582212205199b3b049c040c25ecc3bcb0bc558592e7cf365ae7fc0e481e69bbf1f4f3c2664736f6c63430008070033",
  "linkReferences": {},
  "deployedLinkReferences": {}
}