{
  "_format": "hh-sol-artifact-1",
  "contractName": "Hilow",
  "sourceName": "contracts/Hilow.sol",
  "abi": [
    {
      "inputs": [
        {
          "internalType": "uint64",
          "name": "subscriptionId",
          "type": "uint64"
        },
        {
          "internalType": "address payable",
          "name": "_teamPayoutContractAddress",
          "type": "address"
        },
        {
          "internalType": "address payable",
          "name": "_supportersPayoutContractAddress",
          "type": "address"
        }
      ],
      "stateMutability": "payable",
      "type": "constructor"
    },
    {
      "inputs": [
        {
          "internalType": "address",
          "name": "have",
          "type": "address"
        },
        {
          "internalType": "address",
          "name": "want",
          "type": "address"
        }
      ],
      "name": "OnlyCoordinatorCanFulfill",
      "type": "error"
    },
    {
      "anonymous": false,
      "inputs": [
        {
          "indexed": true,
          "internalType": "address",
          "name": "player",
          "type": "address"
        },
        {
          "indexed": false,
          "internalType": "uint256",
          "name": "firstDrawCard",
          "type": "uint256"
        }
      ],
      "name": "CardDrawn",
      "type": "event"
    },
    {
      "anonymous": false,
      "inputs": [
        {
          "indexed": true,
          "internalType": "address",
          "name": "tipper",
          "type": "address"
        },
        {
          "indexed": false,
          "internalType": "uint256",
          "name": "amount",
          "type": "uint256"
        }
      ],
      "name": "DealerTipped",
      "type": "event"
    },
    {
      "anonymous": false,
      "inputs": [
        {
          "indexed": true,
          "internalType": "address",
          "name": "player",
          "type": "address"
        },
        {
          "indexed": false,
          "internalType": "uint256",
          "name": "firstDrawCard",
          "type": "uint256"
        },
        {
          "indexed": false,
          "internalType": "uint256",
          "name": "secondDrawCard",
          "type": "uint256"
        },
        {
          "indexed": false,
          "internalType": "bool",
          "name": "isWin",
          "type": "bool"
        }
      ],
      "name": "FirstBetMade",
      "type": "event"
    },
    {
      "anonymous": false,
      "inputs": [
        {
          "indexed": true,
          "internalType": "address",
          "name": "player",
          "type": "address"
        },
        {
          "indexed": false,
          "internalType": "uint256",
          "name": "firstDrawCard",
          "type": "uint256"
        },
        {
          "indexed": false,
          "internalType": "uint256",
          "name": "secondDrawCard",
          "type": "uint256"
        },
        {
          "indexed": false,
          "internalType": "uint256",
          "name": "thirdDrawCard",
          "type": "uint256"
        },
        {
          "indexed": false,
          "internalType": "bool",
          "name": "isWin",
          "type": "bool"
        },
        {
          "indexed": false,
          "internalType": "uint256",
          "name": "payoutMultiplier",
          "type": "uint256"
        },
        {
          "indexed": false,
          "internalType": "uint256",
          "name": "payoutAmount",
          "type": "uint256"
        }
      ],
      "name": "GameFinished",
      "type": "event"
    },
    {
      "anonymous": false,
      "inputs": [
        {
          "indexed": true,
          "internalType": "address",
          "name": "previousOwner",
          "type": "address"
        },
        {
          "indexed": true,
          "internalType": "address",
          "name": "newOwner",
          "type": "address"
        }
      ],
      "name": "OwnershipTransferred",
      "type": "event"
    },
    {
      "inputs": [],
      "name": "drawCard",
      "outputs": [],
      "stateMutability": "nonpayable",
      "type": "function"
    },
    {
      "inputs": [],
      "name": "getActiveGame",
      "outputs": [
        {
          "internalType": "bool",
          "name": "",
          "type": "bool"
        },
        {
          "components": [
            {
              "components": [
                {
                  "components": [
                    {
                      "internalType": "uint256",
                      "name": "value",
                      "type": "uint256"
                    }
                  ],
                  "internalType": "struct Hilow.Card",
                  "name": "firstDraw",
                  "type": "tuple"
                },
                {
                  "components": [
                    {
                      "internalType": "uint256",
                      "name": "value",
                      "type": "uint256"
                    }
                  ],
                  "internalType": "struct Hilow.Card",
                  "name": "secondDraw",
                  "type": "tuple"
                },
                {
                  "components": [
                    {
                      "internalType": "uint256",
                      "name": "value",
                      "type": "uint256"
                    }
                  ],
                  "internalType": "struct Hilow.Card",
                  "name": "thirdDraw",
                  "type": "tuple"
                }
              ],
              "internalType": "struct Hilow.GameCards",
              "name": "cards",
              "type": "tuple"
            },
            {
              "internalType": "uint256",
              "name": "betAmount",
              "type": "uint256"
            },
            {
              "internalType": "bool",
              "name": "firstPrediction",
              "type": "bool"
            },
            {
              "internalType": "bool",
              "name": "secondPrediction",
              "type": "bool"
            }
          ],
          "internalType": "struct Hilow.Game",
          "name": "",
          "type": "tuple"
        }
      ],
      "stateMutability": "view",
      "type": "function"
    },
    {
      "inputs": [],
      "name": "initialCardLoad",
      "outputs": [],
      "stateMutability": "nonpayable",
      "type": "function"
    },
    {
      "inputs": [],
      "name": "isGameAlreadyStarted",
      "outputs": [
        {
          "internalType": "bool",
          "name": "",
          "type": "bool"
        }
      ],
      "stateMutability": "view",
      "type": "function"
    },
    {
      "inputs": [
        {
          "internalType": "bool",
          "name": "higher",
          "type": "bool"
        }
      ],
      "name": "makeFirstBet",
      "outputs": [],
      "stateMutability": "payable",
      "type": "function"
    },
    {
      "inputs": [
        {
          "internalType": "bool",
          "name": "higher",
          "type": "bool"
        }
      ],
      "name": "makeSecondBet",
      "outputs": [],
      "stateMutability": "nonpayable",
      "type": "function"
    },
    {
      "inputs": [],
      "name": "owner",
      "outputs": [
        {
          "internalType": "address",
          "name": "",
          "type": "address"
        }
      ],
      "stateMutability": "view",
      "type": "function"
    },
    {
      "inputs": [
        {
          "internalType": "uint256",
          "name": "requestId",
          "type": "uint256"
        },
        {
          "internalType": "uint256[]",
          "name": "randomWords",
          "type": "uint256[]"
        }
      ],
      "name": "rawFulfillRandomWords",
      "outputs": [],
      "stateMutability": "nonpayable",
      "type": "function"
    },
    {
      "inputs": [],
      "name": "renounceOwnership",
      "outputs": [],
      "stateMutability": "nonpayable",
      "type": "function"
    },
    {
      "inputs": [],
      "name": "sendFunds",
      "outputs": [
        {
          "internalType": "bool",
          "name": "",
          "type": "bool"
        }
      ],
      "stateMutability": "payable",
      "type": "function"
    },
    {
      "inputs": [],
      "name": "tip",
      "outputs": [],
      "stateMutability": "payable",
      "type": "function"
    },
    {
      "inputs": [
        {
          "internalType": "address",
          "name": "newOwner",
          "type": "address"
        }
      ],
      "name": "transferOwnership",
      "outputs": [],
      "stateMutability": "nonpayable",
      "type": "function"
    },
    {
      "inputs": [],
      "name": "viewCards",
      "outputs": [
        {
          "components": [
            {
              "internalType": "uint256",
              "name": "value",
              "type": "uint256"
            }
          ],
          "internalType": "struct Hilow.Card[20]",
          "name": "",
          "type": "tuple[20]"
        }
      ],
      "stateMutability": "view",
      "type": "function"
    },
    {
      "inputs": [],
      "name": "viewCurrentCardCounter",
      "outputs": [
        {
          "internalType": "uint256",
          "name": "",
          "type": "uint256"
        }
      ],
      "stateMutability": "view",
      "type": "function"
    },
    {
      "inputs": [
        {
          "internalType": "address",
          "name": "addr",
          "type": "address"
        }
      ],
      "name": "viewGame",
      "outputs": [
        {
          "components": [
            {
              "components": [
                {
                  "components": [
                    {
                      "internalType": "uint256",
                      "name": "value",
                      "type": "uint256"
                    }
                  ],
                  "internalType": "struct Hilow.Card",
                  "name": "firstDraw",
                  "type": "tuple"
                },
                {
                  "components": [
                    {
                      "internalType": "uint256",
                      "name": "value",
                      "type": "uint256"
                    }
                  ],
                  "internalType": "struct Hilow.Card",
                  "name": "secondDraw",
                  "type": "tuple"
                },
                {
                  "components": [
                    {
                      "internalType": "uint256",
                      "name": "value",
                      "type": "uint256"
                    }
                  ],
                  "internalType": "struct Hilow.Card",
                  "name": "thirdDraw",
                  "type": "tuple"
                }
              ],
              "internalType": "struct Hilow.GameCards",
              "name": "cards",
              "type": "tuple"
            },
            {
              "internalType": "uint256",
              "name": "betAmount",
              "type": "uint256"
            },
            {
              "internalType": "bool",
              "name": "firstPrediction",
              "type": "bool"
            },
            {
              "internalType": "bool",
              "name": "secondPrediction",
              "type": "bool"
            }
          ],
          "internalType": "struct Hilow.Game",
          "name": "",
          "type": "tuple"
        }
      ],
      "stateMutability": "view",
      "type": "function"
    },
    {
      "inputs": [
        {
          "internalType": "bool",
          "name": "higher",
          "type": "bool"
        },
        {
          "internalType": "uint256",
          "name": "firstCard",
          "type": "uint256"
        }
      ],
      "name": "viewPayoffForBet",
      "outputs": [
        {
          "internalType": "uint256",
          "name": "",
          "type": "uint256"
        }
      ],
      "stateMutability": "view",
      "type": "function"
    },
    {
      "inputs": [],
      "name": "withdraw",
      "outputs": [],
      "stateMutability": "nonpayable",
      "type": "function"
    },
    {
      "stateMutability": "payable",
      "type": "receive"
    }
  ],
  "bytecode": "0x60a060405266b1a2bc2ec500006002556040518060200160405280600081525060056000820151816000015550506040518060600160405280600560405180602001604052908160008201548152505081526020016005604051806020016040529081600082015481525050815260200160056040518060200160405290816000820154815250508152506006600082015181600001600082015181600001555050602082015181600101600082015181600001555050604082015181600201600082015181600001555050505060405180608001604052806006604051806060016040529081600082016040518060200160405290816000820154815250508152602001600182016040518060200160405290816000820154815250508152602001600282016040518060200160405290816000820154815250508152505081526020016000815260200160001515815260200160001515815250600960008201518160000160008201518160000160008201518160000155505060208201518160010160008201518160000155505060408201518160020160008201518160000155505050506020820151816003015560408201518160040160006101000a81548160ff02191690831515021790555060608201518160040160016101000a81548160ff021916908315150217905550505060405162003b9738038062003b978339818101604052810190620002189190620007aa565b737a1bac17ccc5b313516c5e16fb24f7659aa5ebed8073ffffffffffffffffffffffffffffffffffffffff1660808173ffffffffffffffffffffffffffffffffffffffff16815250505062000282620002766200062f60201b60201c565b6200063760201b60201c565b737a1bac17ccc5b313516c5e16fb24f7659aa5ebed600160006101000a81548173ffffffffffffffffffffffffffffffffffffffff021916908373ffffffffffffffffffffffffffffffffffffffff16021790555082600160146101000a81548167ffffffffffffffff021916908367ffffffffffffffff16021790555081600360006101000a81548173ffffffffffffffffffffffffffffffffffffffff021916908373ffffffffffffffffffffffffffffffffffffffff16021790555080600460006101000a81548173ffffffffffffffffffffffffffffffffffffffff021916908373ffffffffffffffffffffffffffffffffffffffff16021790555060c8600e6000600181526020019081526020016000208190555060c0600e6000600281526020019081526020016000208190555060b8600e6000600381526020019081526020016000208190555060b0600e6000600481526020019081526020016000208190555060a9600e6000600581526020019081526020016000208190555060a1600e600060068152602001908152602001600020819055506099600e600060078152602001908152602001600020819055506092600e60006008815260200190815260200160002081905550608a600e600060098152602001908152602001600020819055506082600e6000600a815260200190815260200160002081905550607b600e6000600b8152602001908152602001600020819055506073600e6000600c8152602001908152602001600020819055506064600e6000600d8152602001908152602001600020819055506064600f600060018152602001908152602001600020819055506073600f60006002815260200190815260200160002081905550607b600f600060038152602001908152602001600020819055506082600f60006004815260200190815260200160002081905550608a600f600060058152602001908152602001600020819055506092600f600060068152602001908152602001600020819055506099600f6000600781526020019081526020016000208190555060a1600f6000600881526020019081526020016000208190555060a9600f6000600981526020019081526020016000208190555060b0600f6000600a81526020019081526020016000208190555060b8600f6000600b81526020019081526020016000208190555060c0600f6000600c81526020019081526020016000208190555060c8600f6000600d81526020019081526020016000208190555050505062000806565b600033905090565b60008060009054906101000a900473ffffffffffffffffffffffffffffffffffffffff169050816000806101000a81548173ffffffffffffffffffffffffffffffffffffffff021916908373ffffffffffffffffffffffffffffffffffffffff1602179055508173ffffffffffffffffffffffffffffffffffffffff168173ffffffffffffffffffffffffffffffffffffffff167f8be0079c531659141344cd1fd0a4f28419497f9722a3daafe3b4186f6b6457e060405160405180910390a35050565b600080fd5b600067ffffffffffffffff82169050919050565b6200071f8162000700565b81146200072b57600080fd5b50565b6000815190506200073f8162000714565b92915050565b600073ffffffffffffffffffffffffffffffffffffffff82169050919050565b6000620007728262000745565b9050919050565b620007848162000765565b81146200079057600080fd5b50565b600081519050620007a48162000779565b92915050565b600080600060608486031215620007c657620007c5620006fb565b5b6000620007d6868287016200072e565b9350506020620007e98682870162000793565b9250506040620007fc8682870162000793565b9150509250925092565b60805161336e620008296000396000818161037d01526103d1015261336e6000f3fe6080604052600436106101025760003560e01c80638a42533a11610095578063957b5fb411610064578063957b5fb4146102b9578063d1565c4e146102e5578063db5051ce14610310578063f2fde38b14610327578063fb2803cb1461035057610109565b80638a42533a1461020a5780638d0819ea146102335780638d68cf59146102705780638da5cb5b1461028e57610109565b80634808a91f116100d15780634808a91f1461016f578063715018a61461018b578063717c0aba146101a257806385e6ed2e146101df57610109565b80631fe543e31461010e5780632755cd2d146101375780632f5be23e146101415780633ccfd60b1461015857610109565b3661010957005b600080fd5b34801561011a57600080fd5b5061013560048036038101906101309190612392565b61037b565b005b61013f61043b565b005b34801561014d57600080fd5b506101566104c9565b005b34801561016457600080fd5b5061016d610742565b005b61018960048036038101906101849190612426565b610883565b005b34801561019757600080fd5b506101a0610d78565b005b3480156101ae57600080fd5b506101c960048036038101906101c491906124b1565b610e00565b6040516101d691906125af565b60405180910390f35b3480156101eb57600080fd5b506101f4610f83565b6040516102019190612666565b60405180910390f35b34801561021657600080fd5b50610231600480360381019061022c9190612426565b611058565b005b34801561023f57600080fd5b5061025a60048036038101906102559190612682565b611574565b60405161026791906126d1565b60405180910390f35b610278611605565b60405161028591906126fb565b60405180910390f35b34801561029a57600080fd5b506102a361160e565b6040516102b09190612725565b60405180910390f35b3480156102c557600080fd5b506102ce611637565b6040516102dc929190612740565b60405180910390f35b3480156102f157600080fd5b506102fa61181d565b60405161030791906126fb565b60405180910390f35b34801561031c57600080fd5b50610325611901565b005b34801561033357600080fd5b5061034e600480360381019061034991906124b1565b611988565b005b34801561035c57600080fd5b50610365611a80565b60405161037291906126d1565b60405180910390f35b7f000000000000000000000000000000000000000000000000000000000000000073ffffffffffffffffffffffffffffffffffffffff163373ffffffffffffffffffffffffffffffffffffffff161461042d57337f00000000000000000000000000000000000000000000000000000000000000006040517f1cf993f4000000000000000000000000000000000000000000000000000000008152600401610424929190612769565b60405180910390fd5b6104378282611b0d565b5050565b6104796040518060400160405280600d81526020017f4465616c65722074697070656400000000000000000000000000000000000000815250611ba4565b3373ffffffffffffffffffffffffffffffffffffffff167faeb748af67bf9eda4819fec479a0e3d66df3965f95a8e10a56e00ff0c3506e2d346040516104bf91906126d1565b60405180910390a2565b601063ffffffff166104db6024611c3d565b11156104eb576104e9611c4b565b505b601463ffffffff166104fd6024611c3d565b111561050e5761050d6024611d36565b5b61051661181d565b15610556576040517f08c379a000000000000000000000000000000000000000000000000000000000815260040161054d906127ef565b60405180910390fd5b60006105626024611c3d565b905061056e6024611d43565b6000601082601481106105845761058361280f565b5b016040518060200160405290816000820154815250509050600060405180606001604052808381526020016005604051806020016040529081600082015481525050815260200160056040518060200160405290816000820154815250508152509050600060405180608001604052808381526020016000815260200160001515815260200160001515815250905080602560003373ffffffffffffffffffffffffffffffffffffffff1673ffffffffffffffffffffffffffffffffffffffff16815260200190815260200160002060008201518160000160008201518160000160008201518160000155505060208201518160010160008201518160000155505060408201518160020160008201518160000155505050506020820151816003015560408201518160040160006101000a81548160ff02191690831515021790555060608201518160040160016101000a81548160ff0219169083151502179055509050503373ffffffffffffffffffffffffffffffffffffffff167fe03d22eed58609dac2f9724dfcad843c62fd0ba8050bf0eef99b6d1be0458c18846000015160405161073491906126d1565b60405180910390a250505050565b61074a611d59565b73ffffffffffffffffffffffffffffffffffffffff1661076861160e565b73ffffffffffffffffffffffffffffffffffffffff16146107be576040517f08c379a00000000000000000000000000000000000000000000000000000000081526004016107b59061288a565b60405180910390fd5b600047905060006107cd61160e565b90506000808273ffffffffffffffffffffffffffffffffffffffff16846040516107f690612901565b60006040518083038185875af1925050503d8060008114610833576040519150601f19603f3d011682016040523d82523d6000602084013e610838565b606091505b50915091508161087d576040517f08c379a000000000000000000000000000000000000000000000000000000000815260040161087490612962565b60405180910390fd5b50505050565b6002543411156108c8576040517f08c379a00000000000000000000000000000000000000000000000000000000081526004016108bf906129ce565b60405180910390fd5b6000602560003373ffffffffffffffffffffffffffffffffffffffff1673ffffffffffffffffffffffffffffffffffffffff1681526020019081526020016000206040518060800160405290816000820160405180606001604052908160008201604051806020016040529081600082015481525050815260200160018201604051806020016040529081600082015481525050815260200160028201604051806020016040529081600082015481525050815250508152602001600382015481526020016004820160009054906101000a900460ff161515151581526020016004820160019054906101000a900460ff1615151515815250509050600081600001519050600081600001516000015111610a18576040517f08c379a0000000000000000000000000000000000000000000000000000000008152600401610a0f90612a60565b60405180910390fd5b600081602001516000015114610a63576040517f08c379a0000000000000000000000000000000000000000000000000000000008152600401610a5a90612af2565b60405180910390fd5b610a6b611d61565b601463ffffffff16610a7d6024611c3d565b1115610a8e57610a8d6024611d36565b5b6000610a9a6024611c3d565b9050610aa66024611d43565b600060108260148110610abc57610abb61280f565b5b016040518060200160405290816000820154815250509050808360200181905250348460200181815250508484604001901515908115158152505060405180608001604052808481526020018560200151815260200185604001511515815260200160001515815250602560003373ffffffffffffffffffffffffffffffffffffffff1673ffffffffffffffffffffffffffffffffffffffff16815260200190815260200160002060008201518160000160008201518160000160008201518160000155505060208201518160010160008201518160000155505060408201518160020160008201518160000155505050506020820151816003015560408201518160040160006101000a81548160ff02191690831515021790555060608201518160040160016101000a81548160ff0219169083151502179055509050506000610c1884600001516000015185602001516000015188611f49565b905080610d0e576009602560003373ffffffffffffffffffffffffffffffffffffffff1673ffffffffffffffffffffffffffffffffffffffff16815260200190815260200160002060008201816000016000820181600001600082015481600001555050600182018160010160008201548160000155505060028201816002016000820154816000015550505050600382015481600301556004820160009054906101000a900460ff168160040160006101000a81548160ff0219169083151502179055506004820160019054906101000a900460ff168160040160016101000a81548160ff0219169083151502179055509050505b3373ffffffffffffffffffffffffffffffffffffffff167fb66235059c0335f01d635c9cfc8371b4b1837bf9dab50714f196bf46bbd7cc6c85600001516000015186602001516000015184604051610d6893929190612b12565b60405180910390a2505050505050565b610d80611d59565b73ffffffffffffffffffffffffffffffffffffffff16610d9e61160e565b73ffffffffffffffffffffffffffffffffffffffff1614610df4576040517f08c379a0000000000000000000000000000000000000000000000000000000008152600401610deb9061288a565b60405180910390fd5b610dfe6000611feb565b565b610e08612149565b610e10611d59565b73ffffffffffffffffffffffffffffffffffffffff16610e2e61160e565b73ffffffffffffffffffffffffffffffffffffffff1614610e84576040517f08c379a0000000000000000000000000000000000000000000000000000000008152600401610e7b9061288a565b60405180910390fd5b602560008373ffffffffffffffffffffffffffffffffffffffff1673ffffffffffffffffffffffffffffffffffffffff1681526020019081526020016000206040518060800160405290816000820160405180606001604052908160008201604051806020016040529081600082015481525050815260200160018201604051806020016040529081600082015481525050815260200160028201604051806020016040529081600082015481525050815250508152602001600382015481526020016004820160009054906101000a900460ff161515151581526020016004820160019054906101000a900460ff1615151515815250509050919050565b610f8b61217b565b610f93611d59565b73ffffffffffffffffffffffffffffffffffffffff16610fb161160e565b73ffffffffffffffffffffffffffffffffffffffff1614611007576040517f08c379a0000000000000000000000000000000000000000000000000000000008152600401610ffe9061288a565b60405180910390fd5b6010601480602002604051908101604052809291906000905b8282101561104f5783820160405180602001604052908160008201548152505081526020019060010190611020565b50505050905090565b6000602560003373ffffffffffffffffffffffffffffffffffffffff1673ffffffffffffffffffffffffffffffffffffffff1681526020019081526020016000206040518060800160405290816000820160405180606001604052908160008201604051806020016040529081600082015481525050815260200160018201604051806020016040529081600082015481525050815260200160028201604051806020016040529081600082015481525050815250508152602001600382015481526020016004820160009054906101000a900460ff161515151581526020016004820160019054906101000a900460ff1615151515815250509050600081600001519050600081600001516000015111801561117d57506000816020015160000151115b6111bc576040517f08c379a00000000000000000000000000000000000000000000000000000000081526004016111b390612bbb565b60405180910390fd5b600081604001516000015114611207576040517f08c379a00000000000000000000000000000000000000000000000000000000081526004016111fe90612c4d565b60405180910390fd5b601463ffffffff166112196024611c3d565b111561122a576112296024611d36565b5b60006112366024611c3d565b90506112426024611d43565b6000601082601481106112585761125761280f565b5b0160405180602001604052908160008201548152505090508083604001819052508484606001901515908115158152505060405180608001604052808481526020018560200151815260200185604001511515815260200185606001511515815250602560003373ffffffffffffffffffffffffffffffffffffffff1673ffffffffffffffffffffffffffffffffffffffff16815260200190815260200160002060008201518160000160008201518160000160008201518160000155505060208201518160010160008201518160000155505060408201518160020160008201518160000155505050506020820151816003015560408201518160040160006101000a81548160ff02191690831515021790555060608201518160040160016101000a81548160ff02191690831515021790555090505060006113b18460000151600001518560200151600001518760400151611f49565b905060006113d48560200151600001518660400151600001518860600151611f49565b90506000808380156113e35750825b156114f95760006114008860000151600001518a604001516120af565b9050600061141a8960200151600001518b606001516120af565b905061271081838c602001516114309190612c9c565b61143a9190612c9c565b6114449190612d25565b92506000803373ffffffffffffffffffffffffffffffffffffffff168560405161146d90612da2565b60006040518083038185875af1925050503d80600081146114aa576040519150601f19603f3d011682016040523d82523d6000602084013e6114af565b606091505b5091509150816114f4576040517f08c379a00000000000000000000000000000000000000000000000000000000081526004016114eb90612e03565b60405180910390fd5b505050505b3373ffffffffffffffffffffffffffffffffffffffff167f501dbbd935d7938b1f5933e6e50b8f1125be6964d4306738af3312758e8f25de8860000151600001518960200151600001518a604001516000015187878760405161156196959493929190612e23565b60405180910390a2505050505050505050565b6000600182101580156115885750600d8211155b6115c7576040517f08c379a00000000000000000000000000000000000000000000000000000000081526004016115be90612ed0565b60405180910390fd5b82156115e857600f60008381526020019081526020016000205490506115ff565b600e60008381526020019081526020016000205490505b92915050565b60006001905090565b60008060009054906101000a900473ffffffffffffffffffffffffffffffffffffffff16905090565b6000611641612149565b61164961181d565b15611754576001602560003373ffffffffffffffffffffffffffffffffffffffff1673ffffffffffffffffffffffffffffffffffffffff168152602001908152602001600020806040518060800160405290816000820160405180606001604052908160008201604051806020016040529081600082015481525050815260200160018201604051806020016040529081600082015481525050815260200160028201604051806020016040529081600082015481525050815250508152602001600382015481526020016004820160009054906101000a900460ff161515151581526020016004820160019054906101000a900460ff161515151581525050905091509150611819565b60006009806040518060800160405290816000820160405180606001604052908160008201604051806020016040529081600082015481525050815260200160018201604051806020016040529081600082015481525050815260200160028201604051806020016040529081600082015481525050815250508152602001600382015481526020016004820160009054906101000a900460ff161515151581526020016004820160019054906101000a900460ff1615151515815250509050915091505b9091565b600080602560003373ffffffffffffffffffffffffffffffffffffffff1673ffffffffffffffffffffffffffffffffffffffff1681526020019081526020016000206000016040518060600160405290816000820160405180602001604052908160008201548152505081526020016001820160405180602001604052908160008201548152505081526020016002820160405180602001604052908160008201548152505081525050905060008160000151600001511180156118e957506000816040015160000151145b156118f85760019150506118fe565b60009150505b90565b611909611d59565b73ffffffffffffffffffffffffffffffffffffffff1661192761160e565b73ffffffffffffffffffffffffffffffffffffffff161461197d576040517f08c379a00000000000000000000000000000000000000000000000000000000081526004016119749061288a565b60405180910390fd5b611985611c4b565b50565b611990611d59565b73ffffffffffffffffffffffffffffffffffffffff166119ae61160e565b73ffffffffffffffffffffffffffffffffffffffff1614611a04576040517f08c379a00000000000000000000000000000000000000000000000000000000081526004016119fb9061288a565b60405180910390fd5b600073ffffffffffffffffffffffffffffffffffffffff168173ffffffffffffffffffffffffffffffffffffffff161415611a74576040517f08c379a0000000000000000000000000000000000000000000000000000000008152600401611a6b90612f62565b60405180910390fd5b611a7d81611feb565b50565b6000611a8a611d59565b73ffffffffffffffffffffffffffffffffffffffff16611aa861160e565b73ffffffffffffffffffffffffffffffffffffffff1614611afe576040517f08c379a0000000000000000000000000000000000000000000000000000000008152600401611af59061288a565b60405180910390fd5b611b086024611c3d565b905090565b60005b601463ffffffff16811015611b955760405180602001604052806001600d858581518110611b4157611b4061280f565b5b6020026020010151611b539190612f82565b611b5d9190612fb3565b81525060108260148110611b7457611b7361280f565b5b01600082015181600001559050508080611b8d90613009565b915050611b10565b50611ba06024611d36565b5050565b611c3a81604051602401611bb891906130c9565b6040516020818303038152906040527f41304fac000000000000000000000000000000000000000000000000000000007bffffffffffffffffffffffffffffffffffffffffffffffffffffffff19166020820180517bffffffffffffffffffffffffffffffffffffffffffffffffffffffff83818316178352505050506120f4565b50565b600081600001549050919050565b6000600160009054906101000a900473ffffffffffffffffffffffffffffffffffffffff1673ffffffffffffffffffffffffffffffffffffffff16635d3b1d307f4b09e658ed251bcafeebbc69400383d49f344ace09b9576fe248bb02c003fe9f60001b600160149054906101000a900467ffffffffffffffff166003620f424060146040518663ffffffff1660e01b8152600401611cee959493929190613163565b6020604051808303816000875af1158015611d0d573d6000803e3d6000fd5b505050506040513d601f19601f82011682018060405250810190611d3191906131cb565b905090565b6000816000018190555050565b6001816000016000828254019250508190555050565b600033905090565b6000611d78611d7134600161211d565b6064612133565b90506000611d91611d8a34600461211d565b6064612133565b90506000600360009054906101000a900473ffffffffffffffffffffffffffffffffffffffff1673ffffffffffffffffffffffffffffffffffffffff16638d68cf59846040518263ffffffff1660e01b815260040160206040518083038185885af1158015611e04573d6000803e3d6000fd5b50505050506040513d601f19601f82011682018060405250810190611e29919061320d565b905080611e6b576040517f08c379a0000000000000000000000000000000000000000000000000000000008152600401611e6290613286565b60405180910390fd5b6000600460009054906101000a900473ffffffffffffffffffffffffffffffffffffffff1673ffffffffffffffffffffffffffffffffffffffff16638d68cf59846040518263ffffffff1660e01b815260040160206040518083038185885af1158015611edc573d6000803e3d6000fd5b50505050506040513d601f19601f82011682018060405250810190611f01919061320d565b905080611f43576040517f08c379a0000000000000000000000000000000000000000000000000000000008152600401611f3a90613318565b60405180910390fd5b50505050565b6000808215611f9b576001851415611f6d5784841115611f6857600190505b611f96565b600d851415611f885784841415611f8357600190505b611f95565b848410611f9457600190505b5b5b611fe0565b6001851415611fb65784841415611fb157600190505b611fdf565b600d851415611fd15784841015611fcc57600190505b611fde565b848411611fdd57600190505b5b5b5b809150509392505050565b60008060009054906101000a900473ffffffffffffffffffffffffffffffffffffffff169050816000806101000a81548173ffffffffffffffffffffffffffffffffffffffff021916908373ffffffffffffffffffffffffffffffffffffffff1602179055508173ffffffffffffffffffffffffffffffffffffffff168173ffffffffffffffffffffffffffffffffffffffff167f8be0079c531659141344cd1fd0a4f28419497f9722a3daafe3b4186f6b6457e060405160405180910390a35050565b60008082156120d357600f60008581526020019081526020016000205490506120ea565b600e60008581526020019081526020016000205490505b8091505092915050565b60008151905060006a636f6e736f6c652e6c6f679050602083016000808483855afa5050505050565b6000818361212b9190612c9c565b905092915050565b600081836121419190612d25565b905092915050565b604051806080016040528061215c6121a9565b8152602001600081526020016000151581526020016000151581525090565b6040518061028001604052806014905b6121936121dc565b81526020019060019003908161218b5790505090565b60405180606001604052806121bc6121dc565b81526020016121c96121dc565b81526020016121d66121dc565b81525090565b6040518060200160405280600081525090565b6000604051905090565b600080fd5b600080fd5b6000819050919050565b61221681612203565b811461222157600080fd5b50565b6000813590506122338161220d565b92915050565b600080fd5b6000601f19601f8301169050919050565b7f4e487b7100000000000000000000000000000000000000000000000000000000600052604160045260246000fd5b6122878261223e565b810181811067ffffffffffffffff821117156122a6576122a561224f565b5b80604052505050565b60006122b96121ef565b90506122c5828261227e565b919050565b600067ffffffffffffffff8211156122e5576122e461224f565b5b602082029050602081019050919050565b600080fd5b600061230e612309846122ca565b6122af565b90508083825260208201905060208402830185811115612331576123306122f6565b5b835b8181101561235a57806123468882612224565b845260208401935050602081019050612333565b5050509392505050565b600082601f83011261237957612378612239565b5b81356123898482602086016122fb565b91505092915050565b600080604083850312156123a9576123a86121f9565b5b60006123b785828601612224565b925050602083013567ffffffffffffffff8111156123d8576123d76121fe565b5b6123e485828601612364565b9150509250929050565b60008115159050919050565b612403816123ee565b811461240e57600080fd5b50565b600081359050612420816123fa565b92915050565b60006020828403121561243c5761243b6121f9565b5b600061244a84828501612411565b91505092915050565b600073ffffffffffffffffffffffffffffffffffffffff82169050919050565b600061247e82612453565b9050919050565b61248e81612473565b811461249957600080fd5b50565b6000813590506124ab81612485565b92915050565b6000602082840312156124c7576124c66121f9565b5b60006124d58482850161249c565b91505092915050565b6124e781612203565b82525050565b60208201600082015161250360008501826124de565b50505050565b60608201600082015161251f60008501826124ed565b50602082015161253260208501826124ed565b50604082015161254560408501826124ed565b50505050565b612554816123ee565b82525050565b60c0820160008201516125706000850182612509565b50602082015161258360608501826124de565b506040820151612596608085018261254b565b5060608201516125a960a085018261254b565b50505050565b600060c0820190506125c4600083018461255a565b92915050565b600060149050919050565b600081905092915050565b6000819050919050565b60006125f683836124ed565b60208301905092915050565b6000602082019050919050565b612618816125ca565b61262281846125d5565b925061262d826125e0565b8060005b8381101561265e57815161264587826125ea565b965061265083612602565b925050600181019050612631565b505050505050565b60006102808201905061267c600083018461260f565b92915050565b60008060408385031215612699576126986121f9565b5b60006126a785828601612411565b92505060206126b885828601612224565b9150509250929050565b6126cb81612203565b82525050565b60006020820190506126e660008301846126c2565b92915050565b6126f5816123ee565b82525050565b600060208201905061271060008301846126ec565b92915050565b61271f81612473565b82525050565b600060208201905061273a6000830184612716565b92915050565b600060e08201905061275560008301856126ec565b612762602083018461255a565b9392505050565b600060408201905061277e6000830185612716565b61278b6020830184612716565b9392505050565b600082825260208201905092915050565b7f47616d6520616c72656164792073746172746564000000000000000000000000600082015250565b60006127d9601483612792565b91506127e4826127a3565b602082019050919050565b60006020820190508181036000830152612808816127cc565b9050919050565b7f4e487b7100000000000000000000000000000000000000000000000000000000600052603260045260246000fd5b7f4f776e61626c653a2063616c6c6572206973206e6f7420746865206f776e6572600082015250565b6000612874602083612792565b915061287f8261283e565b602082019050919050565b600060208201905081810360008301526128a381612867565b9050919050565b600081905092915050565b7f5769746864726177696e672066756e6473000000000000000000000000000000600082015250565b60006128eb6011836128aa565b91506128f6826128b5565b601182019050919050565b600061290c826128de565b9150819050919050565b7f5769746864726177206661696c65640000000000000000000000000000000000600082015250565b600061294c600f83612792565b915061295782612916565b602082019050919050565b6000602082019050818103600083015261297b8161293f565b9050919050565b7f4d61782062657420616d6f756e74206578636565646564000000000000000000600082015250565b60006129b8601783612792565b91506129c382612982565b602082019050919050565b600060208201905081810360008301526129e7816129ab565b9050919050565b7f466972737420636172642073686f756c6420626520647261776e20666f72207460008201527f68652067616d6500000000000000000000000000000000000000000000000000602082015250565b6000612a4a602783612792565b9150612a55826129ee565b604082019050919050565b60006020820190508181036000830152612a7981612a3d565b9050919050565b7f5365636f6e6420636172642068617320616c7265616479206265656e2064726160008201527f776e20666f72207468652067616d650000000000000000000000000000000000602082015250565b6000612adc602f83612792565b9150612ae782612a80565b604082019050919050565b60006020820190508181036000830152612b0b81612acf565b9050919050565b6000606082019050612b2760008301866126c2565b612b3460208301856126c2565b612b4160408301846126ec565b949350505050565b7f466972737420616e64207365636f6e6420636172642073686f756c642062652060008201527f647261776e20666f72207468652067616d650000000000000000000000000000602082015250565b6000612ba5603283612792565b9150612bb082612b49565b604082019050919050565b60006020820190508181036000830152612bd481612b98565b9050919050565b7f546869726420636172642068617320616c7265616479206265656e206472617760008201527f6e20666f72207468652067616d65000000000000000000000000000000000000602082015250565b6000612c37602e83612792565b9150612c4282612bdb565b604082019050919050565b60006020820190508181036000830152612c6681612c2a565b9050919050565b7f4e487b7100000000000000000000000000000000000000000000000000000000600052601160045260246000fd5b6000612ca782612203565b9150612cb283612203565b9250817fffffffffffffffffffffffffffffffffffffffffffffffffffffffffffffffff0483118215151615612ceb57612cea612c6d565b5b828202905092915050565b7f4e487b7100000000000000000000000000000000000000000000000000000000600052601260045260246000fd5b6000612d3082612203565b9150612d3b83612203565b925082612d4b57612d4a612cf6565b5b828204905092915050565b7f53656e64696e67207061796f7574000000000000000000000000000000000000600082015250565b6000612d8c600e836128aa565b9150612d9782612d56565b600e82019050919050565b6000612dad82612d7f565b9150819050919050565b7f5061796f7574206661696c656400000000000000000000000000000000000000600082015250565b6000612ded600d83612792565b9150612df882612db7565b602082019050919050565b60006020820190508181036000830152612e1c81612de0565b9050919050565b600060c082019050612e3860008301896126c2565b612e4560208301886126c2565b612e5260408301876126c2565b612e5f60608301866126ec565b612e6c60808301856126c2565b612e7960a08301846126c2565b979650505050505050565b7f496e76616c696420666972737420636172640000000000000000000000000000600082015250565b6000612eba601283612792565b9150612ec582612e84565b602082019050919050565b60006020820190508181036000830152612ee981612ead565b9050919050565b7f4f776e61626c653a206e6577206f776e657220697320746865207a65726f206160008201527f6464726573730000000000000000000000000000000000000000000000000000602082015250565b6000612f4c602683612792565b9150612f5782612ef0565b604082019050919050565b60006020820190508181036000830152612f7b81612f3f565b9050919050565b6000612f8d82612203565b9150612f9883612203565b925082612fa857612fa7612cf6565b5b828206905092915050565b6000612fbe82612203565b9150612fc983612203565b9250827fffffffffffffffffffffffffffffffffffffffffffffffffffffffffffffffff03821115612ffe57612ffd612c6d565b5b828201905092915050565b600061301482612203565b91507fffffffffffffffffffffffffffffffffffffffffffffffffffffffffffffffff82141561304757613046612c6d565b5b600182019050919050565b600081519050919050565b60005b8381101561307b578082015181840152602081019050613060565b8381111561308a576000848401525b50505050565b600061309b82613052565b6130a58185612792565b93506130b581856020860161305d565b6130be8161223e565b840191505092915050565b600060208201905081810360008301526130e38184613090565b905092915050565b6000819050919050565b6130fe816130eb565b82525050565b600067ffffffffffffffff82169050919050565b61312181613104565b82525050565b600061ffff82169050919050565b61313e81613127565b82525050565b600063ffffffff82169050919050565b61315d81613144565b82525050565b600060a08201905061317860008301886130f5565b6131856020830187613118565b6131926040830186613135565b61319f6060830185613154565b6131ac6080830184613154565b9695505050505050565b6000815190506131c58161220d565b92915050565b6000602082840312156131e1576131e06121f9565b5b60006131ef848285016131b6565b91505092915050565b600081519050613207816123fa565b92915050565b600060208284031215613223576132226121f9565b5b6000613231848285016131f8565b91505092915050565b7f5465616d20636f6d6d697373696f6e207061796f7574206661696c65642e0000600082015250565b6000613270601e83612792565b915061327b8261323a565b602082019050919050565b6000602082019050818103600083015261329f81613263565b9050919050565b7f537570706f727465727320636f6d6d697373696f6e207061796f75742066616960008201527f6c65642e00000000000000000000000000000000000000000000000000000000602082015250565b6000613302602483612792565b915061330d826132a6565b604082019050919050565b60006020820190508181036000830152613331816132f5565b905091905056fea2646970667358221220be9afeabc44d2818ef7fd256fb26694e7bc8a5e39f6094ea86da2a6bf0dea5ff64736f6c634300080a0033",
  "linkReferences": {},
  "deployedLinkReferences": {}
}