{
    "_format": "hh-sol-artifact-1",
    "contractName": "HilowSupporterNFT",
    "sourceName": "contracts/HilowNFT.sol",
    "abi": [
        {
            "inputs": [],
            "stateMutability": "nonpayable",
            "type": "constructor"
        },
        {
            "anonymous": false,
            "inputs": [
                {
                    "indexed": true,
                    "internalType": "address",
                    "name": "owner",
                    "type": "address"
                },
                {
                    "indexed": true,
                    "internalType": "address",
                    "name": "approved",
                    "type": "address"
                },
                {
                    "indexed": true,
                    "internalType": "uint256",
                    "name": "tokenId",
                    "type": "uint256"
                }
            ],
            "name": "Approval",
            "type": "event"
        },
        {
            "anonymous": false,
            "inputs": [
                {
                    "indexed": true,
                    "internalType": "address",
                    "name": "owner",
                    "type": "address"
                },
                {
                    "indexed": true,
                    "internalType": "address",
                    "name": "operator",
                    "type": "address"
                },
                {
                    "indexed": false,
                    "internalType": "bool",
                    "name": "approved",
                    "type": "bool"
                }
            ],
            "name": "ApprovalForAll",
            "type": "event"
        },
        {
            "anonymous": false,
            "inputs": [
                {
                    "indexed": false,
                    "internalType": "address",
                    "name": "owner",
                    "type": "address"
                },
                {
                    "indexed": false,
                    "internalType": "uint256",
                    "name": "tokenId",
                    "type": "uint256"
                }
            ],
            "name": "NFTMinted",
            "type": "event"
        },
        {
            "anonymous": false,
            "inputs": [
                {
                    "indexed": true,
                    "internalType": "address",
                    "name": "previousOwner",
                    "type": "address"
                },
                {
                    "indexed": true,
                    "internalType": "address",
                    "name": "newOwner",
                    "type": "address"
                }
            ],
            "name": "OwnershipTransferred",
            "type": "event"
        },
        {
            "anonymous": false,
            "inputs": [
                {
                    "indexed": true,
                    "internalType": "bytes32",
                    "name": "role",
                    "type": "bytes32"
                },
                {
                    "indexed": true,
                    "internalType": "bytes32",
                    "name": "previousAdminRole",
                    "type": "bytes32"
                },
                {
                    "indexed": true,
                    "internalType": "bytes32",
                    "name": "newAdminRole",
                    "type": "bytes32"
                }
            ],
            "name": "RoleAdminChanged",
            "type": "event"
        },
        {
            "anonymous": false,
            "inputs": [
                {
                    "indexed": true,
                    "internalType": "bytes32",
                    "name": "role",
                    "type": "bytes32"
                },
                {
                    "indexed": true,
                    "internalType": "address",
                    "name": "account",
                    "type": "address"
                },
                {
                    "indexed": true,
                    "internalType": "address",
                    "name": "sender",
                    "type": "address"
                }
            ],
            "name": "RoleGranted",
            "type": "event"
        },
        {
            "anonymous": false,
            "inputs": [
                {
                    "indexed": true,
                    "internalType": "bytes32",
                    "name": "role",
                    "type": "bytes32"
                },
                {
                    "indexed": true,
                    "internalType": "address",
                    "name": "account",
                    "type": "address"
                },
                {
                    "indexed": true,
                    "internalType": "address",
                    "name": "sender",
                    "type": "address"
                }
            ],
            "name": "RoleRevoked",
            "type": "event"
        },
        {
            "anonymous": false,
            "inputs": [
                {
                    "indexed": true,
                    "internalType": "address",
                    "name": "from",
                    "type": "address"
                },
                {
                    "indexed": true,
                    "internalType": "address",
                    "name": "to",
                    "type": "address"
                },
                {
                    "indexed": true,
                    "internalType": "uint256",
                    "name": "tokenId",
                    "type": "uint256"
                }
            ],
            "name": "Transfer",
            "type": "event"
        },
        {
            "inputs": [],
            "name": "DEFAULT_ADMIN_ROLE",
            "outputs": [
                {
                    "internalType": "bytes32",
                    "name": "",
                    "type": "bytes32"
                }
            ],
            "stateMutability": "view",
            "type": "function"
        },
        {
            "inputs": [],
            "name": "FUND_GAME_ROLE",
            "outputs": [
                {
                    "internalType": "bytes32",
                    "name": "",
                    "type": "bytes32"
                }
            ],
            "stateMutability": "view",
            "type": "function"
        },
        {
            "inputs": [],
            "name": "PAYOUT_TRIGGER_ROLE",
            "outputs": [
                {
                    "internalType": "bytes32",
                    "name": "",
                    "type": "bytes32"
                }
            ],
            "stateMutability": "view",
            "type": "function"
        },
        {
            "inputs": [
                {
                    "internalType": "address",
                    "name": "to",
                    "type": "address"
                },
                {
                    "internalType": "uint256",
                    "name": "tokenId",
                    "type": "uint256"
                }
            ],
            "name": "approve",
            "outputs": [],
            "stateMutability": "nonpayable",
            "type": "function"
        },
        {
            "inputs": [
                {
                    "internalType": "address",
                    "name": "owner",
                    "type": "address"
                }
            ],
            "name": "balanceOf",
            "outputs": [
                {
                    "internalType": "uint256",
                    "name": "",
                    "type": "uint256"
                }
            ],
            "stateMutability": "view",
            "type": "function"
        },
        {
            "inputs": [
                {
                    "internalType": "uint256",
                    "name": "fundAmount",
                    "type": "uint256"
                }
            ],
            "name": "deployGameFund",
            "outputs": [],
            "stateMutability": "nonpayable",
            "type": "function"
        },
        {
            "inputs": [
                {
                    "internalType": "uint256",
                    "name": "tokenId",
                    "type": "uint256"
                }
            ],
            "name": "getApproved",
            "outputs": [
                {
                    "internalType": "address",
                    "name": "",
                    "type": "address"
                }
            ],
            "stateMutability": "view",
            "type": "function"
        },
        {
            "inputs": [],
            "name": "getGameFundReserve",
            "outputs": [
                {
                    "internalType": "uint256",
                    "name": "",
                    "type": "uint256"
                }
            ],
            "stateMutability": "view",
            "type": "function"
        },
        {
            "inputs": [],
            "name": "getMintedCount",
            "outputs": [
                {
                    "internalType": "uint256",
                    "name": "",
                    "type": "uint256"
                }
            ],
            "stateMutability": "view",
            "type": "function"
        },
        {
            "inputs": [
                {
                    "internalType": "bytes32",
                    "name": "role",
                    "type": "bytes32"
                }
            ],
            "name": "getRoleAdmin",
            "outputs": [
                {
                    "internalType": "bytes32",
                    "name": "",
                    "type": "bytes32"
                }
            ],
            "stateMutability": "view",
            "type": "function"
        },
        {
            "inputs": [
                {
                    "internalType": "address",
                    "name": "account",
                    "type": "address"
                }
            ],
            "name": "grantAdminRoleToAddress",
            "outputs": [],
            "stateMutability": "nonpayable",
            "type": "function"
        },
        {
            "inputs": [
                {
                    "internalType": "address",
                    "name": "account",
                    "type": "address"
                }
            ],
            "name": "grantFundGameRoleToAddress",
            "outputs": [],
            "stateMutability": "nonpayable",
            "type": "function"
        },
        {
            "inputs": [
                {
                    "internalType": "bytes32",
                    "name": "role",
                    "type": "bytes32"
                },
                {
                    "internalType": "address",
                    "name": "account",
                    "type": "address"
                }
            ],
            "name": "grantRole",
            "outputs": [],
            "stateMutability": "nonpayable",
            "type": "function"
        },
        {
            "inputs": [
                {
                    "internalType": "address",
                    "name": "account",
                    "type": "address"
                }
            ],
            "name": "grantTriggerPayoutRoleToAddress",
            "outputs": [],
            "stateMutability": "nonpayable",
            "type": "function"
        },
        {
            "inputs": [
                {
                    "internalType": "bytes32",
                    "name": "role",
                    "type": "bytes32"
                },
                {
                    "internalType": "address",
                    "name": "account",
                    "type": "address"
                }
            ],
            "name": "hasRole",
            "outputs": [
                {
                    "internalType": "bool",
                    "name": "",
                    "type": "bool"
                }
            ],
            "stateMutability": "view",
            "type": "function"
        },
        {
            "inputs": [
                {
                    "internalType": "address",
                    "name": "owner",
                    "type": "address"
                },
                {
                    "internalType": "address",
                    "name": "operator",
                    "type": "address"
                }
            ],
            "name": "isApprovedForAll",
            "outputs": [
                {
                    "internalType": "bool",
                    "name": "",
                    "type": "bool"
                }
            ],
            "stateMutability": "view",
            "type": "function"
        },
        {
            "inputs": [],
            "name": "mint",
            "outputs": [],
            "stateMutability": "payable",
            "type": "function"
        },
        {
            "inputs": [],
            "name": "name",
            "outputs": [
                {
                    "internalType": "string",
                    "name": "",
                    "type": "string"
                }
            ],
            "stateMutability": "view",
            "type": "function"
        },
        {
            "inputs": [],
            "name": "owner",
            "outputs": [
                {
                    "internalType": "address",
                    "name": "",
                    "type": "address"
                }
            ],
            "stateMutability": "view",
            "type": "function"
        },
        {
            "inputs": [
                {
                    "internalType": "uint256",
                    "name": "tokenId",
                    "type": "uint256"
                }
            ],
            "name": "ownerOf",
            "outputs": [
                {
                    "internalType": "address",
                    "name": "",
                    "type": "address"
                }
            ],
            "stateMutability": "view",
            "type": "function"
        },
        {
            "inputs": [],
            "name": "payoutSupporters",
            "outputs": [],
            "stateMutability": "nonpayable",
            "type": "function"
        },
        {
            "inputs": [],
            "name": "renounceOwnership",
            "outputs": [],
            "stateMutability": "nonpayable",
            "type": "function"
        },
        {
            "inputs": [
                {
                    "internalType": "bytes32",
                    "name": "role",
                    "type": "bytes32"
                },
                {
                    "internalType": "address",
                    "name": "account",
                    "type": "address"
                }
            ],
            "name": "renounceRole",
            "outputs": [],
            "stateMutability": "nonpayable",
            "type": "function"
        },
        {
            "inputs": [
                {
                    "internalType": "bytes32",
                    "name": "role",
                    "type": "bytes32"
                },
                {
                    "internalType": "address",
                    "name": "account",
                    "type": "address"
                }
            ],
            "name": "revokeRole",
            "outputs": [],
            "stateMutability": "nonpayable",
            "type": "function"
        },
        {
            "inputs": [
                {
                    "internalType": "address",
                    "name": "from",
                    "type": "address"
                },
                {
                    "internalType": "address",
                    "name": "to",
                    "type": "address"
                },
                {
                    "internalType": "uint256",
                    "name": "tokenId",
                    "type": "uint256"
                }
            ],
            "name": "safeTransferFrom",
            "outputs": [],
            "stateMutability": "nonpayable",
            "type": "function"
        },
        {
            "inputs": [
                {
                    "internalType": "address",
                    "name": "from",
                    "type": "address"
                },
                {
                    "internalType": "address",
                    "name": "to",
                    "type": "address"
                },
                {
                    "internalType": "uint256",
                    "name": "tokenId",
                    "type": "uint256"
                },
                {
                    "internalType": "bytes",
                    "name": "_data",
                    "type": "bytes"
                }
            ],
            "name": "safeTransferFrom",
            "outputs": [],
            "stateMutability": "nonpayable",
            "type": "function"
        },
        {
            "inputs": [],
            "name": "sendFunds",
            "outputs": [
                {
                    "internalType": "bool",
                    "name": "",
                    "type": "bool"
                }
            ],
            "stateMutability": "payable",
            "type": "function"
        },
        {
            "inputs": [
                {
                    "internalType": "address",
                    "name": "operator",
                    "type": "address"
                },
                {
                    "internalType": "bool",
                    "name": "approved",
                    "type": "bool"
                }
            ],
            "name": "setApprovalForAll",
            "outputs": [],
            "stateMutability": "nonpayable",
            "type": "function"
        },
        {
            "inputs": [
                {
                    "internalType": "address payable",
                    "name": "_address",
                    "type": "address"
                }
            ],
            "name": "setGameContract",
            "outputs": [],
            "stateMutability": "nonpayable",
            "type": "function"
        },
        {
            "inputs": [
                {
                    "internalType": "bytes4",
                    "name": "interfaceId",
                    "type": "bytes4"
                }
            ],
            "name": "supportsInterface",
            "outputs": [
                {
                    "internalType": "bool",
                    "name": "",
                    "type": "bool"
                }
            ],
            "stateMutability": "view",
            "type": "function"
        },
        {
            "inputs": [],
            "name": "symbol",
            "outputs": [
                {
                    "internalType": "string",
                    "name": "",
                    "type": "string"
                }
            ],
            "stateMutability": "view",
            "type": "function"
        },
        {
            "inputs": [
                {
                    "internalType": "uint256",
                    "name": "tokenId",
                    "type": "uint256"
                }
            ],
            "name": "tokenURI",
            "outputs": [
                {
                    "internalType": "string",
                    "name": "",
                    "type": "string"
                }
            ],
            "stateMutability": "view",
            "type": "function"
        },
        {
            "inputs": [
                {
                    "internalType": "address",
                    "name": "from",
                    "type": "address"
                },
                {
                    "internalType": "address",
                    "name": "to",
                    "type": "address"
                },
                {
                    "internalType": "uint256",
                    "name": "tokenId",
                    "type": "uint256"
                }
            ],
            "name": "transferFrom",
            "outputs": [],
            "stateMutability": "nonpayable",
            "type": "function"
        },
        {
            "inputs": [
                {
                    "internalType": "address",
                    "name": "newOwner",
                    "type": "address"
                }
            ],
            "name": "transferOwnership",
            "outputs": [],
            "stateMutability": "nonpayable",
            "type": "function"
        },
        {
            "stateMutability": "payable",
            "type": "receive"
        }
    ],
    "bytecode": "0x60806040526102a4600c5564e8d4a51000600d556003600e553480156200002557600080fd5b506040518060400160405280601781526020017f446567656e4a61636b20537570706f72746572204e46540000000000000000008152506040518060400160405280600981526020017f444547454e4a41434b00000000000000000000000000000000000000000000008152508160009080519060200190620000aa92919062000626565b508060019080519060200190620000c392919062000626565b505050620000e6620000da6200032f60201b60201c565b6200033760201b60201c565b620001316040518060400160405280601881526020017f446567656e4a61636b20737570706f72746572204e4654210000000000000000815250620003fd60201b62001bb71760201c565b620001466000801b33620004a060201b60201c565b620001787f3e0866af285ebf0837e0b220bb5c2149d4506386d772a6ff2f6814661d91f3f033620004a060201b60201c565b620001aa7f699e1267cee77e96ba79f2208629ac73ad6a1f61777b63f8716e9643944511df33620004a060201b60201c565b6040518060400160405280600381526020017fe299a600000000000000000000000000000000000000000000000000000000008152506011600080815260200190815260200160002090805190602001906200020892919062000626565b506040518060400160405280600381526020017fe299a00000000000000000000000000000000000000000000000000000000000815250601160006001815260200190815260200160002090805190602001906200026892919062000626565b506040518060400160405280600381526020017fe299a5000000000000000000000000000000000000000000000000000000000081525060116000600281526020019081526020016000209080519060200190620002c892919062000626565b506040518060400160405280600381526020017fe299a30000000000000000000000000000000000000000000000000000000000815250601160006003815260200190815260200160002090805190602001906200032892919062000626565b5062000803565b600033905090565b6000600760009054906101000a900473ffffffffffffffffffffffffffffffffffffffff16905081600760006101000a81548173ffffffffffffffffffffffffffffffffffffffff021916908373ffffffffffffffffffffffffffffffffffffffff1602179055508173ffffffffffffffffffffffffffffffffffffffff168173ffffffffffffffffffffffffffffffffffffffff167f8be0079c531659141344cd1fd0a4f28419497f9722a3daafe3b4186f6b6457e060405160405180910390a35050565b6200049d816040516024016200041491906200077a565b6040516020818303038152906040527f41304fac000000000000000000000000000000000000000000000000000000007bffffffffffffffffffffffffffffffffffffffffffffffffffffffff19166020820180517bffffffffffffffffffffffffffffffffffffffffffffffffffffffff83818316178352505050506200059260201b60201c565b50565b620004b28282620005bb60201b60201c565b6200058e5760016008600084815260200190815260200160002060000160008373ffffffffffffffffffffffffffffffffffffffff1673ffffffffffffffffffffffffffffffffffffffff16815260200190815260200160002060006101000a81548160ff021916908315150217905550620005336200032f60201b60201c565b73ffffffffffffffffffffffffffffffffffffffff168173ffffffffffffffffffffffffffffffffffffffff16837f2f8788117e7eff1d82e926ec794901d17c78024a50270940304540a733656f0d60405160405180910390a45b5050565b60008151905060006a636f6e736f6c652e6c6f679050602083016000808483855afa5050505050565b60006008600084815260200190815260200160002060000160008373ffffffffffffffffffffffffffffffffffffffff1673ffffffffffffffffffffffffffffffffffffffff16815260200190815260200160002060009054906101000a900460ff16905092915050565b8280546200063490620007cd565b90600052602060002090601f016020900481019282620006585760008555620006a4565b82601f106200067357805160ff1916838001178555620006a4565b82800160010185558215620006a4579182015b82811115620006a357825182559160200191906001019062000686565b5b509050620006b39190620006b7565b5090565b5b80821115620006d2576000816000905550600101620006b8565b5090565b600081519050919050565b600082825260208201905092915050565b60005b8381101562000712578082015181840152602081019050620006f5565b8381111562000722576000848401525b50505050565b6000601f19601f8301169050919050565b60006200074682620006d6565b620007528185620006e1565b935062000764818560208601620006f2565b6200076f8162000728565b840191505092915050565b6000602082019050818103600083015262000796818462000739565b905092915050565b7f4e487b7100000000000000000000000000000000000000000000000000000000600052602260045260246000fd5b60006002820490506001821680620007e657607f821691505b60208210811415620007fd57620007fc6200079e565b5b50919050565b6155c480620008136000396000f3fe6080604052600436106101fd5760003560e01c8063715018a61161010d578063aa342b16116100a0578063c87b56dd1161006f578063c87b56dd146106e6578063d547741f14610723578063e985e9c51461074c578063ebc9bd3b14610789578063f2fde38b146107b457610204565b8063aa342b1614610642578063b88d4fde1461066b578063b93f112d14610694578063c1dde69c146106bd57610204565b806395d89b41116100dc57806395d89b41146105ac578063a217fddf146105d7578063a22cb46514610602578063a498c2d41461062b57610204565b8063715018a61461050f5780638d68cf59146105265780638da5cb5b1461054457806391d148541461056f57610204565b806325585b7f11610190578063405ebd4d1161015f578063405ebd4d1461041857806342842e0e146104415780634ef6b3511461046a5780636352211e1461049557806370a08231146104d257610204565b806325585b7f146103705780632f2ff15d1461039b57806336568abe146103c45780633813e499146103ed57610204565b80631249c58b116101cc5780631249c58b146102d757806323b872dd146102e1578063248a9ca31461030a5780632505d47d1461034757610204565b806301ffc9a71461020957806306fdde0314610246578063081812fc14610271578063095ea7b3146102ae57610204565b3661020457005b600080fd5b34801561021557600080fd5b50610230600480360381019061022b919061371b565b6107dd565b60405161023d9190613763565b60405180910390f35b34801561025257600080fd5b5061025b6107ef565b6040516102689190613817565b60405180910390f35b34801561027d57600080fd5b506102986004803603810190610293919061386f565b610881565b6040516102a591906138dd565b60405180910390f35b3480156102ba57600080fd5b506102d560048036038101906102d09190613924565b610906565b005b6102df610a1e565b005b3480156102ed57600080fd5b5061030860048036038101906103039190613964565b610dd8565b005b34801561031657600080fd5b50610331600480360381019061032c91906139ed565b610e38565b60405161033e9190613a29565b60405180910390f35b34801561035357600080fd5b5061036e60048036038101906103699190613a44565b610e58565b005b34801561037c57600080fd5b50610385610e93565b6040516103929190613a29565b60405180910390f35b3480156103a757600080fd5b506103c260048036038101906103bd9190613a71565b610eb7565b005b3480156103d057600080fd5b506103eb60048036038101906103e69190613a71565b610ed8565b005b3480156103f957600080fd5b50610402610f5b565b60405161040f9190613a29565b60405180910390f35b34801561042457600080fd5b5061043f600480360381019061043a9190613aef565b610f7f565b005b34801561044d57600080fd5b5061046860048036038101906104639190613964565b611034565b005b34801561047657600080fd5b5061047f611054565b60405161048c9190613b2b565b60405180910390f35b3480156104a157600080fd5b506104bc60048036038101906104b7919061386f565b611089565b6040516104c991906138dd565b60405180910390f35b3480156104de57600080fd5b506104f960048036038101906104f49190613a44565b61113b565b6040516105069190613b2b565b60405180910390f35b34801561051b57600080fd5b506105246111f3565b005b61052e61127b565b60405161053b9190613763565b60405180910390f35b34801561055057600080fd5b50610559611284565b60405161056691906138dd565b60405180910390f35b34801561057b57600080fd5b5061059660048036038101906105919190613a71565b6112ae565b6040516105a39190613763565b60405180910390f35b3480156105b857600080fd5b506105c1611319565b6040516105ce9190613817565b60405180910390f35b3480156105e357600080fd5b506105ec6113ab565b6040516105f99190613a29565b60405180910390f35b34801561060e57600080fd5b5061062960048036038101906106249190613b72565b6113b2565b005b34801561063757600080fd5b506106406113c8565b005b34801561064e57600080fd5b506106696004803603810190610664919061386f565b6115fd565b005b34801561067757600080fd5b50610692600480360381019061068d9190613ce7565b6117f3565b005b3480156106a057600080fd5b506106bb60048036038101906106b69190613a44565b611855565b005b3480156106c957600080fd5b506106e460048036038101906106df9190613a44565b611873565b005b3480156106f257600080fd5b5061070d6004803603810190610708919061386f565b6118ae565b60405161071a9190613817565b60405180910390f35b34801561072f57600080fd5b5061074a60048036038101906107459190613a71565b611a00565b005b34801561075857600080fd5b50610773600480360381019061076e9190613d6a565b611a21565b6040516107809190613763565b60405180910390f35b34801561079557600080fd5b5061079e611ab5565b6040516107ab9190613b2b565b60405180910390f35b3480156107c057600080fd5b506107db60048036038101906107d69190613a44565b611abf565b005b60006107e882611c50565b9050919050565b6060600080546107fe90613dd9565b80601f016020809104026020016040519081016040528092919081815260200182805461082a90613dd9565b80156108775780601f1061084c57610100808354040283529160200191610877565b820191906000526020600020905b81548152906001019060200180831161085a57829003601f168201915b5050505050905090565b600061088c82611cca565b6108cb576040517f08c379a00000000000000000000000000000000000000000000000000000000081526004016108c290613e7d565b60405180910390fd5b6004600083815260200190815260200160002060009054906101000a900473ffffffffffffffffffffffffffffffffffffffff169050919050565b600061091182611089565b90508073ffffffffffffffffffffffffffffffffffffffff168373ffffffffffffffffffffffffffffffffffffffff161415610982576040517f08c379a000000000000000000000000000000000000000000000000000000000815260040161097990613f0f565b60405180910390fd5b8073ffffffffffffffffffffffffffffffffffffffff166109a1611d36565b73ffffffffffffffffffffffffffffffffffffffff1614806109d057506109cf816109ca611d36565b611a21565b5b610a0f576040517f08c379a0000000000000000000000000000000000000000000000000000000008152600401610a0690613fa1565b60405180910390fd5b610a198383611d3e565b505050565b600c54600f5410610a64576040517f08c379a0000000000000000000000000000000000000000000000000000000008152600401610a5b9061400d565b60405180910390fd5b600d54341015610aa9576040517f08c379a0000000000000000000000000000000000000000000000000000000008152600401610aa090614079565b60405180910390fd5b600e54601260003373ffffffffffffffffffffffffffffffffffffffff1673ffffffffffffffffffffffffffffffffffffffff1681526020019081526020016000205410610b2c576040517f08c379a0000000000000000000000000000000000000000000000000000000008152600401610b239061410b565b60405180910390fd5b6000610b38600b611df7565b9050610b443382611e05565b60006011600060a984610b579190614189565b81526020019081526020016000208054610b7090613dd9565b80601f0160208091040260200160405190810160405280929190818152602001828054610b9c90613dd9565b8015610be95780601f10610bbe57610100808354040283529160200191610be9565b820191906000526020600020905b815481529060010190602001808311610bcc57829003601f168201915b505050505090506000610c13600d60a985610c0491906141ba565b610c0e9190614189565b611e23565b90506000610c38600d60a986610c2991906141ba565b610c3391906141ba565b611e23565b90506000838383604051602001610c519392919061430b565b60405160208183030381529060405290506000610c8c82604051602001610c7891906144b3565b604051602081830303815290604052612152565b9050610cb78682604051602001610ca39190614537565b6040516020818303038152906040526122cb565b610cc1600b61233f565b6001600f6000828254610cd49190614559565b9250508190555060108690806001815401808255809150506001900390600052602060002001600090919091909150556001601260003373ffffffffffffffffffffffffffffffffffffffff1673ffffffffffffffffffffffffffffffffffffffff1681526020019081526020016000206000828254610d549190614559565b925050819055507f4cc0a9c4a99ddc700de1af2c9f916a7cbfdb71f14801ccff94061ad1ef8a80403387604051610d8c9291906145af565b60405180910390a1610db760405180606001604052806025815260200161552a602591398733612355565b3460136000828254610dc99190614559565b92505081905550505050505050565b610de9610de3611d36565b826123f4565b610e28576040517f08c379a0000000000000000000000000000000000000000000000000000000008152600401610e1f9061464a565b60405180910390fd5b610e338383836124d2565b505050565b600060086000838152602001908152602001600020600101549050919050565b6000801b610e6581612739565b610e8f7f3e0866af285ebf0837e0b220bb5c2149d4506386d772a6ff2f6814661d91f3f083610eb7565b5050565b7f699e1267cee77e96ba79f2208629ac73ad6a1f61777b63f8716e9643944511df81565b610ec082610e38565b610ec981612739565b610ed3838361274d565b505050565b610ee0611d36565b73ffffffffffffffffffffffffffffffffffffffff168173ffffffffffffffffffffffffffffffffffffffff1614610f4d576040517f08c379a0000000000000000000000000000000000000000000000000000000008152600401610f44906146dc565b60405180910390fd5b610f57828261282e565b5050565b7f3e0866af285ebf0837e0b220bb5c2149d4506386d772a6ff2f6814661d91f3f081565b6000801b610f8c81612739565b81600960006101000a81548173ffffffffffffffffffffffffffffffffffffffff021916908373ffffffffffffffffffffffffffffffffffffffff160217905550600960009054906101000a900473ffffffffffffffffffffffffffffffffffffffff16600a60006101000a81548173ffffffffffffffffffffffffffffffffffffffff021916908373ffffffffffffffffffffffffffffffffffffffff1602179055505050565b61104f838383604051806020016040528060008152506117f3565b505050565b60007f3e0866af285ebf0837e0b220bb5c2149d4506386d772a6ff2f6814661d91f3f061108081612739565b60135491505090565b6000806002600084815260200190815260200160002060009054906101000a900473ffffffffffffffffffffffffffffffffffffffff169050600073ffffffffffffffffffffffffffffffffffffffff168173ffffffffffffffffffffffffffffffffffffffff161415611132576040517f08c379a00000000000000000000000000000000000000000000000000000000081526004016111299061476e565b60405180910390fd5b80915050919050565b60008073ffffffffffffffffffffffffffffffffffffffff168273ffffffffffffffffffffffffffffffffffffffff1614156111ac576040517f08c379a00000000000000000000000000000000000000000000000000000000081526004016111a390614800565b60405180910390fd5b600360008373ffffffffffffffffffffffffffffffffffffffff1673ffffffffffffffffffffffffffffffffffffffff168152602001908152602001600020549050919050565b6111fb611d36565b73ffffffffffffffffffffffffffffffffffffffff16611219611284565b73ffffffffffffffffffffffffffffffffffffffff161461126f576040517f08c379a00000000000000000000000000000000000000000000000000000000081526004016112669061486c565b60405180910390fd5b6112796000612910565b565b60006001905090565b6000600760009054906101000a900473ffffffffffffffffffffffffffffffffffffffff16905090565b60006008600084815260200190815260200160002060000160008373ffffffffffffffffffffffffffffffffffffffff1673ffffffffffffffffffffffffffffffffffffffff16815260200190815260200160002060009054906101000a900460ff16905092915050565b60606001805461132890613dd9565b80601f016020809104026020016040519081016040528092919081815260200182805461135490613dd9565b80156113a15780601f10611376576101008083540402835291602001916113a1565b820191906000526020600020905b81548152906001019060200180831161138457829003601f168201915b5050505050905090565b6000801b81565b6113c46113bd611d36565b83836129d6565b5050565b600073ffffffffffffffffffffffffffffffffffffffff16600960009054906101000a900473ffffffffffffffffffffffffffffffffffffffff1673ffffffffffffffffffffffffffffffffffffffff16141561145a576040517f08c379a0000000000000000000000000000000000000000000000000000000008152600401611451906148fe565b60405180910390fd5b60006013544761146a919061491e565b9050600061147a82600c54612b43565b905060008083116114c0576040517f08c379a00000000000000000000000000000000000000000000000000000000081526004016114b79061499e565b60405180910390fd5b60005b6010805490508110156115d3576000601082815481106114e6576114e56149be565b5b9060005260206000200154905060006114fe82611089565b90506000808273ffffffffffffffffffffffffffffffffffffffff168760405161152790614a44565b60006040518083038185875af1925050503d8060008114611564576040519150601f19603f3d011682016040523d82523d6000602084013e611569565b606091505b5091509150816115ae576040517f08c379a00000000000000000000000000000000000000000000000000000000081526004016115a590614aa5565b60405180910390fd5b86866115ba9190614559565b95505050505080806115cb90614ac5565b9150506114c3565b5080836115e0919061491e565b601360008282546115f19190614559565b92505081905550505050565b7f3e0866af285ebf0837e0b220bb5c2149d4506386d772a6ff2f6814661d91f3f061162781612739565b600073ffffffffffffffffffffffffffffffffffffffff16600960009054906101000a900473ffffffffffffffffffffffffffffffffffffffff1673ffffffffffffffffffffffffffffffffffffffff1614156116b9576040517f08c379a00000000000000000000000000000000000000000000000000000000081526004016116b0906148fe565b60405180910390fd5b60135482106116fd576040517f08c379a00000000000000000000000000000000000000000000000000000000081526004016116f490614b80565b60405180910390fd5b6000600a60009054906101000a900473ffffffffffffffffffffffffffffffffffffffff1673ffffffffffffffffffffffffffffffffffffffff16638d68cf59846040518263ffffffff1660e01b815260040160206040518083038185885af115801561176e573d6000803e3d6000fd5b50505050506040513d601f19601f820116820180604052508101906117939190614bb5565b9050806117d5576040517f08c379a00000000000000000000000000000000000000000000000000000000081526004016117cc90614c2e565b60405180910390fd5b82601360008282546117e7919061491e565b92505081905550505050565b6118046117fe611d36565b836123f4565b611843576040517f08c379a000000000000000000000000000000000000000000000000000000000815260040161183a9061464a565b60405180910390fd5b61184f84848484612b59565b50505050565b6000801b61186281612739565b61186f6000801b83610eb7565b5050565b6000801b61188081612739565b6118aa7f699e1267cee77e96ba79f2208629ac73ad6a1f61777b63f8716e9643944511df83610eb7565b5050565b60606118b982611cca565b6118f8576040517f08c379a00000000000000000000000000000000000000000000000000000000081526004016118ef90614cc0565b60405180910390fd5b600060066000848152602001908152602001600020805461191890613dd9565b80601f016020809104026020016040519081016040528092919081815260200182805461194490613dd9565b80156119915780601f1061196657610100808354040283529160200191611991565b820191906000526020600020905b81548152906001019060200180831161197457829003601f168201915b5050505050905060006119a2612bb5565b90506000815114156119b85781925050506119fb565b6000825111156119ed5780826040516020016119d5929190614ce0565b604051602081830303815290604052925050506119fb565b6119f684612bcc565b925050505b919050565b611a0982610e38565b611a1281612739565b611a1c838361282e565b505050565b6000600560008473ffffffffffffffffffffffffffffffffffffffff1673ffffffffffffffffffffffffffffffffffffffff16815260200190815260200160002060008373ffffffffffffffffffffffffffffffffffffffff1673ffffffffffffffffffffffffffffffffffffffff16815260200190815260200160002060009054906101000a900460ff16905092915050565b6000600f54905090565b611ac7611d36565b73ffffffffffffffffffffffffffffffffffffffff16611ae5611284565b73ffffffffffffffffffffffffffffffffffffffff1614611b3b576040517f08c379a0000000000000000000000000000000000000000000000000000000008152600401611b329061486c565b60405180910390fd5b600073ffffffffffffffffffffffffffffffffffffffff168173ffffffffffffffffffffffffffffffffffffffff161415611bab576040517f08c379a0000000000000000000000000000000000000000000000000000000008152600401611ba290614d76565b60405180910390fd5b611bb481612910565b50565b611c4d81604051602401611bcb9190613817565b6040516020818303038152906040527f41304fac000000000000000000000000000000000000000000000000000000007bffffffffffffffffffffffffffffffffffffffffffffffffffffffff19166020820180517bffffffffffffffffffffffffffffffffffffffffffffffffffffffff8381831617835250505050612c73565b50565b60007f7965db0b000000000000000000000000000000000000000000000000000000007bffffffffffffffffffffffffffffffffffffffffffffffffffffffff1916827bffffffffffffffffffffffffffffffffffffffffffffffffffffffff19161480611cc35750611cc282612c9c565b5b9050919050565b60008073ffffffffffffffffffffffffffffffffffffffff166002600084815260200190815260200160002060009054906101000a900473ffffffffffffffffffffffffffffffffffffffff1673ffffffffffffffffffffffffffffffffffffffff1614159050919050565b600033905090565b816004600083815260200190815260200160002060006101000a81548173ffffffffffffffffffffffffffffffffffffffff021916908373ffffffffffffffffffffffffffffffffffffffff160217905550808273ffffffffffffffffffffffffffffffffffffffff16611db183611089565b73ffffffffffffffffffffffffffffffffffffffff167f8c5be1e5ebec7d5bd14f71427d1e84f3dd0314c0f7b2291e5b200ac8c7c3b92560405160405180910390a45050565b600081600001549050919050565b611e1f828260405180602001604052806000815250612d7e565b5050565b60606000604051806101a001604052806040518060400160405280600181526020017f410000000000000000000000000000000000000000000000000000000000000081525081526020016040518060400160405280600181526020017f320000000000000000000000000000000000000000000000000000000000000081525081526020016040518060400160405280600181526020017f330000000000000000000000000000000000000000000000000000000000000081525081526020016040518060400160405280600181526020017f340000000000000000000000000000000000000000000000000000000000000081525081526020016040518060400160405280600181526020017f350000000000000000000000000000000000000000000000000000000000000081525081526020016040518060400160405280600181526020017f360000000000000000000000000000000000000000000000000000000000000081525081526020016040518060400160405280600181526020017f370000000000000000000000000000000000000000000000000000000000000081525081526020016040518060400160405280600181526020017f380000000000000000000000000000000000000000000000000000000000000081525081526020016040518060400160405280600181526020017f390000000000000000000000000000000000000000000000000000000000000081525081526020016040518060400160405280600281526020017f313000000000000000000000000000000000000000000000000000000000000081525081526020016040518060400160405280600181526020017f4a0000000000000000000000000000000000000000000000000000000000000081525081526020016040518060400160405280600181526020017f510000000000000000000000000000000000000000000000000000000000000081525081526020016040518060400160405280600181526020017f4b0000000000000000000000000000000000000000000000000000000000000081525081525090508083600d8110612145576121446149be565b5b6020020151915050919050565b6060600082511415612175576040518060200160405280600081525090506122c6565b600060405180606001604052806040815260200161554f60409139905060006003600285516121a49190614559565b6121ae9190614189565b60046121ba9190614d96565b905060006020826121cb9190614559565b67ffffffffffffffff8111156121e4576121e3613bbc565b5b6040519080825280601f01601f1916602001820160405280156122165781602001600182028036833780820191505090505b509050818152600183018586518101602084015b81831015612285576003830192508251603f8160121c168501518253600182019150603f81600c1c168501518253600182019150603f8160061c168501518253600182019150603f811685015182536001820191505061222a565b60038951066001811461229f57600281146122af576122ba565b613d3d60f01b60028303526122ba565b603d60f81b60018303525b50505050508093505050505b919050565b6122d482611cca565b612313576040517f08c379a000000000000000000000000000000000000000000000000000000000815260040161230a90614e62565b60405180910390fd5b8060066000848152602001908152602001600020908051906020019061233a92919061360c565b505050565b6001816000016000828254019250508190555050565b6123ef83838360405160240161236d93929190614e82565b6040516020818303038152906040527fe3849f79000000000000000000000000000000000000000000000000000000007bffffffffffffffffffffffffffffffffffffffffffffffffffffffff19166020820180517bffffffffffffffffffffffffffffffffffffffffffffffffffffffff8381831617835250505050612c73565b505050565b60006123ff82611cca565b61243e576040517f08c379a000000000000000000000000000000000000000000000000000000000815260040161243590614f32565b60405180910390fd5b600061244983611089565b90508073ffffffffffffffffffffffffffffffffffffffff168473ffffffffffffffffffffffffffffffffffffffff16148061248b575061248a8185611a21565b5b806124c957508373ffffffffffffffffffffffffffffffffffffffff166124b184610881565b73ffffffffffffffffffffffffffffffffffffffff16145b91505092915050565b8273ffffffffffffffffffffffffffffffffffffffff166124f282611089565b73ffffffffffffffffffffffffffffffffffffffff1614612548576040517f08c379a000000000000000000000000000000000000000000000000000000000815260040161253f90614fc4565b60405180910390fd5b600073ffffffffffffffffffffffffffffffffffffffff168273ffffffffffffffffffffffffffffffffffffffff1614156125b8576040517f08c379a00000000000000000000000000000000000000000000000000000000081526004016125af90615056565b60405180910390fd5b6125c3838383612dd9565b6125ce600082611d3e565b6001600360008573ffffffffffffffffffffffffffffffffffffffff1673ffffffffffffffffffffffffffffffffffffffff168152602001908152602001600020600082825461261e919061491e565b925050819055506001600360008473ffffffffffffffffffffffffffffffffffffffff1673ffffffffffffffffffffffffffffffffffffffff16815260200190815260200160002060008282546126759190614559565b92505081905550816002600083815260200190815260200160002060006101000a81548173ffffffffffffffffffffffffffffffffffffffff021916908373ffffffffffffffffffffffffffffffffffffffff160217905550808273ffffffffffffffffffffffffffffffffffffffff168473ffffffffffffffffffffffffffffffffffffffff167fddf252ad1be2c89b69c2b068fc378daa952ba7f163c4a11628f55a4df523b3ef60405160405180910390a4612734838383612dde565b505050565b61274a81612745611d36565b612de3565b50565b61275782826112ae565b61282a5760016008600084815260200190815260200160002060000160008373ffffffffffffffffffffffffffffffffffffffff1673ffffffffffffffffffffffffffffffffffffffff16815260200190815260200160002060006101000a81548160ff0219169083151502179055506127cf611d36565b73ffffffffffffffffffffffffffffffffffffffff168173ffffffffffffffffffffffffffffffffffffffff16837f2f8788117e7eff1d82e926ec794901d17c78024a50270940304540a733656f0d60405160405180910390a45b5050565b61283882826112ae565b1561290c5760006008600084815260200190815260200160002060000160008373ffffffffffffffffffffffffffffffffffffffff1673ffffffffffffffffffffffffffffffffffffffff16815260200190815260200160002060006101000a81548160ff0219169083151502179055506128b1611d36565b73ffffffffffffffffffffffffffffffffffffffff168173ffffffffffffffffffffffffffffffffffffffff16837ff6391f5c32d9c69d2a47ea670b442974b53935d1edc7fd64eb21e047a839171b60405160405180910390a45b5050565b6000600760009054906101000a900473ffffffffffffffffffffffffffffffffffffffff16905081600760006101000a81548173ffffffffffffffffffffffffffffffffffffffff021916908373ffffffffffffffffffffffffffffffffffffffff1602179055508173ffffffffffffffffffffffffffffffffffffffff168173ffffffffffffffffffffffffffffffffffffffff167f8be0079c531659141344cd1fd0a4f28419497f9722a3daafe3b4186f6b6457e060405160405180910390a35050565b8173ffffffffffffffffffffffffffffffffffffffff168373ffffffffffffffffffffffffffffffffffffffff161415612a45576040517f08c379a0000000000000000000000000000000000000000000000000000000008152600401612a3c906150c2565b60405180910390fd5b80600560008573ffffffffffffffffffffffffffffffffffffffff1673ffffffffffffffffffffffffffffffffffffffff16815260200190815260200160002060008473ffffffffffffffffffffffffffffffffffffffff1673ffffffffffffffffffffffffffffffffffffffff16815260200190815260200160002060006101000a81548160ff0219169083151502179055508173ffffffffffffffffffffffffffffffffffffffff168373ffffffffffffffffffffffffffffffffffffffff167f17307eab39ab6107e8899845ad3d59bd9653f200f220920489ca2b5937696c3183604051612b369190613763565b60405180910390a3505050565b60008183612b519190614189565b905092915050565b612b648484846124d2565b612b7084848484612e80565b612baf576040517f08c379a0000000000000000000000000000000000000000000000000000000008152600401612ba690615154565b60405180910390fd5b50505050565b606060405180602001604052806000815250905090565b6060612bd782611cca565b612c16576040517f08c379a0000000000000000000000000000000000000000000000000000000008152600401612c0d906151e6565b60405180910390fd5b6000612c20612bb5565b90506000815111612c405760405180602001604052806000815250612c6b565b80612c4a84613008565b604051602001612c5b929190614ce0565b6040516020818303038152906040525b915050919050565b60008151905060006a636f6e736f6c652e6c6f679050602083016000808483855afa5050505050565b60007f80ac58cd000000000000000000000000000000000000000000000000000000007bffffffffffffffffffffffffffffffffffffffffffffffffffffffff1916827bffffffffffffffffffffffffffffffffffffffffffffffffffffffff19161480612d6757507f5b5e139f000000000000000000000000000000000000000000000000000000007bffffffffffffffffffffffffffffffffffffffffffffffffffffffff1916827bffffffffffffffffffffffffffffffffffffffffffffffffffffffff1916145b80612d775750612d7682613169565b5b9050919050565b612d8883836131d3565b612d956000848484612e80565b612dd4576040517f08c379a0000000000000000000000000000000000000000000000000000000008152600401612dcb90615154565b60405180910390fd5b505050565b505050565b505050565b612ded82826112ae565b612e7c57612e128173ffffffffffffffffffffffffffffffffffffffff1660146133ad565b612e208360001c60206133ad565b604051602001612e3192919061529e565b6040516020818303038152906040526040517f08c379a0000000000000000000000000000000000000000000000000000000008152600401612e739190613817565b60405180910390fd5b5050565b6000612ea18473ffffffffffffffffffffffffffffffffffffffff166135e9565b15612ffb578373ffffffffffffffffffffffffffffffffffffffff1663150b7a02612eca611d36565b8786866040518563ffffffff1660e01b8152600401612eec949392919061532d565b6020604051808303816000875af1925050508015612f2857506040513d601f19601f82011682018060405250810190612f25919061538e565b60015b612fab573d8060008114612f58576040519150601f19603f3d011682016040523d82523d6000602084013e612f5d565b606091505b50600081511415612fa3576040517f08c379a0000000000000000000000000000000000000000000000000000000008152600401612f9a90615154565b60405180910390fd5b805181602001fd5b63150b7a0260e01b7bffffffffffffffffffffffffffffffffffffffffffffffffffffffff1916817bffffffffffffffffffffffffffffffffffffffffffffffffffffffff191614915050613000565b600190505b949350505050565b60606000821415613050576040518060400160405280600181526020017f30000000000000000000000000000000000000000000000000000000000000008152509050613164565b600082905060005b6000821461308257808061306b90614ac5565b915050600a8261307b9190614189565b9150613058565b60008167ffffffffffffffff81111561309e5761309d613bbc565b5b6040519080825280601f01601f1916602001820160405280156130d05781602001600182028036833780820191505090505b5090505b6000851461315d576001826130e9919061491e565b9150600a856130f891906141ba565b60306131049190614559565b60f81b81838151811061311a576131196149be565b5b60200101907effffffffffffffffffffffffffffffffffffffffffffffffffffffffffffff1916908160001a905350600a856131569190614189565b94506130d4565b8093505050505b919050565b60007f01ffc9a7000000000000000000000000000000000000000000000000000000007bffffffffffffffffffffffffffffffffffffffffffffffffffffffff1916827bffffffffffffffffffffffffffffffffffffffffffffffffffffffff1916149050919050565b600073ffffffffffffffffffffffffffffffffffffffff168273ffffffffffffffffffffffffffffffffffffffff161415613243576040517f08c379a000000000000000000000000000000000000000000000000000000000815260040161323a90615407565b60405180910390fd5b61324c81611cca565b1561328c576040517f08c379a000000000000000000000000000000000000000000000000000000000815260040161328390615473565b60405180910390fd5b61329860008383612dd9565b6001600360008473ffffffffffffffffffffffffffffffffffffffff1673ffffffffffffffffffffffffffffffffffffffff16815260200190815260200160002060008282546132e89190614559565b92505081905550816002600083815260200190815260200160002060006101000a81548173ffffffffffffffffffffffffffffffffffffffff021916908373ffffffffffffffffffffffffffffffffffffffff160217905550808273ffffffffffffffffffffffffffffffffffffffff16600073ffffffffffffffffffffffffffffffffffffffff167fddf252ad1be2c89b69c2b068fc378daa952ba7f163c4a11628f55a4df523b3ef60405160405180910390a46133a960008383612dde565b5050565b6060600060028360026133c09190614d96565b6133ca9190614559565b67ffffffffffffffff8111156133e3576133e2613bbc565b5b6040519080825280601f01601f1916602001820160405280156134155781602001600182028036833780820191505090505b5090507f30000000000000000000000000000000000000000000000000000000000000008160008151811061344d5761344c6149be565b5b60200101907effffffffffffffffffffffffffffffffffffffffffffffffffffffffffffff1916908160001a9053507f7800000000000000000000000000000000000000000000000000000000000000816001815181106134b1576134b06149be565b5b60200101907effffffffffffffffffffffffffffffffffffffffffffffffffffffffffffff1916908160001a905350600060018460026134f19190614d96565b6134fb9190614559565b90505b600181111561359b577f3031323334353637383961626364656600000000000000000000000000000000600f86166010811061353d5761353c6149be565b5b1a60f81b828281518110613554576135536149be565b5b60200101907effffffffffffffffffffffffffffffffffffffffffffffffffffffffffffff1916908160001a905350600485901c94508061359490615493565b90506134fe565b50600084146135df576040517f08c379a00000000000000000000000000000000000000000000000000000000081526004016135d690615509565b60405180910390fd5b8091505092915050565b6000808273ffffffffffffffffffffffffffffffffffffffff163b119050919050565b82805461361890613dd9565b90600052602060002090601f01602090048101928261363a5760008555613681565b82601f1061365357805160ff1916838001178555613681565b82800160010185558215613681579182015b82811115613680578251825591602001919060010190613665565b5b50905061368e9190613692565b5090565b5b808211156136ab576000816000905550600101613693565b5090565b6000604051905090565b600080fd5b600080fd5b60007fffffffff0000000000000000000000000000000000000000000000000000000082169050919050565b6136f8816136c3565b811461370357600080fd5b50565b600081359050613715816136ef565b92915050565b600060208284031215613731576137306136b9565b5b600061373f84828501613706565b91505092915050565b60008115159050919050565b61375d81613748565b82525050565b60006020820190506137786000830184613754565b92915050565b600081519050919050565b600082825260208201905092915050565b60005b838110156137b857808201518184015260208101905061379d565b838111156137c7576000848401525b50505050565b6000601f19601f8301169050919050565b60006137e98261377e565b6137f38185613789565b935061380381856020860161379a565b61380c816137cd565b840191505092915050565b6000602082019050818103600083015261383181846137de565b905092915050565b6000819050919050565b61384c81613839565b811461385757600080fd5b50565b60008135905061386981613843565b92915050565b600060208284031215613885576138846136b9565b5b60006138938482850161385a565b91505092915050565b600073ffffffffffffffffffffffffffffffffffffffff82169050919050565b60006138c78261389c565b9050919050565b6138d7816138bc565b82525050565b60006020820190506138f260008301846138ce565b92915050565b613901816138bc565b811461390c57600080fd5b50565b60008135905061391e816138f8565b92915050565b6000806040838503121561393b5761393a6136b9565b5b60006139498582860161390f565b925050602061395a8582860161385a565b9150509250929050565b60008060006060848603121561397d5761397c6136b9565b5b600061398b8682870161390f565b935050602061399c8682870161390f565b92505060406139ad8682870161385a565b9150509250925092565b6000819050919050565b6139ca816139b7565b81146139d557600080fd5b50565b6000813590506139e7816139c1565b92915050565b600060208284031215613a0357613a026136b9565b5b6000613a11848285016139d8565b91505092915050565b613a23816139b7565b82525050565b6000602082019050613a3e6000830184613a1a565b92915050565b600060208284031215613a5a57613a596136b9565b5b6000613a688482850161390f565b91505092915050565b60008060408385031215613a8857613a876136b9565b5b6000613a96858286016139d8565b9250506020613aa78582860161390f565b9150509250929050565b6000613abc8261389c565b9050919050565b613acc81613ab1565b8114613ad757600080fd5b50565b600081359050613ae981613ac3565b92915050565b600060208284031215613b0557613b046136b9565b5b6000613b1384828501613ada565b91505092915050565b613b2581613839565b82525050565b6000602082019050613b406000830184613b1c565b92915050565b613b4f81613748565b8114613b5a57600080fd5b50565b600081359050613b6c81613b46565b92915050565b60008060408385031215613b8957613b886136b9565b5b6000613b978582860161390f565b9250506020613ba885828601613b5d565b9150509250929050565b600080fd5b600080fd5b7f4e487b7100000000000000000000000000000000000000000000000000000000600052604160045260246000fd5b613bf4826137cd565b810181811067ffffffffffffffff82111715613c1357613c12613bbc565b5b80604052505050565b6000613c266136af565b9050613c328282613beb565b919050565b600067ffffffffffffffff821115613c5257613c51613bbc565b5b613c5b826137cd565b9050602081019050919050565b82818337600083830152505050565b6000613c8a613c8584613c37565b613c1c565b905082815260208101848484011115613ca657613ca5613bb7565b5b613cb1848285613c68565b509392505050565b600082601f830112613cce57613ccd613bb2565b5b8135613cde848260208601613c77565b91505092915050565b60008060008060808587031215613d0157613d006136b9565b5b6000613d0f8782880161390f565b9450506020613d208782880161390f565b9350506040613d318782880161385a565b925050606085013567ffffffffffffffff811115613d5257613d516136be565b5b613d5e87828801613cb9565b91505092959194509250565b60008060408385031215613d8157613d806136b9565b5b6000613d8f8582860161390f565b9250506020613da08582860161390f565b9150509250929050565b7f4e487b7100000000000000000000000000000000000000000000000000000000600052602260045260246000fd5b60006002820490506001821680613df157607f821691505b60208210811415613e0557613e04613daa565b5b50919050565b7f4552433732313a20617070726f76656420717565727920666f72206e6f6e657860008201527f697374656e7420746f6b656e0000000000000000000000000000000000000000602082015250565b6000613e67602c83613789565b9150613e7282613e0b565b604082019050919050565b60006020820190508181036000830152613e9681613e5a565b9050919050565b7f4552433732313a20617070726f76616c20746f2063757272656e74206f776e6560008201527f7200000000000000000000000000000000000000000000000000000000000000602082015250565b6000613ef9602183613789565b9150613f0482613e9d565b604082019050919050565b60006020820190508181036000830152613f2881613eec565b9050919050565b7f4552433732313a20617070726f76652063616c6c6572206973206e6f74206f7760008201527f6e6572206e6f7220617070726f76656420666f7220616c6c0000000000000000602082015250565b6000613f8b603883613789565b9150613f9682613f2f565b604082019050919050565b60006020820190508181036000830152613fba81613f7e565b9050919050565b7f4e6f206d6f7265204e4654732063616e206265206d696e746564210000000000600082015250565b6000613ff7601b83613789565b915061400282613fc1565b602082019050919050565b6000602082019050818103600083015261402681613fea565b9050919050565b7f4e6f7420656e6f756768204d4154494320706169640000000000000000000000600082015250565b6000614063601583613789565b915061406e8261402d565b602082019050919050565b6000602082019050818103600083015261409281614056565b9050919050565b7f4e6f206d6f7265204e4654732063616e206265206d696e74656420776974682060008201527f746869732077616c6c6574000000000000000000000000000000000000000000602082015250565b60006140f5602b83613789565b915061410082614099565b604082019050919050565b60006020820190508181036000830152614124816140e8565b9050919050565b7f4e487b7100000000000000000000000000000000000000000000000000000000600052601260045260246000fd5b7f4e487b7100000000000000000000000000000000000000000000000000000000600052601160045260246000fd5b600061419482613839565b915061419f83613839565b9250826141af576141ae61412b565b5b828204905092915050565b60006141c582613839565b91506141d083613839565b9250826141e0576141df61412b565b5b828206905092915050565b600081905092915050565b60006142018261377e565b61420b81856141eb565b935061421b81856020860161379a565b80840191505092915050565b7f2028000000000000000000000000000000000000000000000000000000000000600082015250565b600061425d6002836141eb565b915061426882614227565b600282019050919050565b7f2c20000000000000000000000000000000000000000000000000000000000000600082015250565b60006142a96002836141eb565b91506142b482614273565b600282019050919050565b7f2900000000000000000000000000000000000000000000000000000000000000600082015250565b60006142f56001836141eb565b9150614300826142bf565b600182019050919050565b600061431782866141f6565b915061432282614250565b915061432e82856141f6565b91506143398261429c565b915061434582846141f6565b9150614350826142e8565b9150819050949350505050565b7f7b226e616d65223a202200000000000000000000000000000000000000000000600082015250565b6000614393600a836141eb565b915061439e8261435d565b600a82019050919050565b7f222c20226465736372697074696f6e223a20224920616d20726f6f74696e672060008201527f666f7220446567656e4a61636b21222c20000000000000000000000000000000602082015250565b60006144056031836141eb565b9150614410826143a9565b603182019050919050565b7f22696d616765223a2022697066733a2f2f516d6162614c4d6d3246547a7a465460008201527f5152743131614b72484663566164475a45576235726475766e6b4a654b344e2260208201527f7d00000000000000000000000000000000000000000000000000000000000000604082015250565b600061449d6041836141eb565b91506144a88261441b565b604182019050919050565b60006144be82614386565b91506144ca82846141f6565b91506144d5826143f8565b91506144e082614490565b915081905092915050565b7f646174613a6170706c69636174696f6e2f6a736f6e3b6261736536342c000000600082015250565b6000614521601d836141eb565b915061452c826144eb565b601d82019050919050565b600061454282614514565b915061454e82846141f6565b915081905092915050565b600061456482613839565b915061456f83613839565b9250827fffffffffffffffffffffffffffffffffffffffffffffffffffffffffffffffff038211156145a4576145a361415a565b5b828201905092915050565b60006040820190506145c460008301856138ce565b6145d16020830184613b1c565b9392505050565b7f4552433732313a207472616e736665722063616c6c6572206973206e6f74206f60008201527f776e6572206e6f7220617070726f766564000000000000000000000000000000602082015250565b6000614634603183613789565b915061463f826145d8565b604082019050919050565b6000602082019050818103600083015261466381614627565b9050919050565b7f416363657373436f6e74726f6c3a2063616e206f6e6c792072656e6f756e636560008201527f20726f6c657320666f722073656c660000000000000000000000000000000000602082015250565b60006146c6602f83613789565b91506146d18261466a565b604082019050919050565b600060208201905081810360008301526146f5816146b9565b9050919050565b7f4552433732313a206f776e657220717565727920666f72206e6f6e657869737460008201527f656e7420746f6b656e0000000000000000000000000000000000000000000000602082015250565b6000614758602983613789565b9150614763826146fc565b604082019050919050565b600060208201905081810360008301526147878161474b565b9050919050565b7f4552433732313a2062616c616e636520717565727920666f7220746865207a6560008201527f726f206164647265737300000000000000000000000000000000000000000000602082015250565b60006147ea602a83613789565b91506147f58261478e565b604082019050919050565b60006020820190508181036000830152614819816147dd565b9050919050565b7f4f776e61626c653a2063616c6c6572206973206e6f7420746865206f776e6572600082015250565b6000614856602083613789565b915061486182614820565b602082019050919050565b6000602082019050818103600083015261488581614849565b9050919050565b7f47616d6520636f6e747261637420616464726573732073686f756c642062652060008201527f7365740000000000000000000000000000000000000000000000000000000000602082015250565b60006148e8602383613789565b91506148f38261488c565b604082019050919050565b60006020820190508181036000830152614917816148db565b9050919050565b600061492982613839565b915061493483613839565b9250828210156149475761494661415a565b5b828203905092915050565b7f546f74616c207061796f757420616d6f756e74206c657373207468616e203000600082015250565b6000614988601f83613789565b915061499382614952565b602082019050919050565b600060208201905081810360008301526149b78161497b565b9050919050565b7f4e487b7100000000000000000000000000000000000000000000000000000000600052603260045260246000fd5b600081905092915050565b7f53656e64696e67207061796f757420746f20737570706f727465720000000000600082015250565b6000614a2e601b836149ed565b9150614a39826149f8565b601b82019050919050565b6000614a4f82614a21565b9150819050919050565b7f5061796f7574206661696c656400000000000000000000000000000000000000600082015250565b6000614a8f600d83613789565b9150614a9a82614a59565b602082019050919050565b60006020820190508181036000830152614abe81614a82565b9050919050565b6000614ad082613839565b91507fffffffffffffffffffffffffffffffffffffffffffffffffffffffffffffffff821415614b0357614b0261415a565b5b600182019050919050565b7f547279696e6720746f2066756e64206d6f7265207468616e207468652072657360008201527f6572766500000000000000000000000000000000000000000000000000000000602082015250565b6000614b6a602483613789565b9150614b7582614b0e565b604082019050919050565b60006020820190508181036000830152614b9981614b5d565b9050919050565b600081519050614baf81613b46565b92915050565b600060208284031215614bcb57614bca6136b9565b5b6000614bd984828501614ba0565b91505092915050565b7f47616d652066756e64206661696c656400000000000000000000000000000000600082015250565b6000614c18601083613789565b9150614c2382614be2565b602082019050919050565b60006020820190508181036000830152614c4781614c0b565b9050919050565b7f45524337323155524953746f726167653a2055524920717565727920666f722060008201527f6e6f6e6578697374656e7420746f6b656e000000000000000000000000000000602082015250565b6000614caa603183613789565b9150614cb582614c4e565b604082019050919050565b60006020820190508181036000830152614cd981614c9d565b9050919050565b6000614cec82856141f6565b9150614cf882846141f6565b91508190509392505050565b7f4f776e61626c653a206e6577206f776e657220697320746865207a65726f206160008201527f6464726573730000000000000000000000000000000000000000000000000000602082015250565b6000614d60602683613789565b9150614d6b82614d04565b604082019050919050565b60006020820190508181036000830152614d8f81614d53565b9050919050565b6000614da182613839565b9150614dac83613839565b9250817fffffffffffffffffffffffffffffffffffffffffffffffffffffffffffffffff0483118215151615614de557614de461415a565b5b828202905092915050565b7f45524337323155524953746f726167653a2055524920736574206f66206e6f6e60008201527f6578697374656e7420746f6b656e000000000000000000000000000000000000602082015250565b6000614e4c602e83613789565b9150614e5782614df0565b604082019050919050565b60006020820190508181036000830152614e7b81614e3f565b9050919050565b60006060820190508181036000830152614e9c81866137de565b9050614eab6020830185613b1c565b614eb860408301846138ce565b949350505050565b7f4552433732313a206f70657261746f7220717565727920666f72206e6f6e657860008201527f697374656e7420746f6b656e0000000000000000000000000000000000000000602082015250565b6000614f1c602c83613789565b9150614f2782614ec0565b604082019050919050565b60006020820190508181036000830152614f4b81614f0f565b9050919050565b7f4552433732313a207472616e736665722066726f6d20696e636f72726563742060008201527f6f776e6572000000000000000000000000000000000000000000000000000000602082015250565b6000614fae602583613789565b9150614fb982614f52565b604082019050919050565b60006020820190508181036000830152614fdd81614fa1565b9050919050565b7f4552433732313a207472616e7366657220746f20746865207a65726f2061646460008201527f7265737300000000000000000000000000000000000000000000000000000000602082015250565b6000615040602483613789565b915061504b82614fe4565b604082019050919050565b6000602082019050818103600083015261506f81615033565b9050919050565b7f4552433732313a20617070726f766520746f2063616c6c657200000000000000600082015250565b60006150ac601983613789565b91506150b782615076565b602082019050919050565b600060208201905081810360008301526150db8161509f565b9050919050565b7f4552433732313a207472616e7366657220746f206e6f6e20455243373231526560008201527f63656976657220696d706c656d656e7465720000000000000000000000000000602082015250565b600061513e603283613789565b9150615149826150e2565b604082019050919050565b6000602082019050818103600083015261516d81615131565b9050919050565b7f4552433732314d657461646174613a2055524920717565727920666f72206e6f60008201527f6e6578697374656e7420746f6b656e0000000000000000000000000000000000602082015250565b60006151d0602f83613789565b91506151db82615174565b604082019050919050565b600060208201905081810360008301526151ff816151c3565b9050919050565b7f416363657373436f6e74726f6c3a206163636f756e7420000000000000000000600082015250565b600061523c6017836141eb565b915061524782615206565b601782019050919050565b7f206973206d697373696e6720726f6c6520000000000000000000000000000000600082015250565b60006152886011836141eb565b915061529382615252565b601182019050919050565b60006152a98261522f565b91506152b582856141f6565b91506152c08261527b565b91506152cc82846141f6565b91508190509392505050565b600081519050919050565b600082825260208201905092915050565b60006152ff826152d8565b61530981856152e3565b935061531981856020860161379a565b615322816137cd565b840191505092915050565b600060808201905061534260008301876138ce565b61534f60208301866138ce565b61535c6040830185613b1c565b818103606083015261536e81846152f4565b905095945050505050565b600081519050615388816136ef565b92915050565b6000602082840312156153a4576153a36136b9565b5b60006153b284828501615379565b91505092915050565b7f4552433732313a206d696e7420746f20746865207a65726f2061646472657373600082015250565b60006153f1602083613789565b91506153fc826153bb565b602082019050919050565b60006020820190508181036000830152615420816153e4565b9050919050565b7f4552433732313a20746f6b656e20616c7265616479206d696e74656400000000600082015250565b600061545d601c83613789565b915061546882615427565b602082019050919050565b6000602082019050818103600083015261548c81615450565b9050919050565b600061549e82613839565b915060008214156154b2576154b161415a565b5b600182039050919050565b7f537472696e67733a20686578206c656e67746820696e73756666696369656e74600082015250565b60006154f3602083613789565b91506154fe826154bd565b602082019050919050565b60006020820190508181036000830152615522816154e6565b905091905056fe416e204e465420772f20494420257320686173206265656e206d696e74656420746f2025734142434445464748494a4b4c4d4e4f505152535455565758595a6162636465666768696a6b6c6d6e6f707172737475767778797a303132333435363738392b2fa2646970667358221220ca61e46813225808173b677f9bbdf48e0b2f7d1f9b05e8af27a6523f1b0126e664736f6c634300080a0033",
    "linkReferences": {},
    "deployedLinkReferences": {}
}