{
    "_format": "hh-sol-artifact-1",
    "contractName": "HilowSupporterNFT",
    "sourceName": "contracts/HilowNFT.sol",
    "abi": [
        {
            "inputs": [],
            "stateMutability": "nonpayable",
            "type": "constructor"
        },
        {
            "anonymous": false,
            "inputs": [
                {
                    "indexed": true,
                    "internalType": "address",
                    "name": "owner",
                    "type": "address"
                },
                {
                    "indexed": true,
                    "internalType": "address",
                    "name": "approved",
                    "type": "address"
                },
                {
                    "indexed": true,
                    "internalType": "uint256",
                    "name": "tokenId",
                    "type": "uint256"
                }
            ],
            "name": "Approval",
            "type": "event"
        },
        {
            "anonymous": false,
            "inputs": [
                {
                    "indexed": true,
                    "internalType": "address",
                    "name": "owner",
                    "type": "address"
                },
                {
                    "indexed": true,
                    "internalType": "address",
                    "name": "operator",
                    "type": "address"
                },
                {
                    "indexed": false,
                    "internalType": "bool",
                    "name": "approved",
                    "type": "bool"
                }
            ],
            "name": "ApprovalForAll",
            "type": "event"
        },
        {
            "anonymous": false,
            "inputs": [
                {
                    "indexed": false,
                    "internalType": "address",
                    "name": "owner",
                    "type": "address"
                },
                {
                    "indexed": false,
                    "internalType": "uint256",
                    "name": "tokenId",
                    "type": "uint256"
                }
            ],
            "name": "NFTMinted",
            "type": "event"
        },
        {
            "anonymous": false,
            "inputs": [
                {
                    "indexed": true,
                    "internalType": "address",
                    "name": "previousOwner",
                    "type": "address"
                },
                {
                    "indexed": true,
                    "internalType": "address",
                    "name": "newOwner",
                    "type": "address"
                }
            ],
            "name": "OwnershipTransferred",
            "type": "event"
        },
        {
            "anonymous": false,
            "inputs": [
                {
                    "indexed": true,
                    "internalType": "bytes32",
                    "name": "role",
                    "type": "bytes32"
                },
                {
                    "indexed": true,
                    "internalType": "bytes32",
                    "name": "previousAdminRole",
                    "type": "bytes32"
                },
                {
                    "indexed": true,
                    "internalType": "bytes32",
                    "name": "newAdminRole",
                    "type": "bytes32"
                }
            ],
            "name": "RoleAdminChanged",
            "type": "event"
        },
        {
            "anonymous": false,
            "inputs": [
                {
                    "indexed": true,
                    "internalType": "bytes32",
                    "name": "role",
                    "type": "bytes32"
                },
                {
                    "indexed": true,
                    "internalType": "address",
                    "name": "account",
                    "type": "address"
                },
                {
                    "indexed": true,
                    "internalType": "address",
                    "name": "sender",
                    "type": "address"
                }
            ],
            "name": "RoleGranted",
            "type": "event"
        },
        {
            "anonymous": false,
            "inputs": [
                {
                    "indexed": true,
                    "internalType": "bytes32",
                    "name": "role",
                    "type": "bytes32"
                },
                {
                    "indexed": true,
                    "internalType": "address",
                    "name": "account",
                    "type": "address"
                },
                {
                    "indexed": true,
                    "internalType": "address",
                    "name": "sender",
                    "type": "address"
                }
            ],
            "name": "RoleRevoked",
            "type": "event"
        },
        {
            "anonymous": false,
            "inputs": [
                {
                    "indexed": true,
                    "internalType": "address",
                    "name": "from",
                    "type": "address"
                },
                {
                    "indexed": true,
                    "internalType": "address",
                    "name": "to",
                    "type": "address"
                },
                {
                    "indexed": true,
                    "internalType": "uint256",
                    "name": "tokenId",
                    "type": "uint256"
                }
            ],
            "name": "Transfer",
            "type": "event"
        },
        {
            "inputs": [],
            "name": "DEFAULT_ADMIN_ROLE",
            "outputs": [
                {
                    "internalType": "bytes32",
                    "name": "",
                    "type": "bytes32"
                }
            ],
            "stateMutability": "view",
            "type": "function"
        },
        {
            "inputs": [],
            "name": "FUND_GAME_ROLE",
            "outputs": [
                {
                    "internalType": "bytes32",
                    "name": "",
                    "type": "bytes32"
                }
            ],
            "stateMutability": "view",
            "type": "function"
        },
        {
            "inputs": [],
            "name": "PAYOUT_TRIGGER_ROLE",
            "outputs": [
                {
                    "internalType": "bytes32",
                    "name": "",
                    "type": "bytes32"
                }
            ],
            "stateMutability": "view",
            "type": "function"
        },
        {
            "inputs": [
                {
                    "internalType": "address",
                    "name": "to",
                    "type": "address"
                },
                {
                    "internalType": "uint256",
                    "name": "tokenId",
                    "type": "uint256"
                }
            ],
            "name": "approve",
            "outputs": [],
            "stateMutability": "nonpayable",
            "type": "function"
        },
        {
            "inputs": [
                {
                    "internalType": "address",
                    "name": "owner",
                    "type": "address"
                }
            ],
            "name": "balanceOf",
            "outputs": [
                {
                    "internalType": "uint256",
                    "name": "",
                    "type": "uint256"
                }
            ],
            "stateMutability": "view",
            "type": "function"
        },
        {
            "inputs": [
                {
                    "internalType": "uint256",
                    "name": "fundAmount",
                    "type": "uint256"
                }
            ],
            "name": "deployGameFund",
            "outputs": [],
            "stateMutability": "nonpayable",
            "type": "function"
        },
        {
            "inputs": [
                {
                    "internalType": "uint256",
                    "name": "tokenId",
                    "type": "uint256"
                }
            ],
            "name": "getApproved",
            "outputs": [
                {
                    "internalType": "address",
                    "name": "",
                    "type": "address"
                }
            ],
            "stateMutability": "view",
            "type": "function"
        },
        {
            "inputs": [],
            "name": "getGameFundReserve",
            "outputs": [
                {
                    "internalType": "uint256",
                    "name": "",
                    "type": "uint256"
                }
            ],
            "stateMutability": "view",
            "type": "function"
        },
        {
            "inputs": [],
            "name": "getMintedCount",
            "outputs": [
                {
                    "internalType": "uint256",
                    "name": "",
                    "type": "uint256"
                }
            ],
            "stateMutability": "view",
            "type": "function"
        },
        {
            "inputs": [
                {
                    "internalType": "bytes32",
                    "name": "role",
                    "type": "bytes32"
                }
            ],
            "name": "getRoleAdmin",
            "outputs": [
                {
                    "internalType": "bytes32",
                    "name": "",
                    "type": "bytes32"
                }
            ],
            "stateMutability": "view",
            "type": "function"
        },
        {
            "inputs": [
                {
                    "internalType": "address",
                    "name": "account",
                    "type": "address"
                }
            ],
            "name": "grantAdminRoleToAddress",
            "outputs": [],
            "stateMutability": "nonpayable",
            "type": "function"
        },
        {
            "inputs": [
                {
                    "internalType": "address",
                    "name": "account",
                    "type": "address"
                }
            ],
            "name": "grantFundGameRoleToAddress",
            "outputs": [],
            "stateMutability": "nonpayable",
            "type": "function"
        },
        {
            "inputs": [
                {
                    "internalType": "bytes32",
                    "name": "role",
                    "type": "bytes32"
                },
                {
                    "internalType": "address",
                    "name": "account",
                    "type": "address"
                }
            ],
            "name": "grantRole",
            "outputs": [],
            "stateMutability": "nonpayable",
            "type": "function"
        },
        {
            "inputs": [
                {
                    "internalType": "address",
                    "name": "account",
                    "type": "address"
                }
            ],
            "name": "grantTriggerPayoutRoleToAddress",
            "outputs": [],
            "stateMutability": "nonpayable",
            "type": "function"
        },
        {
            "inputs": [
                {
                    "internalType": "bytes32",
                    "name": "role",
                    "type": "bytes32"
                },
                {
                    "internalType": "address",
                    "name": "account",
                    "type": "address"
                }
            ],
            "name": "hasRole",
            "outputs": [
                {
                    "internalType": "bool",
                    "name": "",
                    "type": "bool"
                }
            ],
            "stateMutability": "view",
            "type": "function"
        },
        {
            "inputs": [
                {
                    "internalType": "address",
                    "name": "owner",
                    "type": "address"
                },
                {
                    "internalType": "address",
                    "name": "operator",
                    "type": "address"
                }
            ],
            "name": "isApprovedForAll",
            "outputs": [
                {
                    "internalType": "bool",
                    "name": "",
                    "type": "bool"
                }
            ],
            "stateMutability": "view",
            "type": "function"
        },
        {
            "inputs": [],
            "name": "mint",
            "outputs": [],
            "stateMutability": "payable",
            "type": "function"
        },
        {
            "inputs": [],
            "name": "name",
            "outputs": [
                {
                    "internalType": "string",
                    "name": "",
                    "type": "string"
                }
            ],
            "stateMutability": "view",
            "type": "function"
        },
        {
            "inputs": [],
            "name": "owner",
            "outputs": [
                {
                    "internalType": "address",
                    "name": "",
                    "type": "address"
                }
            ],
            "stateMutability": "view",
            "type": "function"
        },
        {
            "inputs": [
                {
                    "internalType": "uint256",
                    "name": "tokenId",
                    "type": "uint256"
                }
            ],
            "name": "ownerOf",
            "outputs": [
                {
                    "internalType": "address",
                    "name": "",
                    "type": "address"
                }
            ],
            "stateMutability": "view",
            "type": "function"
        },
        {
            "inputs": [],
            "name": "payoutSupporters",
            "outputs": [],
            "stateMutability": "nonpayable",
            "type": "function"
        },
        {
            "inputs": [],
            "name": "renounceOwnership",
            "outputs": [],
            "stateMutability": "nonpayable",
            "type": "function"
        },
        {
            "inputs": [
                {
                    "internalType": "bytes32",
                    "name": "role",
                    "type": "bytes32"
                },
                {
                    "internalType": "address",
                    "name": "account",
                    "type": "address"
                }
            ],
            "name": "renounceRole",
            "outputs": [],
            "stateMutability": "nonpayable",
            "type": "function"
        },
        {
            "inputs": [
                {
                    "internalType": "bytes32",
                    "name": "role",
                    "type": "bytes32"
                },
                {
                    "internalType": "address",
                    "name": "account",
                    "type": "address"
                }
            ],
            "name": "revokeRole",
            "outputs": [],
            "stateMutability": "nonpayable",
            "type": "function"
        },
        {
            "inputs": [
                {
                    "internalType": "address",
                    "name": "from",
                    "type": "address"
                },
                {
                    "internalType": "address",
                    "name": "to",
                    "type": "address"
                },
                {
                    "internalType": "uint256",
                    "name": "tokenId",
                    "type": "uint256"
                }
            ],
            "name": "safeTransferFrom",
            "outputs": [],
            "stateMutability": "nonpayable",
            "type": "function"
        },
        {
            "inputs": [
                {
                    "internalType": "address",
                    "name": "from",
                    "type": "address"
                },
                {
                    "internalType": "address",
                    "name": "to",
                    "type": "address"
                },
                {
                    "internalType": "uint256",
                    "name": "tokenId",
                    "type": "uint256"
                },
                {
                    "internalType": "bytes",
                    "name": "_data",
                    "type": "bytes"
                }
            ],
            "name": "safeTransferFrom",
            "outputs": [],
            "stateMutability": "nonpayable",
            "type": "function"
        },
        {
            "inputs": [],
            "name": "sendFunds",
            "outputs": [
                {
                    "internalType": "bool",
                    "name": "",
                    "type": "bool"
                }
            ],
            "stateMutability": "payable",
            "type": "function"
        },
        {
            "inputs": [
                {
                    "internalType": "address",
                    "name": "operator",
                    "type": "address"
                },
                {
                    "internalType": "bool",
                    "name": "approved",
                    "type": "bool"
                }
            ],
            "name": "setApprovalForAll",
            "outputs": [],
            "stateMutability": "nonpayable",
            "type": "function"
        },
        {
            "inputs": [
                {
                    "internalType": "address payable",
                    "name": "_address",
                    "type": "address"
                }
            ],
            "name": "setGameContract",
            "outputs": [],
            "stateMutability": "nonpayable",
            "type": "function"
        },
        {
            "inputs": [
                {
                    "internalType": "bytes4",
                    "name": "interfaceId",
                    "type": "bytes4"
                }
            ],
            "name": "supportsInterface",
            "outputs": [
                {
                    "internalType": "bool",
                    "name": "",
                    "type": "bool"
                }
            ],
            "stateMutability": "view",
            "type": "function"
        },
        {
            "inputs": [],
            "name": "symbol",
            "outputs": [
                {
                    "internalType": "string",
                    "name": "",
                    "type": "string"
                }
            ],
            "stateMutability": "view",
            "type": "function"
        },
        {
            "inputs": [
                {
                    "internalType": "uint256",
                    "name": "tokenId",
                    "type": "uint256"
                }
            ],
            "name": "tokenURI",
            "outputs": [
                {
                    "internalType": "string",
                    "name": "",
                    "type": "string"
                }
            ],
            "stateMutability": "view",
            "type": "function"
        },
        {
            "inputs": [],
            "name": "totalSupply",
            "outputs": [
                {
                    "internalType": "uint256",
                    "name": "",
                    "type": "uint256"
                }
            ],
            "stateMutability": "view",
            "type": "function"
        },
        {
            "inputs": [
                {
                    "internalType": "address",
                    "name": "from",
                    "type": "address"
                },
                {
                    "internalType": "address",
                    "name": "to",
                    "type": "address"
                },
                {
                    "internalType": "uint256",
                    "name": "tokenId",
                    "type": "uint256"
                }
            ],
            "name": "transferFrom",
            "outputs": [],
            "stateMutability": "nonpayable",
            "type": "function"
        },
        {
            "inputs": [
                {
                    "internalType": "address",
                    "name": "newOwner",
                    "type": "address"
                }
            ],
            "name": "transferOwnership",
            "outputs": [],
            "stateMutability": "nonpayable",
            "type": "function"
        },
        {
            "stateMutability": "payable",
            "type": "receive"
        }
    ],
    "bytecode": "0x60806040526102a4600c5566038d7ea4c68000600d556003600e553480156200002757600080fd5b506040518060400160405280601781526020017f446567656e4a61636b20537570706f72746572204e46540000000000000000008152506040518060400160405280600981526020017f444547454e4a41434b00000000000000000000000000000000000000000000008152508160009080519060200190620000ac92919062000628565b508060019080519060200190620000c592919062000628565b505050620000e8620000dc6200033160201b60201c565b6200033960201b60201c565b620001336040518060400160405280601881526020017f446567656e4a61636b20737570706f72746572204e4654210000000000000000815250620003ff60201b62001bf71760201c565b620001486000801b33620004a260201b60201c565b6200017a7f3e0866af285ebf0837e0b220bb5c2149d4506386d772a6ff2f6814661d91f3f033620004a260201b60201c565b620001ac7f699e1267cee77e96ba79f2208629ac73ad6a1f61777b63f8716e9643944511df33620004a260201b60201c565b6040518060400160405280600381526020017fe299a600000000000000000000000000000000000000000000000000000000008152506011600080815260200190815260200160002090805190602001906200020a92919062000628565b506040518060400160405280600381526020017fe299a00000000000000000000000000000000000000000000000000000000000815250601160006001815260200190815260200160002090805190602001906200026a92919062000628565b506040518060400160405280600381526020017fe299a5000000000000000000000000000000000000000000000000000000000081525060116000600281526020019081526020016000209080519060200190620002ca92919062000628565b506040518060400160405280600381526020017fe299a30000000000000000000000000000000000000000000000000000000000815250601160006003815260200190815260200160002090805190602001906200032a92919062000628565b5062000805565b600033905090565b6000600760009054906101000a900473ffffffffffffffffffffffffffffffffffffffff16905081600760006101000a81548173ffffffffffffffffffffffffffffffffffffffff021916908373ffffffffffffffffffffffffffffffffffffffff1602179055508173ffffffffffffffffffffffffffffffffffffffff168173ffffffffffffffffffffffffffffffffffffffff167f8be0079c531659141344cd1fd0a4f28419497f9722a3daafe3b4186f6b6457e060405160405180910390a35050565b6200049f816040516024016200041691906200077c565b6040516020818303038152906040527f41304fac000000000000000000000000000000000000000000000000000000007bffffffffffffffffffffffffffffffffffffffffffffffffffffffff19166020820180517bffffffffffffffffffffffffffffffffffffffffffffffffffffffff83818316178352505050506200059460201b60201c565b50565b620004b48282620005bd60201b60201c565b620005905760016008600084815260200190815260200160002060000160008373ffffffffffffffffffffffffffffffffffffffff1673ffffffffffffffffffffffffffffffffffffffff16815260200190815260200160002060006101000a81548160ff021916908315150217905550620005356200033160201b60201c565b73ffffffffffffffffffffffffffffffffffffffff168173ffffffffffffffffffffffffffffffffffffffff16837f2f8788117e7eff1d82e926ec794901d17c78024a50270940304540a733656f0d60405160405180910390a45b5050565b60008151905060006a636f6e736f6c652e6c6f679050602083016000808483855afa5050505050565b60006008600084815260200190815260200160002060000160008373ffffffffffffffffffffffffffffffffffffffff1673ffffffffffffffffffffffffffffffffffffffff16815260200190815260200160002060009054906101000a900460ff16905092915050565b8280546200063690620007cf565b90600052602060002090601f0160209004810192826200065a5760008555620006a6565b82601f106200067557805160ff1916838001178555620006a6565b82800160010185558215620006a6579182015b82811115620006a557825182559160200191906001019062000688565b5b509050620006b59190620006b9565b5090565b5b80821115620006d4576000816000905550600101620006ba565b5090565b600081519050919050565b600082825260208201905092915050565b60005b8381101562000714578082015181840152602081019050620006f7565b8381111562000724576000848401525b50505050565b6000601f19601f8301169050919050565b60006200074882620006d8565b620007548185620006e3565b935062000766818560208601620006f4565b62000771816200072a565b840191505092915050565b600060208201905081810360008301526200079881846200073b565b905092915050565b7f4e487b7100000000000000000000000000000000000000000000000000000000600052602260045260246000fd5b60006002820490506001821680620007e857607f821691505b60208210811415620007ff57620007fe620007a0565b5b50919050565b61560480620008156000396000f3fe6080604052600436106102085760003560e01c806370a0823111610118578063aa342b16116100a0578063c87b56dd1161006f578063c87b56dd1461071c578063d547741f14610759578063e985e9c514610782578063ebc9bd3b146107bf578063f2fde38b146107ea5761020f565b8063aa342b1614610678578063b88d4fde146106a1578063b93f112d146106ca578063c1dde69c146106f35761020f565b806391d14854116100e757806391d14854146105a557806395d89b41146105e2578063a217fddf1461060d578063a22cb46514610638578063a498c2d4146106615761020f565b806370a0823114610508578063715018a6146105455780638d68cf591461055c5780638da5cb5b1461057a5761020f565b80632505d47d1161019b5780633813e4991161016a5780633813e49914610423578063405ebd4d1461044e57806342842e0e146104775780634ef6b351146104a05780636352211e146104cb5761020f565b80632505d47d1461037d57806325585b7f146103a65780632f2ff15d146103d157806336568abe146103fa5761020f565b80631249c58b116101d75780631249c58b146102e257806318160ddd146102ec57806323b872dd14610317578063248a9ca3146103405761020f565b806301ffc9a71461021457806306fdde0314610251578063081812fc1461027c578063095ea7b3146102b95761020f565b3661020f57005b600080fd5b34801561022057600080fd5b5061023b6004803603810190610236919061375b565b610813565b60405161024891906137a3565b60405180910390f35b34801561025d57600080fd5b50610266610825565b6040516102739190613857565b60405180910390f35b34801561028857600080fd5b506102a3600480360381019061029e91906138af565b6108b7565b6040516102b0919061391d565b60405180910390f35b3480156102c557600080fd5b506102e060048036038101906102db9190613964565b61093c565b005b6102ea610a54565b005b3480156102f857600080fd5b50610301610e0e565b60405161030e91906139b3565b60405180910390f35b34801561032357600080fd5b5061033e600480360381019061033991906139ce565b610e18565b005b34801561034c57600080fd5b5061036760048036038101906103629190613a57565b610e78565b6040516103749190613a93565b60405180910390f35b34801561038957600080fd5b506103a4600480360381019061039f9190613aae565b610e98565b005b3480156103b257600080fd5b506103bb610ed3565b6040516103c89190613a93565b60405180910390f35b3480156103dd57600080fd5b506103f860048036038101906103f39190613adb565b610ef7565b005b34801561040657600080fd5b50610421600480360381019061041c9190613adb565b610f18565b005b34801561042f57600080fd5b50610438610f9b565b6040516104459190613a93565b60405180910390f35b34801561045a57600080fd5b5061047560048036038101906104709190613b59565b610fbf565b005b34801561048357600080fd5b5061049e600480360381019061049991906139ce565b611074565b005b3480156104ac57600080fd5b506104b5611094565b6040516104c291906139b3565b60405180910390f35b3480156104d757600080fd5b506104f260048036038101906104ed91906138af565b6110c9565b6040516104ff919061391d565b60405180910390f35b34801561051457600080fd5b5061052f600480360381019061052a9190613aae565b61117b565b60405161053c91906139b3565b60405180910390f35b34801561055157600080fd5b5061055a611233565b005b6105646112bb565b60405161057191906137a3565b60405180910390f35b34801561058657600080fd5b5061058f6112c4565b60405161059c919061391d565b60405180910390f35b3480156105b157600080fd5b506105cc60048036038101906105c79190613adb565b6112ee565b6040516105d991906137a3565b60405180910390f35b3480156105ee57600080fd5b506105f7611359565b6040516106049190613857565b60405180910390f35b34801561061957600080fd5b506106226113eb565b60405161062f9190613a93565b60405180910390f35b34801561064457600080fd5b5061065f600480360381019061065a9190613bb2565b6113f2565b005b34801561066d57600080fd5b50610676611408565b005b34801561068457600080fd5b5061069f600480360381019061069a91906138af565b61163d565b005b3480156106ad57600080fd5b506106c860048036038101906106c39190613d27565b611833565b005b3480156106d657600080fd5b506106f160048036038101906106ec9190613aae565b611895565b005b3480156106ff57600080fd5b5061071a60048036038101906107159190613aae565b6118b3565b005b34801561072857600080fd5b50610743600480360381019061073e91906138af565b6118ee565b6040516107509190613857565b60405180910390f35b34801561076557600080fd5b50610780600480360381019061077b9190613adb565b611a40565b005b34801561078e57600080fd5b506107a960048036038101906107a49190613daa565b611a61565b6040516107b691906137a3565b60405180910390f35b3480156107cb57600080fd5b506107d4611af5565b6040516107e191906139b3565b60405180910390f35b3480156107f657600080fd5b50610811600480360381019061080c9190613aae565b611aff565b005b600061081e82611c90565b9050919050565b60606000805461083490613e19565b80601f016020809104026020016040519081016040528092919081815260200182805461086090613e19565b80156108ad5780601f10610882576101008083540402835291602001916108ad565b820191906000526020600020905b81548152906001019060200180831161089057829003601f168201915b5050505050905090565b60006108c282611d0a565b610901576040517f08c379a00000000000000000000000000000000000000000000000000000000081526004016108f890613ebd565b60405180910390fd5b6004600083815260200190815260200160002060009054906101000a900473ffffffffffffffffffffffffffffffffffffffff169050919050565b6000610947826110c9565b90508073ffffffffffffffffffffffffffffffffffffffff168373ffffffffffffffffffffffffffffffffffffffff1614156109b8576040517f08c379a00000000000000000000000000000000000000000000000000000000081526004016109af90613f4f565b60405180910390fd5b8073ffffffffffffffffffffffffffffffffffffffff166109d7611d76565b73ffffffffffffffffffffffffffffffffffffffff161480610a065750610a0581610a00611d76565b611a61565b5b610a45576040517f08c379a0000000000000000000000000000000000000000000000000000000008152600401610a3c90613fe1565b60405180910390fd5b610a4f8383611d7e565b505050565b600c54600f5410610a9a576040517f08c379a0000000000000000000000000000000000000000000000000000000008152600401610a919061404d565b60405180910390fd5b600d54341015610adf576040517f08c379a0000000000000000000000000000000000000000000000000000000008152600401610ad6906140b9565b60405180910390fd5b600e54601260003373ffffffffffffffffffffffffffffffffffffffff1673ffffffffffffffffffffffffffffffffffffffff1681526020019081526020016000205410610b62576040517f08c379a0000000000000000000000000000000000000000000000000000000008152600401610b599061414b565b60405180910390fd5b6000610b6e600b611e37565b9050610b7a3382611e45565b60006011600060a984610b8d91906141c9565b81526020019081526020016000208054610ba690613e19565b80601f0160208091040260200160405190810160405280929190818152602001828054610bd290613e19565b8015610c1f5780601f10610bf457610100808354040283529160200191610c1f565b820191906000526020600020905b815481529060010190602001808311610c0257829003601f168201915b505050505090506000610c49600d60a985610c3a91906141fa565b610c4491906141c9565b611e63565b90506000610c6e600d60a986610c5f91906141fa565b610c6991906141fa565b611e63565b90506000838383604051602001610c879392919061434b565b60405160208183030381529060405290506000610cc282604051602001610cae91906144f3565b604051602081830303815290604052612192565b9050610ced8682604051602001610cd99190614577565b60405160208183030381529060405261230b565b610cf7600b61237f565b6001600f6000828254610d0a9190614599565b9250508190555060108690806001815401808255809150506001900390600052602060002001600090919091909150556001601260003373ffffffffffffffffffffffffffffffffffffffff1673ffffffffffffffffffffffffffffffffffffffff1681526020019081526020016000206000828254610d8a9190614599565b925050819055507f4cc0a9c4a99ddc700de1af2c9f916a7cbfdb71f14801ccff94061ad1ef8a80403387604051610dc29291906145ef565b60405180910390a1610ded60405180606001604052806025815260200161556a602591398733612395565b3460136000828254610dff9190614599565b92505081905550505050505050565b6000600f54905090565b610e29610e23611d76565b82612434565b610e68576040517f08c379a0000000000000000000000000000000000000000000000000000000008152600401610e5f9061468a565b60405180910390fd5b610e73838383612512565b505050565b600060086000838152602001908152602001600020600101549050919050565b6000801b610ea581612779565b610ecf7f3e0866af285ebf0837e0b220bb5c2149d4506386d772a6ff2f6814661d91f3f083610ef7565b5050565b7f699e1267cee77e96ba79f2208629ac73ad6a1f61777b63f8716e9643944511df81565b610f0082610e78565b610f0981612779565b610f13838361278d565b505050565b610f20611d76565b73ffffffffffffffffffffffffffffffffffffffff168173ffffffffffffffffffffffffffffffffffffffff1614610f8d576040517f08c379a0000000000000000000000000000000000000000000000000000000008152600401610f849061471c565b60405180910390fd5b610f97828261286e565b5050565b7f3e0866af285ebf0837e0b220bb5c2149d4506386d772a6ff2f6814661d91f3f081565b6000801b610fcc81612779565b81600960006101000a81548173ffffffffffffffffffffffffffffffffffffffff021916908373ffffffffffffffffffffffffffffffffffffffff160217905550600960009054906101000a900473ffffffffffffffffffffffffffffffffffffffff16600a60006101000a81548173ffffffffffffffffffffffffffffffffffffffff021916908373ffffffffffffffffffffffffffffffffffffffff1602179055505050565b61108f83838360405180602001604052806000815250611833565b505050565b60007f3e0866af285ebf0837e0b220bb5c2149d4506386d772a6ff2f6814661d91f3f06110c081612779565b60135491505090565b6000806002600084815260200190815260200160002060009054906101000a900473ffffffffffffffffffffffffffffffffffffffff169050600073ffffffffffffffffffffffffffffffffffffffff168173ffffffffffffffffffffffffffffffffffffffff161415611172576040517f08c379a0000000000000000000000000000000000000000000000000000000008152600401611169906147ae565b60405180910390fd5b80915050919050565b60008073ffffffffffffffffffffffffffffffffffffffff168273ffffffffffffffffffffffffffffffffffffffff1614156111ec576040517f08c379a00000000000000000000000000000000000000000000000000000000081526004016111e390614840565b60405180910390fd5b600360008373ffffffffffffffffffffffffffffffffffffffff1673ffffffffffffffffffffffffffffffffffffffff168152602001908152602001600020549050919050565b61123b611d76565b73ffffffffffffffffffffffffffffffffffffffff166112596112c4565b73ffffffffffffffffffffffffffffffffffffffff16146112af576040517f08c379a00000000000000000000000000000000000000000000000000000000081526004016112a6906148ac565b60405180910390fd5b6112b96000612950565b565b60006001905090565b6000600760009054906101000a900473ffffffffffffffffffffffffffffffffffffffff16905090565b60006008600084815260200190815260200160002060000160008373ffffffffffffffffffffffffffffffffffffffff1673ffffffffffffffffffffffffffffffffffffffff16815260200190815260200160002060009054906101000a900460ff16905092915050565b60606001805461136890613e19565b80601f016020809104026020016040519081016040528092919081815260200182805461139490613e19565b80156113e15780601f106113b6576101008083540402835291602001916113e1565b820191906000526020600020905b8154815290600101906020018083116113c457829003601f168201915b5050505050905090565b6000801b81565b6114046113fd611d76565b8383612a16565b5050565b600073ffffffffffffffffffffffffffffffffffffffff16600960009054906101000a900473ffffffffffffffffffffffffffffffffffffffff1673ffffffffffffffffffffffffffffffffffffffff16141561149a576040517f08c379a00000000000000000000000000000000000000000000000000000000081526004016114919061493e565b60405180910390fd5b6000601354476114aa919061495e565b905060006114ba82600c54612b83565b90506000808311611500576040517f08c379a00000000000000000000000000000000000000000000000000000000081526004016114f7906149de565b60405180910390fd5b60005b60108054905081101561161357600060108281548110611526576115256149fe565b5b90600052602060002001549050600061153e826110c9565b90506000808273ffffffffffffffffffffffffffffffffffffffff168760405161156790614a84565b60006040518083038185875af1925050503d80600081146115a4576040519150601f19603f3d011682016040523d82523d6000602084013e6115a9565b606091505b5091509150816115ee576040517f08c379a00000000000000000000000000000000000000000000000000000000081526004016115e590614ae5565b60405180910390fd5b86866115fa9190614599565b955050505050808061160b90614b05565b915050611503565b508083611620919061495e565b601360008282546116319190614599565b92505081905550505050565b7f3e0866af285ebf0837e0b220bb5c2149d4506386d772a6ff2f6814661d91f3f061166781612779565b600073ffffffffffffffffffffffffffffffffffffffff16600960009054906101000a900473ffffffffffffffffffffffffffffffffffffffff1673ffffffffffffffffffffffffffffffffffffffff1614156116f9576040517f08c379a00000000000000000000000000000000000000000000000000000000081526004016116f09061493e565b60405180910390fd5b601354821061173d576040517f08c379a000000000000000000000000000000000000000000000000000000000815260040161173490614bc0565b60405180910390fd5b6000600a60009054906101000a900473ffffffffffffffffffffffffffffffffffffffff1673ffffffffffffffffffffffffffffffffffffffff16638d68cf59846040518263ffffffff1660e01b815260040160206040518083038185885af11580156117ae573d6000803e3d6000fd5b50505050506040513d601f19601f820116820180604052508101906117d39190614bf5565b905080611815576040517f08c379a000000000000000000000000000000000000000000000000000000000815260040161180c90614c6e565b60405180910390fd5b8260136000828254611827919061495e565b92505081905550505050565b61184461183e611d76565b83612434565b611883576040517f08c379a000000000000000000000000000000000000000000000000000000000815260040161187a9061468a565b60405180910390fd5b61188f84848484612b99565b50505050565b6000801b6118a281612779565b6118af6000801b83610ef7565b5050565b6000801b6118c081612779565b6118ea7f699e1267cee77e96ba79f2208629ac73ad6a1f61777b63f8716e9643944511df83610ef7565b5050565b60606118f982611d0a565b611938576040517f08c379a000000000000000000000000000000000000000000000000000000000815260040161192f90614d00565b60405180910390fd5b600060066000848152602001908152602001600020805461195890613e19565b80601f016020809104026020016040519081016040528092919081815260200182805461198490613e19565b80156119d15780601f106119a6576101008083540402835291602001916119d1565b820191906000526020600020905b8154815290600101906020018083116119b457829003601f168201915b5050505050905060006119e2612bf5565b90506000815114156119f8578192505050611a3b565b600082511115611a2d578082604051602001611a15929190614d20565b60405160208183030381529060405292505050611a3b565b611a3684612c0c565b925050505b919050565b611a4982610e78565b611a5281612779565b611a5c838361286e565b505050565b6000600560008473ffffffffffffffffffffffffffffffffffffffff1673ffffffffffffffffffffffffffffffffffffffff16815260200190815260200160002060008373ffffffffffffffffffffffffffffffffffffffff1673ffffffffffffffffffffffffffffffffffffffff16815260200190815260200160002060009054906101000a900460ff16905092915050565b6000600f54905090565b611b07611d76565b73ffffffffffffffffffffffffffffffffffffffff16611b256112c4565b73ffffffffffffffffffffffffffffffffffffffff1614611b7b576040517f08c379a0000000000000000000000000000000000000000000000000000000008152600401611b72906148ac565b60405180910390fd5b600073ffffffffffffffffffffffffffffffffffffffff168173ffffffffffffffffffffffffffffffffffffffff161415611beb576040517f08c379a0000000000000000000000000000000000000000000000000000000008152600401611be290614db6565b60405180910390fd5b611bf481612950565b50565b611c8d81604051602401611c0b9190613857565b6040516020818303038152906040527f41304fac000000000000000000000000000000000000000000000000000000007bffffffffffffffffffffffffffffffffffffffffffffffffffffffff19166020820180517bffffffffffffffffffffffffffffffffffffffffffffffffffffffff8381831617835250505050612cb3565b50565b60007f7965db0b000000000000000000000000000000000000000000000000000000007bffffffffffffffffffffffffffffffffffffffffffffffffffffffff1916827bffffffffffffffffffffffffffffffffffffffffffffffffffffffff19161480611d035750611d0282612cdc565b5b9050919050565b60008073ffffffffffffffffffffffffffffffffffffffff166002600084815260200190815260200160002060009054906101000a900473ffffffffffffffffffffffffffffffffffffffff1673ffffffffffffffffffffffffffffffffffffffff1614159050919050565b600033905090565b816004600083815260200190815260200160002060006101000a81548173ffffffffffffffffffffffffffffffffffffffff021916908373ffffffffffffffffffffffffffffffffffffffff160217905550808273ffffffffffffffffffffffffffffffffffffffff16611df1836110c9565b73ffffffffffffffffffffffffffffffffffffffff167f8c5be1e5ebec7d5bd14f71427d1e84f3dd0314c0f7b2291e5b200ac8c7c3b92560405160405180910390a45050565b600081600001549050919050565b611e5f828260405180602001604052806000815250612dbe565b5050565b60606000604051806101a001604052806040518060400160405280600181526020017f410000000000000000000000000000000000000000000000000000000000000081525081526020016040518060400160405280600181526020017f320000000000000000000000000000000000000000000000000000000000000081525081526020016040518060400160405280600181526020017f330000000000000000000000000000000000000000000000000000000000000081525081526020016040518060400160405280600181526020017f340000000000000000000000000000000000000000000000000000000000000081525081526020016040518060400160405280600181526020017f350000000000000000000000000000000000000000000000000000000000000081525081526020016040518060400160405280600181526020017f360000000000000000000000000000000000000000000000000000000000000081525081526020016040518060400160405280600181526020017f370000000000000000000000000000000000000000000000000000000000000081525081526020016040518060400160405280600181526020017f380000000000000000000000000000000000000000000000000000000000000081525081526020016040518060400160405280600181526020017f390000000000000000000000000000000000000000000000000000000000000081525081526020016040518060400160405280600281526020017f313000000000000000000000000000000000000000000000000000000000000081525081526020016040518060400160405280600181526020017f4a0000000000000000000000000000000000000000000000000000000000000081525081526020016040518060400160405280600181526020017f510000000000000000000000000000000000000000000000000000000000000081525081526020016040518060400160405280600181526020017f4b0000000000000000000000000000000000000000000000000000000000000081525081525090508083600d8110612185576121846149fe565b5b6020020151915050919050565b60606000825114156121b557604051806020016040528060008152509050612306565b600060405180606001604052806040815260200161558f60409139905060006003600285516121e49190614599565b6121ee91906141c9565b60046121fa9190614dd6565b9050600060208261220b9190614599565b67ffffffffffffffff81111561222457612223613bfc565b5b6040519080825280601f01601f1916602001820160405280156122565781602001600182028036833780820191505090505b509050818152600183018586518101602084015b818310156122c5576003830192508251603f8160121c168501518253600182019150603f81600c1c168501518253600182019150603f8160061c168501518253600182019150603f811685015182536001820191505061226a565b6003895106600181146122df57600281146122ef576122fa565b613d3d60f01b60028303526122fa565b603d60f81b60018303525b50505050508093505050505b919050565b61231482611d0a565b612353576040517f08c379a000000000000000000000000000000000000000000000000000000000815260040161234a90614ea2565b60405180910390fd5b8060066000848152602001908152602001600020908051906020019061237a92919061364c565b505050565b6001816000016000828254019250508190555050565b61242f8383836040516024016123ad93929190614ec2565b6040516020818303038152906040527fe3849f79000000000000000000000000000000000000000000000000000000007bffffffffffffffffffffffffffffffffffffffffffffffffffffffff19166020820180517bffffffffffffffffffffffffffffffffffffffffffffffffffffffff8381831617835250505050612cb3565b505050565b600061243f82611d0a565b61247e576040517f08c379a000000000000000000000000000000000000000000000000000000000815260040161247590614f72565b60405180910390fd5b6000612489836110c9565b90508073ffffffffffffffffffffffffffffffffffffffff168473ffffffffffffffffffffffffffffffffffffffff1614806124cb57506124ca8185611a61565b5b8061250957508373ffffffffffffffffffffffffffffffffffffffff166124f1846108b7565b73ffffffffffffffffffffffffffffffffffffffff16145b91505092915050565b8273ffffffffffffffffffffffffffffffffffffffff16612532826110c9565b73ffffffffffffffffffffffffffffffffffffffff1614612588576040517f08c379a000000000000000000000000000000000000000000000000000000000815260040161257f90615004565b60405180910390fd5b600073ffffffffffffffffffffffffffffffffffffffff168273ffffffffffffffffffffffffffffffffffffffff1614156125f8576040517f08c379a00000000000000000000000000000000000000000000000000000000081526004016125ef90615096565b60405180910390fd5b612603838383612e19565b61260e600082611d7e565b6001600360008573ffffffffffffffffffffffffffffffffffffffff1673ffffffffffffffffffffffffffffffffffffffff168152602001908152602001600020600082825461265e919061495e565b925050819055506001600360008473ffffffffffffffffffffffffffffffffffffffff1673ffffffffffffffffffffffffffffffffffffffff16815260200190815260200160002060008282546126b59190614599565b92505081905550816002600083815260200190815260200160002060006101000a81548173ffffffffffffffffffffffffffffffffffffffff021916908373ffffffffffffffffffffffffffffffffffffffff160217905550808273ffffffffffffffffffffffffffffffffffffffff168473ffffffffffffffffffffffffffffffffffffffff167fddf252ad1be2c89b69c2b068fc378daa952ba7f163c4a11628f55a4df523b3ef60405160405180910390a4612774838383612e1e565b505050565b61278a81612785611d76565b612e23565b50565b61279782826112ee565b61286a5760016008600084815260200190815260200160002060000160008373ffffffffffffffffffffffffffffffffffffffff1673ffffffffffffffffffffffffffffffffffffffff16815260200190815260200160002060006101000a81548160ff02191690831515021790555061280f611d76565b73ffffffffffffffffffffffffffffffffffffffff168173ffffffffffffffffffffffffffffffffffffffff16837f2f8788117e7eff1d82e926ec794901d17c78024a50270940304540a733656f0d60405160405180910390a45b5050565b61287882826112ee565b1561294c5760006008600084815260200190815260200160002060000160008373ffffffffffffffffffffffffffffffffffffffff1673ffffffffffffffffffffffffffffffffffffffff16815260200190815260200160002060006101000a81548160ff0219169083151502179055506128f1611d76565b73ffffffffffffffffffffffffffffffffffffffff168173ffffffffffffffffffffffffffffffffffffffff16837ff6391f5c32d9c69d2a47ea670b442974b53935d1edc7fd64eb21e047a839171b60405160405180910390a45b5050565b6000600760009054906101000a900473ffffffffffffffffffffffffffffffffffffffff16905081600760006101000a81548173ffffffffffffffffffffffffffffffffffffffff021916908373ffffffffffffffffffffffffffffffffffffffff1602179055508173ffffffffffffffffffffffffffffffffffffffff168173ffffffffffffffffffffffffffffffffffffffff167f8be0079c531659141344cd1fd0a4f28419497f9722a3daafe3b4186f6b6457e060405160405180910390a35050565b8173ffffffffffffffffffffffffffffffffffffffff168373ffffffffffffffffffffffffffffffffffffffff161415612a85576040517f08c379a0000000000000000000000000000000000000000000000000000000008152600401612a7c90615102565b60405180910390fd5b80600560008573ffffffffffffffffffffffffffffffffffffffff1673ffffffffffffffffffffffffffffffffffffffff16815260200190815260200160002060008473ffffffffffffffffffffffffffffffffffffffff1673ffffffffffffffffffffffffffffffffffffffff16815260200190815260200160002060006101000a81548160ff0219169083151502179055508173ffffffffffffffffffffffffffffffffffffffff168373ffffffffffffffffffffffffffffffffffffffff167f17307eab39ab6107e8899845ad3d59bd9653f200f220920489ca2b5937696c3183604051612b7691906137a3565b60405180910390a3505050565b60008183612b9191906141c9565b905092915050565b612ba4848484612512565b612bb084848484612ec0565b612bef576040517f08c379a0000000000000000000000000000000000000000000000000000000008152600401612be690615194565b60405180910390fd5b50505050565b606060405180602001604052806000815250905090565b6060612c1782611d0a565b612c56576040517f08c379a0000000000000000000000000000000000000000000000000000000008152600401612c4d90615226565b60405180910390fd5b6000612c60612bf5565b90506000815111612c805760405180602001604052806000815250612cab565b80612c8a84613048565b604051602001612c9b929190614d20565b6040516020818303038152906040525b915050919050565b60008151905060006a636f6e736f6c652e6c6f679050602083016000808483855afa5050505050565b60007f80ac58cd000000000000000000000000000000000000000000000000000000007bffffffffffffffffffffffffffffffffffffffffffffffffffffffff1916827bffffffffffffffffffffffffffffffffffffffffffffffffffffffff19161480612da757507f5b5e139f000000000000000000000000000000000000000000000000000000007bffffffffffffffffffffffffffffffffffffffffffffffffffffffff1916827bffffffffffffffffffffffffffffffffffffffffffffffffffffffff1916145b80612db75750612db6826131a9565b5b9050919050565b612dc88383613213565b612dd56000848484612ec0565b612e14576040517f08c379a0000000000000000000000000000000000000000000000000000000008152600401612e0b90615194565b60405180910390fd5b505050565b505050565b505050565b612e2d82826112ee565b612ebc57612e528173ffffffffffffffffffffffffffffffffffffffff1660146133ed565b612e608360001c60206133ed565b604051602001612e719291906152de565b6040516020818303038152906040526040517f08c379a0000000000000000000000000000000000000000000000000000000008152600401612eb39190613857565b60405180910390fd5b5050565b6000612ee18473ffffffffffffffffffffffffffffffffffffffff16613629565b1561303b578373ffffffffffffffffffffffffffffffffffffffff1663150b7a02612f0a611d76565b8786866040518563ffffffff1660e01b8152600401612f2c949392919061536d565b6020604051808303816000875af1925050508015612f6857506040513d601f19601f82011682018060405250810190612f6591906153ce565b60015b612feb573d8060008114612f98576040519150601f19603f3d011682016040523d82523d6000602084013e612f9d565b606091505b50600081511415612fe3576040517f08c379a0000000000000000000000000000000000000000000000000000000008152600401612fda90615194565b60405180910390fd5b805181602001fd5b63150b7a0260e01b7bffffffffffffffffffffffffffffffffffffffffffffffffffffffff1916817bffffffffffffffffffffffffffffffffffffffffffffffffffffffff191614915050613040565b600190505b949350505050565b60606000821415613090576040518060400160405280600181526020017f300000000000000000000000000000000000000000000000000000000000000081525090506131a4565b600082905060005b600082146130c25780806130ab90614b05565b915050600a826130bb91906141c9565b9150613098565b60008167ffffffffffffffff8111156130de576130dd613bfc565b5b6040519080825280601f01601f1916602001820160405280156131105781602001600182028036833780820191505090505b5090505b6000851461319d57600182613129919061495e565b9150600a8561313891906141fa565b60306131449190614599565b60f81b81838151811061315a576131596149fe565b5b60200101907effffffffffffffffffffffffffffffffffffffffffffffffffffffffffffff1916908160001a905350600a8561319691906141c9565b9450613114565b8093505050505b919050565b60007f01ffc9a7000000000000000000000000000000000000000000000000000000007bffffffffffffffffffffffffffffffffffffffffffffffffffffffff1916827bffffffffffffffffffffffffffffffffffffffffffffffffffffffff1916149050919050565b600073ffffffffffffffffffffffffffffffffffffffff168273ffffffffffffffffffffffffffffffffffffffff161415613283576040517f08c379a000000000000000000000000000000000000000000000000000000000815260040161327a90615447565b60405180910390fd5b61328c81611d0a565b156132cc576040517f08c379a00000000000000000000000000000000000000000000000000000000081526004016132c3906154b3565b60405180910390fd5b6132d860008383612e19565b6001600360008473ffffffffffffffffffffffffffffffffffffffff1673ffffffffffffffffffffffffffffffffffffffff16815260200190815260200160002060008282546133289190614599565b92505081905550816002600083815260200190815260200160002060006101000a81548173ffffffffffffffffffffffffffffffffffffffff021916908373ffffffffffffffffffffffffffffffffffffffff160217905550808273ffffffffffffffffffffffffffffffffffffffff16600073ffffffffffffffffffffffffffffffffffffffff167fddf252ad1be2c89b69c2b068fc378daa952ba7f163c4a11628f55a4df523b3ef60405160405180910390a46133e960008383612e1e565b5050565b6060600060028360026134009190614dd6565b61340a9190614599565b67ffffffffffffffff81111561342357613422613bfc565b5b6040519080825280601f01601f1916602001820160405280156134555781602001600182028036833780820191505090505b5090507f30000000000000000000000000000000000000000000000000000000000000008160008151811061348d5761348c6149fe565b5b60200101907effffffffffffffffffffffffffffffffffffffffffffffffffffffffffffff1916908160001a9053507f7800000000000000000000000000000000000000000000000000000000000000816001815181106134f1576134f06149fe565b5b60200101907effffffffffffffffffffffffffffffffffffffffffffffffffffffffffffff1916908160001a905350600060018460026135319190614dd6565b61353b9190614599565b90505b60018111156135db577f3031323334353637383961626364656600000000000000000000000000000000600f86166010811061357d5761357c6149fe565b5b1a60f81b828281518110613594576135936149fe565b5b60200101907effffffffffffffffffffffffffffffffffffffffffffffffffffffffffffff1916908160001a905350600485901c9450806135d4906154d3565b905061353e565b506000841461361f576040517f08c379a000000000000000000000000000000000000000000000000000000000815260040161361690615549565b60405180910390fd5b8091505092915050565b6000808273ffffffffffffffffffffffffffffffffffffffff163b119050919050565b82805461365890613e19565b90600052602060002090601f01602090048101928261367a57600085556136c1565b82601f1061369357805160ff19168380011785556136c1565b828001600101855582156136c1579182015b828111156136c05782518255916020019190600101906136a5565b5b5090506136ce91906136d2565b5090565b5b808211156136eb5760008160009055506001016136d3565b5090565b6000604051905090565b600080fd5b600080fd5b60007fffffffff0000000000000000000000000000000000000000000000000000000082169050919050565b61373881613703565b811461374357600080fd5b50565b6000813590506137558161372f565b92915050565b600060208284031215613771576137706136f9565b5b600061377f84828501613746565b91505092915050565b60008115159050919050565b61379d81613788565b82525050565b60006020820190506137b86000830184613794565b92915050565b600081519050919050565b600082825260208201905092915050565b60005b838110156137f85780820151818401526020810190506137dd565b83811115613807576000848401525b50505050565b6000601f19601f8301169050919050565b6000613829826137be565b61383381856137c9565b93506138438185602086016137da565b61384c8161380d565b840191505092915050565b60006020820190508181036000830152613871818461381e565b905092915050565b6000819050919050565b61388c81613879565b811461389757600080fd5b50565b6000813590506138a981613883565b92915050565b6000602082840312156138c5576138c46136f9565b5b60006138d38482850161389a565b91505092915050565b600073ffffffffffffffffffffffffffffffffffffffff82169050919050565b6000613907826138dc565b9050919050565b613917816138fc565b82525050565b6000602082019050613932600083018461390e565b92915050565b613941816138fc565b811461394c57600080fd5b50565b60008135905061395e81613938565b92915050565b6000806040838503121561397b5761397a6136f9565b5b60006139898582860161394f565b925050602061399a8582860161389a565b9150509250929050565b6139ad81613879565b82525050565b60006020820190506139c860008301846139a4565b92915050565b6000806000606084860312156139e7576139e66136f9565b5b60006139f58682870161394f565b9350506020613a068682870161394f565b9250506040613a178682870161389a565b9150509250925092565b6000819050919050565b613a3481613a21565b8114613a3f57600080fd5b50565b600081359050613a5181613a2b565b92915050565b600060208284031215613a6d57613a6c6136f9565b5b6000613a7b84828501613a42565b91505092915050565b613a8d81613a21565b82525050565b6000602082019050613aa86000830184613a84565b92915050565b600060208284031215613ac457613ac36136f9565b5b6000613ad28482850161394f565b91505092915050565b60008060408385031215613af257613af16136f9565b5b6000613b0085828601613a42565b9250506020613b118582860161394f565b9150509250929050565b6000613b26826138dc565b9050919050565b613b3681613b1b565b8114613b4157600080fd5b50565b600081359050613b5381613b2d565b92915050565b600060208284031215613b6f57613b6e6136f9565b5b6000613b7d84828501613b44565b91505092915050565b613b8f81613788565b8114613b9a57600080fd5b50565b600081359050613bac81613b86565b92915050565b60008060408385031215613bc957613bc86136f9565b5b6000613bd78582860161394f565b9250506020613be885828601613b9d565b9150509250929050565b600080fd5b600080fd5b7f4e487b7100000000000000000000000000000000000000000000000000000000600052604160045260246000fd5b613c348261380d565b810181811067ffffffffffffffff82111715613c5357613c52613bfc565b5b80604052505050565b6000613c666136ef565b9050613c728282613c2b565b919050565b600067ffffffffffffffff821115613c9257613c91613bfc565b5b613c9b8261380d565b9050602081019050919050565b82818337600083830152505050565b6000613cca613cc584613c77565b613c5c565b905082815260208101848484011115613ce657613ce5613bf7565b5b613cf1848285613ca8565b509392505050565b600082601f830112613d0e57613d0d613bf2565b5b8135613d1e848260208601613cb7565b91505092915050565b60008060008060808587031215613d4157613d406136f9565b5b6000613d4f8782880161394f565b9450506020613d608782880161394f565b9350506040613d718782880161389a565b925050606085013567ffffffffffffffff811115613d9257613d916136fe565b5b613d9e87828801613cf9565b91505092959194509250565b60008060408385031215613dc157613dc06136f9565b5b6000613dcf8582860161394f565b9250506020613de08582860161394f565b9150509250929050565b7f4e487b7100000000000000000000000000000000000000000000000000000000600052602260045260246000fd5b60006002820490506001821680613e3157607f821691505b60208210811415613e4557613e44613dea565b5b50919050565b7f4552433732313a20617070726f76656420717565727920666f72206e6f6e657860008201527f697374656e7420746f6b656e0000000000000000000000000000000000000000602082015250565b6000613ea7602c836137c9565b9150613eb282613e4b565b604082019050919050565b60006020820190508181036000830152613ed681613e9a565b9050919050565b7f4552433732313a20617070726f76616c20746f2063757272656e74206f776e6560008201527f7200000000000000000000000000000000000000000000000000000000000000602082015250565b6000613f396021836137c9565b9150613f4482613edd565b604082019050919050565b60006020820190508181036000830152613f6881613f2c565b9050919050565b7f4552433732313a20617070726f76652063616c6c6572206973206e6f74206f7760008201527f6e6572206e6f7220617070726f76656420666f7220616c6c0000000000000000602082015250565b6000613fcb6038836137c9565b9150613fd682613f6f565b604082019050919050565b60006020820190508181036000830152613ffa81613fbe565b9050919050565b7f4e6f206d6f7265204e4654732063616e206265206d696e746564210000000000600082015250565b6000614037601b836137c9565b915061404282614001565b602082019050919050565b600060208201905081810360008301526140668161402a565b9050919050565b7f4e6f7420656e6f756768204d4154494320706169640000000000000000000000600082015250565b60006140a36015836137c9565b91506140ae8261406d565b602082019050919050565b600060208201905081810360008301526140d281614096565b9050919050565b7f4e6f206d6f7265204e4654732063616e206265206d696e74656420776974682060008201527f746869732077616c6c6574000000000000000000000000000000000000000000602082015250565b6000614135602b836137c9565b9150614140826140d9565b604082019050919050565b6000602082019050818103600083015261416481614128565b9050919050565b7f4e487b7100000000000000000000000000000000000000000000000000000000600052601260045260246000fd5b7f4e487b7100000000000000000000000000000000000000000000000000000000600052601160045260246000fd5b60006141d482613879565b91506141df83613879565b9250826141ef576141ee61416b565b5b828204905092915050565b600061420582613879565b915061421083613879565b9250826142205761421f61416b565b5b828206905092915050565b600081905092915050565b6000614241826137be565b61424b818561422b565b935061425b8185602086016137da565b80840191505092915050565b7f2028000000000000000000000000000000000000000000000000000000000000600082015250565b600061429d60028361422b565b91506142a882614267565b600282019050919050565b7f2c20000000000000000000000000000000000000000000000000000000000000600082015250565b60006142e960028361422b565b91506142f4826142b3565b600282019050919050565b7f2900000000000000000000000000000000000000000000000000000000000000600082015250565b600061433560018361422b565b9150614340826142ff565b600182019050919050565b60006143578286614236565b915061436282614290565b915061436e8285614236565b9150614379826142dc565b91506143858284614236565b915061439082614328565b9150819050949350505050565b7f7b226e616d65223a202200000000000000000000000000000000000000000000600082015250565b60006143d3600a8361422b565b91506143de8261439d565b600a82019050919050565b7f222c20226465736372697074696f6e223a20224920616d20726f6f74696e672060008201527f666f7220446567656e4a61636b21222c20000000000000000000000000000000602082015250565b600061444560318361422b565b9150614450826143e9565b603182019050919050565b7f22696d616765223a2022697066733a2f2f516d6162614c4d6d3246547a7a465460008201527f5152743131614b72484663566164475a45576235726475766e6b4a654b344e2260208201527f7d00000000000000000000000000000000000000000000000000000000000000604082015250565b60006144dd60418361422b565b91506144e88261445b565b604182019050919050565b60006144fe826143c6565b915061450a8284614236565b915061451582614438565b9150614520826144d0565b915081905092915050565b7f646174613a6170706c69636174696f6e2f6a736f6e3b6261736536342c000000600082015250565b6000614561601d8361422b565b915061456c8261452b565b601d82019050919050565b600061458282614554565b915061458e8284614236565b915081905092915050565b60006145a482613879565b91506145af83613879565b9250827fffffffffffffffffffffffffffffffffffffffffffffffffffffffffffffffff038211156145e4576145e361419a565b5b828201905092915050565b6000604082019050614604600083018561390e565b61461160208301846139a4565b9392505050565b7f4552433732313a207472616e736665722063616c6c6572206973206e6f74206f60008201527f776e6572206e6f7220617070726f766564000000000000000000000000000000602082015250565b60006146746031836137c9565b915061467f82614618565b604082019050919050565b600060208201905081810360008301526146a381614667565b9050919050565b7f416363657373436f6e74726f6c3a2063616e206f6e6c792072656e6f756e636560008201527f20726f6c657320666f722073656c660000000000000000000000000000000000602082015250565b6000614706602f836137c9565b9150614711826146aa565b604082019050919050565b60006020820190508181036000830152614735816146f9565b9050919050565b7f4552433732313a206f776e657220717565727920666f72206e6f6e657869737460008201527f656e7420746f6b656e0000000000000000000000000000000000000000000000602082015250565b60006147986029836137c9565b91506147a38261473c565b604082019050919050565b600060208201905081810360008301526147c78161478b565b9050919050565b7f4552433732313a2062616c616e636520717565727920666f7220746865207a6560008201527f726f206164647265737300000000000000000000000000000000000000000000602082015250565b600061482a602a836137c9565b9150614835826147ce565b604082019050919050565b600060208201905081810360008301526148598161481d565b9050919050565b7f4f776e61626c653a2063616c6c6572206973206e6f7420746865206f776e6572600082015250565b60006148966020836137c9565b91506148a182614860565b602082019050919050565b600060208201905081810360008301526148c581614889565b9050919050565b7f47616d6520636f6e747261637420616464726573732073686f756c642062652060008201527f7365740000000000000000000000000000000000000000000000000000000000602082015250565b60006149286023836137c9565b9150614933826148cc565b604082019050919050565b600060208201905081810360008301526149578161491b565b9050919050565b600061496982613879565b915061497483613879565b9250828210156149875761498661419a565b5b828203905092915050565b7f546f74616c207061796f757420616d6f756e74206c657373207468616e203000600082015250565b60006149c8601f836137c9565b91506149d382614992565b602082019050919050565b600060208201905081810360008301526149f7816149bb565b9050919050565b7f4e487b7100000000000000000000000000000000000000000000000000000000600052603260045260246000fd5b600081905092915050565b7f53656e64696e67207061796f757420746f20737570706f727465720000000000600082015250565b6000614a6e601b83614a2d565b9150614a7982614a38565b601b82019050919050565b6000614a8f82614a61565b9150819050919050565b7f5061796f7574206661696c656400000000000000000000000000000000000000600082015250565b6000614acf600d836137c9565b9150614ada82614a99565b602082019050919050565b60006020820190508181036000830152614afe81614ac2565b9050919050565b6000614b1082613879565b91507fffffffffffffffffffffffffffffffffffffffffffffffffffffffffffffffff821415614b4357614b4261419a565b5b600182019050919050565b7f547279696e6720746f2066756e64206d6f7265207468616e207468652072657360008201527f6572766500000000000000000000000000000000000000000000000000000000602082015250565b6000614baa6024836137c9565b9150614bb582614b4e565b604082019050919050565b60006020820190508181036000830152614bd981614b9d565b9050919050565b600081519050614bef81613b86565b92915050565b600060208284031215614c0b57614c0a6136f9565b5b6000614c1984828501614be0565b91505092915050565b7f47616d652066756e64206661696c656400000000000000000000000000000000600082015250565b6000614c586010836137c9565b9150614c6382614c22565b602082019050919050565b60006020820190508181036000830152614c8781614c4b565b9050919050565b7f45524337323155524953746f726167653a2055524920717565727920666f722060008201527f6e6f6e6578697374656e7420746f6b656e000000000000000000000000000000602082015250565b6000614cea6031836137c9565b9150614cf582614c8e565b604082019050919050565b60006020820190508181036000830152614d1981614cdd565b9050919050565b6000614d2c8285614236565b9150614d388284614236565b91508190509392505050565b7f4f776e61626c653a206e6577206f776e657220697320746865207a65726f206160008201527f6464726573730000000000000000000000000000000000000000000000000000602082015250565b6000614da06026836137c9565b9150614dab82614d44565b604082019050919050565b60006020820190508181036000830152614dcf81614d93565b9050919050565b6000614de182613879565b9150614dec83613879565b9250817fffffffffffffffffffffffffffffffffffffffffffffffffffffffffffffffff0483118215151615614e2557614e2461419a565b5b828202905092915050565b7f45524337323155524953746f726167653a2055524920736574206f66206e6f6e60008201527f6578697374656e7420746f6b656e000000000000000000000000000000000000602082015250565b6000614e8c602e836137c9565b9150614e9782614e30565b604082019050919050565b60006020820190508181036000830152614ebb81614e7f565b9050919050565b60006060820190508181036000830152614edc818661381e565b9050614eeb60208301856139a4565b614ef8604083018461390e565b949350505050565b7f4552433732313a206f70657261746f7220717565727920666f72206e6f6e657860008201527f697374656e7420746f6b656e0000000000000000000000000000000000000000602082015250565b6000614f5c602c836137c9565b9150614f6782614f00565b604082019050919050565b60006020820190508181036000830152614f8b81614f4f565b9050919050565b7f4552433732313a207472616e736665722066726f6d20696e636f72726563742060008201527f6f776e6572000000000000000000000000000000000000000000000000000000602082015250565b6000614fee6025836137c9565b9150614ff982614f92565b604082019050919050565b6000602082019050818103600083015261501d81614fe1565b9050919050565b7f4552433732313a207472616e7366657220746f20746865207a65726f2061646460008201527f7265737300000000000000000000000000000000000000000000000000000000602082015250565b60006150806024836137c9565b915061508b82615024565b604082019050919050565b600060208201905081810360008301526150af81615073565b9050919050565b7f4552433732313a20617070726f766520746f2063616c6c657200000000000000600082015250565b60006150ec6019836137c9565b91506150f7826150b6565b602082019050919050565b6000602082019050818103600083015261511b816150df565b9050919050565b7f4552433732313a207472616e7366657220746f206e6f6e20455243373231526560008201527f63656976657220696d706c656d656e7465720000000000000000000000000000602082015250565b600061517e6032836137c9565b915061518982615122565b604082019050919050565b600060208201905081810360008301526151ad81615171565b9050919050565b7f4552433732314d657461646174613a2055524920717565727920666f72206e6f60008201527f6e6578697374656e7420746f6b656e0000000000000000000000000000000000602082015250565b6000615210602f836137c9565b915061521b826151b4565b604082019050919050565b6000602082019050818103600083015261523f81615203565b9050919050565b7f416363657373436f6e74726f6c3a206163636f756e7420000000000000000000600082015250565b600061527c60178361422b565b915061528782615246565b601782019050919050565b7f206973206d697373696e6720726f6c6520000000000000000000000000000000600082015250565b60006152c860118361422b565b91506152d382615292565b601182019050919050565b60006152e98261526f565b91506152f58285614236565b9150615300826152bb565b915061530c8284614236565b91508190509392505050565b600081519050919050565b600082825260208201905092915050565b600061533f82615318565b6153498185615323565b93506153598185602086016137da565b6153628161380d565b840191505092915050565b6000608082019050615382600083018761390e565b61538f602083018661390e565b61539c60408301856139a4565b81810360608301526153ae8184615334565b905095945050505050565b6000815190506153c88161372f565b92915050565b6000602082840312156153e4576153e36136f9565b5b60006153f2848285016153b9565b91505092915050565b7f4552433732313a206d696e7420746f20746865207a65726f2061646472657373600082015250565b60006154316020836137c9565b915061543c826153fb565b602082019050919050565b6000602082019050818103600083015261546081615424565b9050919050565b7f4552433732313a20746f6b656e20616c7265616479206d696e74656400000000600082015250565b600061549d601c836137c9565b91506154a882615467565b602082019050919050565b600060208201905081810360008301526154cc81615490565b9050919050565b60006154de82613879565b915060008214156154f2576154f161419a565b5b600182039050919050565b7f537472696e67733a20686578206c656e67746820696e73756666696369656e74600082015250565b60006155336020836137c9565b915061553e826154fd565b602082019050919050565b6000602082019050818103600083015261556281615526565b905091905056fe416e204e465420772f20494420257320686173206265656e206d696e74656420746f2025734142434445464748494a4b4c4d4e4f505152535455565758595a6162636465666768696a6b6c6d6e6f707172737475767778797a303132333435363738392b2fa26469706673582212203e53526e1f2270b3c9a41eabc5ea2529d2960e422100581e666fd3e387b19a3764736f6c634300080a0033",
    "linkReferences": {},
    "deployedLinkReferences": {}
}